:100000006DC700007DC700007BC7000079C70000F6
:1000100077C700000C94F92973C700000C946E0F89
:100020006FC700006DC700000C9420200C94DD29E0
:100030000C94EB290C94FA1F63C7000061C7000001
:100040000C94B7295DC700005BC7000059C70000CA
:1000500057C700000C946F0F53C7000051C7000032
:100060004FC700004DC70000B200A900A000100853
:10007000407E01013E01013E01013E01017E404002
:1000800018000720080808F80000002060A03FA022
:100090006020020202FF0202021010101F00000086
:1000A0000708FFDBBDB5B5CBFF0708FFBB9DADADB6
:1000B000B3FF0708FFFFF7FB81FFFF10100508F8EB
:1000C00078385888091003081C3E7F0D080710FF78
:1000D000818181F1E1C1FF4040404743410D08016A
:1000E00010FFFF11080310F1E1C14743410E000862
:1000F000202121122060E0E0E0FEFE040201000168
:10010000037F7F21C2C4C4C040948400070301025E
:10011000040E080210FEFE7F7F00000000110005A3
:10012000202060E0E0E00201000103C2C4C4C0403E
:1001300007030102040104100102044865206F9FB7
:100140009A619B9892706F93619D2100B903870318
:1001500058032E030703E402C302A402880200002E
:10016000140029003E005300690080009700AE0093
:10017000C600DF00F80012012D014901650182016E
:10018000A001BE01DE01FF012102440268028E02CD
:10019000B502DE020903350364039403C803FE03BA
:1001A00037047304B404F90443059305EA054906CA
:1001B000B3062907AE074808FF08DE090000000063
:1001C0000000000000000000000000001E212121AE
:1001D0001200807F0000007E4A4A4A34000000007E
:1001E0000000FC4020100804020100000001010191
:1001F000010101010101010101017F0488D0E0F04A
:10020000F8000000000000000000000000000000F6
:10021000000000FC94948400000102FC0000000037
:1002200000000000000000001E21212112E0C0801B
:100230004020100F000000C020202040000000FCE3
:1002400000009E9E040303030302000000202023FD
:10025000242525232020203F00007B7B214284048D
:1002600080C000000000000000000000000000004E
:10027000FC94948400040607070708F000000000BF
:10028000000000000000000000803F2121120C004F
:10029000000000FF000000F0084848C80000FE0011
:1002A00000E7818181C1E1F181818101002020206D
:1002B0002121212020203F0000F3404040414347BE
:1002C00040407FC00000000000000000000000006F
:1002D0000000489494946400000000FF00000000B7
:1002E0000000000000000000000000003F2121127B
:1002F0000C0000FF000000F0084848D0000000009B
:100300000000FEFE040404040404040700080808B6
:1003100009090908087F3E1C08087F7F202020204B
:10032000202020E00000000000000000000000008D
:100330000000000048949494640000FF0000000056
:1003400000000000000000FF003C0A090A3C0022F7
:1003500031292926000082868E9EBEFEFEBEDEEF7B
:10036000F6FAFEFEFAF2E2C2820000000808080473
:10037000027984A4A46800FF0000000000000000CF
:10038000000000000000000000000000000000FF6E
:100390000000F0282428F0001008FC0000000000F5
:1003A000000000000000003C0A090A3C00FF0000B9
:1003B000000000000000000000000000000000003D
:1003C000040C1C3C7CFF7C3C1C0C04000000000066
:1003D000009EA1A9A99A804323130B0703FF0303DF
:1003E0000303030300000000000000000000007889
:1003F0008484844800FF000000000000000000F03A
:100400000804E2110909090909090909091121C2A8
:10041000040810E0000000010204040700000000CE
:1004200000804020108844231008040300000000CE
:1004300000000000000000FE0100FC0201000000BE
:100440000000000000000000000000000000007933
:1004500049497900000000000000000080E02020F1
:100460002020E080000302020202030080F8F0E096
:10047000C080F880000F070301000F0080F880C0E3
:10048000E0F0F880000F000103070F0080F8F8008B
:1004900000F8F880000F0F00000F0F00E0100808B0
:1004A0000810E00019121E001E12190000F80000CA
:1004B00000E02000403F0810081F1000101010102E
:1004C0001010F080040404040404070080F01010ED
:1004D00010101010000704040404040480808080BD
:1004E000808080800000000000000000800000008C
:1004F00000000000070808070808070800000000BF
:10050000000000800807080807080807000000002E
:1005100000000000000000000000000000000000DB
:1005200000000000000000000000000000000000CB
:1005300000000000000000000000000000000000BB
:1005400000000000000000000000000000000000AB
:100550000000000000000000000000000000F8049F
:1005600002FE020070181710101F700002FE020039
:1005700002FE0200101F1010105F300002FE02F099
:1005800002FE0200101F101F105F30000000E0107C
:1005900008F8080070181710101F7000804028F825
:1005A000284080000708507F5008070008F808001E
:1005B00008F80800101F1010105F300008F808C07D
:1005C00008F80800101F101F105F30000000000026
:1005D000000000000000000000000000000000001B
:1005E000000000000000000000000000000000000B
:1005F00000000000000000000000000000000000FB
:1006000000000000000000000000000000000000EA
:1006100000000000000000000000000000000000DA
:1006200000000000000000000000000000000000CA
:1006300000000000000000000000000000000000BA
:1006400000000000000000000000000000000000AA
:10065000000000000000000000000000000000009A
:10066000000000000000000000000000000000FE8C
:1006700000000000000000370000000000160E001F
:1006800000160E0000000000000000000020F8200E
:1006900020F8200000020F02020F0200102844FE82
:1006A000840810000304081F080502001824249879
:1006B000402010000402010C12120C0018A4E2A247
:1006C000128C800007081010111205080000001697
:1006D0000E00000000000000000000000000F00814
:1006E00004020000000003040810000000000204DF
:1006F00008F00000000010080403000090A0C0F8FB
:10070000C0A090000402010F01020400808080F06C
:100710008080800000000007000000000000000052
:100720000000000000000058380000008080808039
:100730008080800000000000000000000000000039
:1007400000000000000000181800000000000080F9
:10075000402010000402010000000000F804020222
:100760000204F8000708101010080700000804FE33
:10077000020000000010101F1010000018040202F8
:10078000824438001814121110101C000E0242622C
:10079000528A0600060810101008070080403E002C
:1007A00000FC000003020202121F12007E2212123D
:1007B0001222C6000408101010080700F844221284
:1007C0001224C00007081010100807000E0282C291
:1007D00062321E0000001F000000000018A4424208
:1007E00042A418000708101010080700F8040202BD
:1007F0000284F800000912121108070000000030FE
:10080000300000000000000C0C0000000000003070
:10081000300000000000002C1C0000000080402080
:1008200010080400000001020408100000404040CD
:1008300040404000000202020202020000040810D0
:100840002040800000100804020100001804020289
:10085000028478000000003601000000F008A4A423
:10086000C408F00007081312110A090000F0080478
:1008700002FE0200101F1202121F100002FE42426E
:1008800042A41800101F101010080700F8040202FC
:1008900002041E00070810101008060002FE0202E3
:1008A0000204F800101F10101008070002FE424258
:1008B000F2020E00101F101011101C0002FE424226
:1008C000F2020E00101F101001000000F804028256
:1008D00082849E000708101108041F0002FE424097
:1008E00042FE0200101F1000101F1000000202FE46
:1008F000020200000010101F101000000000020291
:10090000FE0202000C1010100F00000002FEC230A8
:1009100008060200101F10030418100002FE020057
:1009200000000000101F101010101E0002FE32C048
:1009300032FE0200101F1001101F100002FE1AE00C
:1009400002FE0200101F1000131F1000F804020224
:100950000204F800070810101008070002FE020247
:1009600002847800101F110101000000F804020247
:100970000204F8000708101012140B1002FE828205
:1009800082443800101F1001021C1000182442423B
:1009900042841E0006081010100807000E0202FE16
:1009A00002020E000010101F1010000002FE0200D4
:1009B00002FE0200000F1010100F000002FE0200E5
:1009C00002FE020000030E180E03000002FE02F0F9
:1009D00002FE020000071C0F1C070000021EF2406E
:1009E000F21E0200101F1100111F100002FE8200F3
:1009F00082FE02000000111F110000000E02824260
:100A000022120E001E11101010101E0000FE020215
:100A100002020000003F202020200000081020409B
:100A2000800000000000000000010200000202023D
:100A300002FE000000202020203F000010080402D9
:100A4000040810000000000000000000000000008A
:100A50000000000020202020202020000000000EA8
:100A60001600000000000000000000000090484850
:100A70004890E0000708101008041F0002FE12084A
:100A80000810E000101F081010080700E010080808
:100A9000081038000708101010080600E0100808B9
:100AA00012FE020007081010081F1000E09088884E
:100AB0008890E000070810101008040040F8444235
:100AC00002040800101F101000000000E0100808C9
:100AD00010F8080003244848443F000002FE20109C
:100AE00008F00000101F1000101F100000080BFB82
:100AF000000000000010101F101000000000080887
:100B00000BFB000000304040403F000002FE8040F0
:100B100030081800101F110204081800000002021B
:100B2000FE000000000010101F10100008F808F070
:100B300008F00000101F001F001F100008F8100828
:100B400008F00000101F1000101F1000E01008082F
:100B50000810E000070810101008070008F8100837
:100B60000810E000407F481010080700E010080857
:100B700010F8080007081010487F400008F82010FF
:100B800008087000101F1000000000002050888826
:100B90008810380006081010100906002020FE20DA
:100BA0002000000000000F1010100C0008F80800D2
:100BB00008F80800000F1010081F100008F80800BF
:100BC00008F8080000030E180E03000008F808C01B
:100BD00008F80800000F180F180F00000838E08010
:100BE000E0380800101F0100011F100008F808007D
:100BF00008F8080000274848443F000038080888E3
:100C0000482818001C12111010101E0080403804D3
:100C10000202000000010E1020200000000000FE73
:100C2000000000000000003F00000000000202047D
:100C300038408000002020100E0100000080F0E00D
:100C4000C080000000000703010000000080C0E039
:100C5000F0800000000001030700000002FE424295
:100C6000428E0000101F10101008070002FE020242
:100C700002020E00101F1000000000000BFB88E8AD
:100C80000B3B0000101F101310101C0002BEC0FE12
:100C9000C0BE0200101F001F001F10001E040242F1
:100CA00042A41800060810101008070002FE00E019
:100CB00018FE0200101F1300101F100004FC01C2D8
:100CC00031FC0400101F1601101F100000F0080472
:100CD00002FE0200101F0000101F100002FE0202A0
:100CE00002FE0200101F1000101F100002FE020082
:100CF00002FE020000091212110F0000F0080AFEA5
:100D00000A08F0000102121F1202010002FE020096
:100D100002FE020000010202111F100002FE02F09A
:100D200002FE0200101F101F101F10000E02FE1204
:100D30000808F00010101F101008070002FE12082B
:100D4000F000FE00101F10100F001F000E0402F232
:100D50004244F800060810111008070002FE40FC8B
:100D60000202FC00101F000F10100F003844828296
:100D700082FE0200101C0201101F1000F048242403
:100D800022428000070810101008070008F8888821
:100D900088502000101F10101009060008F80808DD
:100DA00008380000101F100000000000E0938B883E
:100DB0008B93E0000708101010080400087880F8F2
:100DC00080780800101F011F011F100038100888CC
:100DD00088502000060810101009060008F8088046
:100DE00068F80800101F1601101F100008F902848F
:100DF00062F90800101F1601101F100008F880404B
:100E000030081800101F0001021C100000E010083C
:100E100008F80800101F0000101F100008F8E880F4
:100E2000E8F80800101F1003101F100008F8888051
:100E300088F80800101F1000101F100008F808089C
:100E400008F80800101F1000101F1000380808F8DC
:100E5000080838000000101F1000000008F8080003
:100E600008F8080000010202111F100008F808C06D
:100E700008F80800101F101F101F10003808F8880D
:100E80004040800010101F101008070008F888402C
:100E90008000F800101F10100F001F0008F8884095
:100EA00040800000101F101010080700381008C8FC
:100EB0008890E000060810111008070008F880F07C
:100EC0000808F000101F000F10100F00E0100808B5
:100ED00008F8080000110A06121F100011241FBE96
:100EE000CFEFD8E0DEBFCDBF11E0A0E0B1E001C0A0
:100EF0001D92AA3CB107E1F70E94BD370C94AE3FAA
:100F00007FC85D98559A80FD599A80FF5998519AEB
:100F1000539A5A9867FD5B9A67FF5B985A9A5A985A
:100F200066FD5B9A66FF5B985A9A5A9865FD5B9AD4
:100F300065FF5B985A9A5A9864FD5B9A64FF5B98C8
:100F40005A9A5A9863FD5B9A63FF5B985A9A5A982B
:100F500062FD5B9A62FF5B985A9A5A9861FD5B9AB0
:100F600061FF5B985A9A5A9860FD5B9A60FF5B98A4
:100F70005A9A5D9A5A985B980895609348018093B5
:100F8000040186958093B101660F660F660F60932A
:100F90000F0108951092B10160E080E0EECF60E0B3
:100FA00082E0EBCF60E084E0E8CF60E086E0E5CF70
:100FB00080914801809301018091B10180930301E8
:100FC00008958091030160910101880FD6CF682FA9
:100FD00080E097CFCF93DF938AE2F9DF60E081E092
:100FE00090DF60E081E08DDF60E081E08ADF60EA31
:100FF00081E087DF8BE2EBDF60E081E082DF60E0B1
:1010000081E07FDF60E081E07CDF60E881E079DF24
:101010008CE2DDDFD0E0C0EA6091270181E071DF82
:101020006091260181E06DDFC150B1F7DF5FD038FC
:1010300091F7B0DFDF91CF91089558985A985B9857
:101040005D98509A529A539A559A5DD55D9A559AE1
:101050005998519A84E15ED5589A84E15BD58AE02B
:1010600059D581E1B4DF84E055D586E2B0DF64E094
:1010700081E047DF81EBABDF6EE081E042DF64E1DE
:1010800081E03FDF80ECA3DF6EE081E03ADF60E0EB
:1010900081E037DF81EC9BDF65E081E032DF85ECCA
:1010A00096DF68E381E02DDF60E481E02ADF8AE3F8
:1010B0008EDF65E081E025DF86E389DF8CE693E063
:1010C0000E94703F809326018BE693E00E94703F60
:1010D000809327018AE693E00E94703F809360012D
:1010E00089E693E00E94703F809361016CE381E0A8
:1010F00008DF84EB6CDF60E081E003DF6BDF89E217
:1011000066DF8AE007C50895582F28E030E090E8B0
:1011100041E080E0642F652309F0892B440F969508
:101120002150310921153105A9F70895A4E0B0E057
:10113000ECE9F8E00C94E03E9C838B83F62E142FB0
:10114000502EA02EB12CC501860F911D813A91051C
:101150000CF09BC08E2D90E0AC01410F511D413829
:1011600051050CF092C0EA94E10E322F3270432EFA
:1011700021FF13C0019733E0959587953A95E1F7E4
:101180008A9DA0018B9D500D9A9D500D11248B813D
:101190009C81840F951F9C838B83E7FE02C09FE791
:1011A000E92E08E7011B21702A83350191E0691AB5
:1011B0007108E11608F469C0C12CD12C8B809C8089
:1011C000860C971C97E0900F99833C2CC51408F06F
:1011D0004AC03A81332321F0F401EC19FD0904C01F
:1011E000EB81FC81EC0DFD1D2490442019F0822D33
:1011F0008BDF282E8BE2EBDE60E081E082DE602F69
:1012000081E07FDE60E081E07CDE698181E079DE83
:101210008AE2DDDE60E081E074DE3F0C632D81E078
:1012200070DE60E081E06DDE632D81E06ADE8CE2DD
:10123000CEDE88E0382E27FE07C06091610181E094
:1012400060DE6091600106C06091270181E059DE97
:101250006091260181E055DE220C3A9461F78FEF10
:10126000C81AD80AB2CF442039F0EB81FC81EA19C0
:10127000FB09FC83EB8306C08B819C818A0D9B1D3F
:101280009C838B83185F085094CF2496E2E10C94E2
:10129000FC3EEF920F93282F8F7030E6839FC001A2
:1012A000112484549E4F322F307324FF02C028E053
:1012B00001C028E520931001303218F0109200018F
:1012C00008C020E220930001209110012D5D2093A1
:1012D000100140E2E42E08E120E04091000160911D
:1012E000100124DF0F91EF900895EF920F93262FB6
:1012F000FC01649131964491FC0132960491FC0109
:101300003396E49050910001450F50911001650F04
:1013100004960CDF0F91EF90089560E0E6CFEF9216
:101320000F93909148019F5F909348014091040171
:10133000440F440F440F20E1829FC001112450E16B
:10134000E52E08E020E060910F01845A9B4FEEDE0D
:1013500080910F01885F80930F010F91EF900895A6
:101360008F5CDDCF80E2DBCFA1E0B0E0EAEBF9E01B
:101370000C94F03E18162CF48983F4DF8981815097
:10138000F9CF2196E2E00C940C3F9091480184E162
:10139000891BEACFA1E0B0E0E0EDF9E00C94F03E6B
:1013A0008983F3DF9091B1019F5F9093B1016981CF
:1013B000983038F087E08093B10181E080934B0151
:1013C00002C010924B018091B101880FD6DD2196A9
:1013D000E2E00C940C3FDEDFE1C4DCDDD6DFDACDE9
:1013E000DEDDD3DFDCCD8DE39ACFCF93DF93EC014D
:1013F0008991882311F093DFFBCFDF91CF9108957E
:10140000CF93DF93EC01FE018491982F9F7719F021
:1014100086DF2196F8CFDF91CF910895CF93DF93A8
:10142000EC01CE010E94703F982F9F7719F077DF73
:101430002196F7CFDF91CF910895EF920F93FC01A2
:1014400004913196E490029671DE0F91EF90089529
:101450000F9384EB91E0E2DF409195014D3F64F4FE
:101460006091830170918401809185019091860142
:1014700003E026E4CFD002C08FE351DF0F9108953F
:1014800097FF09C08F939F938DE249DF9F918F91C2
:10149000909581959F4F6EE271E04AE050E00E9486
:1014A0005C3FA3CFEDDF01C0EBDF5CCFEF92FF929B
:1014B0000F931F93182F062FF42E86E991E0AEDFCD
:1014C000EE24E0914901F0914A018685E81611F475
:1014D000812F09C08485E81611F4802F04C085850A
:1014E000E81611F48F2D1BDFE3948E2D833049F71E
:1014F0001F910F91FF90EF900895EF92FF920F933D
:101500001F93182F062FF42E80E065DF2BDF8CE968
:1015100091E084DF4F2D602F812FC8DF1F910F9145
:10152000FF90EF900895682F80E092E0662309F421
:1015300091E0623009F481E008950F93082FE2EB07
:10154000F1E0880F880FE80FF11D608171818281C1
:101550009381643671058105910570F42091020133
:1015600027FD0AC0802FDFDF692F0E947E256EEFE6
:1015700023E044E03ED104C04FEF04E024E04AD031
:10158000F1DE0F910895863058F4E5EAF1E0E80FB6
:10159000F11DE80FF11D8081918163E035D1E2CE2C
:1015A00008951F93182F80917E01882319F0DADEA9
:1015B00080E0B5DEF4DC8DE891E030DF812F8295AC
:1015C0008F70E1DF812F8F70DEDF1F910895CF9341
:1015D000DF938091110182958F70C9E9D1E0C80F26
:1015E000D11D8881BDDE85E591E018DF8E81B8DEF2
:1015F00085E591E013DFC9E9D1E0809111018370A5
:10160000C80FD11D8E81ACDE80911101CADFDF9140
:10161000CF910895AEE0B0E0E0E1FBE00C94E03E55
:10162000342E222E6B017C01102F1F7080E38983E2
:101630008A838B838C838D838E83F7FE0BC08DE230
:101640006EDEF094E094D094C094C11CD11CE11CD7
:10165000F11C04C005FF02C08BE261DE133009F407
:10166000B6C0143009F4BAC0153051F0163081F00C
:101670001730B1F074E6872E912CA12CB12C17C035
:1016800060EA862E66E8962EAA24A394B12C0FC099
:1016900050E4852E52E4952E5FE0A52EB12C07C0B4
:1016A00040E8842E46E9942E48E9A42EB12C3AE075
:1016B000432E512C612C712CC814D904EA04FB046C
:1016C00070F0C701B6016B5F7F4F8F4F9F4FA30133
:1016D00092010E94443E69017A013394EDCF81E189
:1016E000830D9BEA899F812C1124869486E08319BF
:1016F000899F912C11249694992D990F990D982ECC
:10170000991A5E0187E0A80EB11C2AE030E0A5011D
:10171000C701B6010E94393FF50101900020E9F7A9
:10172000CF0101977C01EA18FB08AE2C6701DD248C
:10173000892D90E004968C159D051CF4839493E00C
:10174000990E882D90E08B5C9F4F0E94703FB82EC1
:1017500004FF04C0A11610F41E1901C010E0AE2C45
:10176000A918A10E1A1424F08EE2D9DD192D1E1924
:10177000911002C028EFA22E912C012F10E0C00E74
:10178000D11EEA2CFF24E7FCF094E92DF0E0EC15E3
:10179000FD05A4F43696E01BF10B81E090E08C0F80
:1017A0009D1FE80FF91F8081BADD9394892D90E089
:1017B0008E159F0551F78EE2B2DDE7CFBB2011F009
:1017C0008B2DADDD222089F0822DA9DD0EC098EE93
:1017D000892E93E0992EA12CB12C69CF80E1882E1F
:1017E00087E2982EA12CB12C62CF2E96E2E10C94C8
:1017F000FC3E0F93362FBC0180E090E0022F242F97
:10180000432F08DF0F9108950F93062FBC0180E04E
:1018100090E026E54DEFFEDE0F9108950F93042F23
:1018200028E440E0F7DE8AE77ADD0F910895E82F9B
:10183000F0E0EE0FFF1FE859FF4F85919491209142
:101840000001420F20911001620F20E0F6CDCF93EE
:10185000DF93C82FD62FE0914901F0914A0148E16A
:101860006EE18685E4DFE0914901F0914A014D2F58
:101870006C2F8485DCDFE0914901F0914A0140E062
:101880006EE18585D4DFDF91CF9108951F93CF93CB
:10189000DF93A0DB80E3FDDC62E080E890E025DD03
:1018A00080E2F7DC8BEB90E038DD60E085E065DB23
:1018B00089EA91E0B3DD6AE085E05FDB81EA91E0EF
:1018C000ADDD88E99AE304D285DB83E1E2DC83E0E5
:1018D000E0DC84EC90E021DD61E082E04EDB8EE430
:1018E0001EDD8DE21CDD83EC91E098DD6BE082E093
:1018F00044DB80E514DD8DE212DD83EC91E08EDDCA
:1019000088E99AE3E5D166DB81E3C3DC81E2C1DCEF
:101910008DE191E002DD60E085E02FDB8EE4FFDC0D
:101920008DE2FDDC85E4FBDC8DEB91E077DD6AE0A8
:1019300086E023DB80E5F3DC8DE2F1DC85E4EFDC9F
:101940008DEB91E06BDD88E99AE3C2D143DB81E165
:10195000A0DC81E191E0E1DC81E09BDC8DEE90E0B8
:10196000DCDC60E081E009DB8EE4D9DC8DE2D7DCF1
:1019700084E4D5DC8DEB91E051DD6AE082E0FDDAB4
:1019800080E5CDDC8DE2CBDC84E4C9DC8DEB91E03D
:1019900045DD88E99AE39CD11DDB82E37ADC82E2B3
:1019A00078DC83EE90E0B9DC60E085E0E6DA8EE496
:1019B000B6DC8DE2B4DC85E4B2DC88EC91E02EDDAF
:1019C0006AE086E0DADA80E5AADC8DE2A8DC85E46C
:1019D000A6DC88EC91E022DD88E99AE379D1FADA95
:1019E00082E157DC8DED90E098DC82E052DC8BECFC
:1019F00090E093DC61E081E0C0DA8EE490DC8DE27F
:101A00008EDC84E48CDC88EC91E008DD6BE082E025
:101A1000B4DA80E584DC8DE282DC84E480DC88EC6E
:101A200091E0FCDC88E99AE353D1D4DAB3DA86E3B7
:101A300091E0F4DCB4DA81E391E0F0DCB3DA8FE733
:101A400091E0ECDCB2DA85E591E0E8DC8BDC81E565
:101A500091E0E4DCC0E014E18C2F612F0E94113E84
:101A6000D82F91110AC0811104C088E99AE330D1BE
:101A7000B1DA60E08D2F880F80DA80E28C0F4FDCC6
:101A8000CF5FCF3549F788E99AE322D1A3DAC0E0E6
:101A9000D4E18C2F6D2F0E94113E911103C060E0A4
:101AA000880F6BDAC83210F480E801C088EE8C0F22
:101AB00036DCCF5FCF3269F788E99AE309D18ADA59
:101AC000DF91CF911F910895089503D002D001D0E6
:101AD00000D000D003D002D001D000D000D003D07D
:101AE00002D001D000D000D0A89503D002D001D000
:101AF00000D000D003D002D001D000D000D003D05D
:101B000002D001D000D000D003D002D001D000D04C
:101B10000000089590E0893C28F0885C48EC849FA0
:101B2000C0011124009709F40895209181002770C5
:101B300019F0DADF0197F6CF8130910519F002979D
:101B40003EE303C037E180E090E02091B200230F34
:101B50002093B30042E04093700027E023BF8895B4
:101B600026E023BF10927000A895DCCF8F9384E00D
:101B7000D1DF07C08F9382E0CDDF03C08F9381E078
:101B8000C9DF8F911F93182F106410937C00E12FF1
:101B9000E07880913901E81759F0E0933901AEDF20
:101BA0008EE980937A0083E083BF889582E083BFCB
:101BB00020E030E0A901E0E01FC08EE980937A00C8
:101BC00083E083BF889582E083BF60917800709145
:101BD0007900260F371F411D511DE43061F48091BB
:101BE0003B01803041F084E02030380720F417FDBD
:101BF00002C01068CACFEF5F80913801E817E8F2A1
:101C000060913C0170913D0117FF04C060913A0161
:101C100070913B0180E090E00E94023E2FEF33E0A4
:101C200040E050E00E94443EB901CA0120913801D1
:101C300030E040E050E00E94443EC9011F91089509
:101C400089B183FB882780F94999826090911C01B2
:101C5000943050F09EE090931801809319011092F7
:101C60001D0191E090931C01E0911C01AE2FB0E0AA
:101C7000A85EBE4F9C91981721F181111AC0A3E074
:101C8000AE0FA37020911D01923041F4B0E0A85E28
:101C9000BE4F9C91933069F42F5F09C0913049F495
:101CA000B0E0A85EBE4F9C91933019F42150209370
:101CB0001D01EF5FE370E0931C01F0E0E85EFE4F72
:101CC000808380911D0187FD819580931E01089579
:101CD000A0E0B0E0EEE6FEE00C94E93ED82EC92E7E
:101CE0005398519806DF10921D01E0911C01F0E01D
:101CF0003196E370FF27E85EFE4F80EF8083C5E6F4
:101D0000D9E19EDF4F9905C0F8DED150D1F7C1501F
:101D1000B9F7CD2DDC2DF12C05E510E0BB24B394F3
:101D2000D7FD36C082E3E82E8BDFE7DEEA94E1F7E9
:101D3000000F4F9B0F5F0F730F3349F4111103C056
:101D4000CD2DDC2D14E01F5F163928F021C00111C4
:101D500002C011111DC0A8951C161D062CF42A974F
:101D6000209711F4CFEFDFEF80911E01882339F027
:101D7000F39480917F01811102C0B0927F0184E1D0
:101D80008F1570F680911D01811102C0F12CC8CF12
:101D9000812FCDB7DEB7E9E00C94053FCF9308D98A
:101DA000C82F80914B01882301F1813051F4C73055
:101DB00041F463E18EE0E1D88BE2B1DA63E18EE0D9
:101DC000DCD880E49FE184DF811104C080911E0192
:101DD0008111F7CFC73041F480914B01813021F45C
:101DE00060E08EE0CAD8D1DAECD8CF91089585E9C9
:101DF00093E00E94703F382F86E993E00E94703F85
:101E000020914001230F30914101381F209321017F
:101E10003093220183E0283E380720F0C901885E14
:101E2000934002C080E090E062E370E00E941D3EBB
:101E3000683008F067E0ECE4F1E0E60FF11DE60F32
:101E4000F11D459155912591359162E3681B421B27
:101E5000530B649FC001659F900D1124499662E366
:101E600070E00E941D3E620F731F709382016093A9
:101E7000810187E993E00E94703F992787FD909543
:101E80006091400170914101860F971F90933B0133
:101E900080933A0190937D0180937C010895CF93C4
:101EA000DF9324E130E0B9010E941D3EDC01EEE544
:101EB000F1E0E60FF71FE60FF71FC591D5914591A9
:101EC00055914C1B4A9FC0011124B9010E941D3E2F
:101ED0006C0F7D1FCB01DF91CF9108951895189558
:101EE00010922501109223011092770110925B014C
:101EF000109224011092470110927E01109262010B
:101F000010926301109264011092930182E0809319
:101F1000940110920201109292011092910110927C
:101F20008701109288011092890110928A0181EF35
:101F3000809396010895A1E0B0E0E1EAFFE00C94FF
:101F4000EE3E17B818B8E82FF0E0EB5CFE4F949126
:101F500095B9262F281BE20FF11D27FDFA95E49174
:101F6000E92BE4B969830EDE8C016981862F0ADED4
:101F700020913C0130913D0136952795A9014350B0
:101F80005109B801625E7F4F4617570778F4255E06
:101F90003F4F0217130750F4BC01625E7F4F461794
:101FA000570720F441E08217930708F040E014B887
:101FB000842F2196E4E00C940A3FCF9361E080E007
:101FC000BADFC82F62E080E0B6DFC80F62E081E0D0
:101FD000B2DF8C0FCF910895A3E1B0E0E2EFFFE014
:101FE0000C94E03EB82E10922501807FC1F4E5DF0D
:101FF000833009F0C8C30E94EA078FE892E00EDA46
:102000000E94CF078FE38BD980ED97E061DE8B30A4
:10201000D0F40E94EA0783E291E000DAB4C306E953
:1020200010E00E94EA0782EE91E0F8D9C6DF833023
:1020300021F41F5F143010F006C010E088E26ADD62
:10204000015079F764C00E94CF070E9481208AEC7A
:1020500090E0E4D960E08FE693E00E947D3F60E08D
:1020600080E793E00E947D3F60E08EE693E00E946F
:102070007D3F60E082E00E947E256C019A83898327
:1020800061E082E00E947E257C019C838B8360E07E
:1020900081E00E947E258C019E838D8323E040E2B7
:1020A0006EEFC601A6DB23E040E26EEFC701A1DBC5
:1020B00023E044E06EEFC8019CDB2AE5C216D104A0
:1020C00024F024E130E03A83298369818FE693E0AC
:1020D0000E947D3F8AE5E816F10424F024E130E017
:1020E0003C832B836B8180E793E00E947D3F0A3520
:1020F000110524F024E130E03E832D836D818EE6CE
:1021000093E00E947D3F82E080934B0147DE9B2D50
:102110009F709F87913009F04EC001E010E058EBAE
:10212000252E52ED352E57E4452E512C62E0A62E79
:1021300078E0972EECE06E2EF4ECCF2EF6E3DF2E57
:10214000E12CF12C3AC0839423E0281560F148D9A2
:1021500044D984E5E4D8C8019ED904D9E1E0BE128F
:1021600031C08DEF90E05AD964E0809140019091A8
:1021700041014ADB0E94CF0788EF90E04FD9809160
:1021800081019091820187D98EEB8093380117B835
:1021900018B814B815B888EE93E09ADDF4E0BF16CD
:1021A00091F28B3080F288EE93E092DD0F5F1F4F4B
:1021B0000830110511F418E71FC1812CB02EB0E2D0
:1021C0007B2EC5CFF2E0BF1241C020913C0130917F
:1021D0003D01A8E5BBE10E94DD3DA70196010E94FB
:1021E000663E81E085B985E084B980E0288B398B33
:1021F0004A8B5B8BBBDC288939894A895B89821BC6
:10220000930B9A83898381E184B980E0288B398B91
:102210004A8B5B8BABDC288939894A895B89821BB5
:10222000930B9C838B8384E085B984E184B981E03E
:10223000288B398B4A8B5B8B99DC28893989821BE7
:10224000930B9E838D8382EE90E0B7C093E0B9122A
:1022500029C0A5B8EAE0E4B980E088DC20913C011F
:1022600030913D013695279538872F83821B930B3C
:102270009A838983F2E2F4B980E078DC2F81388593
:10228000821B930B9C838B8395B828E224B981E051
:102290006DDC2F813885821B930B9E838D8384EDAB
:1022A00090E08BC084E0B81207C085E892E0B6D811
:1022B00084DE811165C287C095E0B91213C015B8DC
:1022C000A4B880E053DC9A83898394B881E04EDC23
:1022D0009C838B8374B882E049DC9E838D8384EF7A
:1022E00090E06BC0E6E0BE1227C0A4B8A5B880E0BD
:1022F0003DDC20913C0130913D01821B930B9A8380
:10230000898394B895B881E031DC20913C0130910B
:102310003D01821B930B9C838B8374B875B882E05C
:1023200025DC20913C0130913D01821B930B9E8363
:102330008D8380EF90E041C0F7E0BF1240C0209154
:102340003C0130913D01A8E5BBE10E94DD3DA201C9
:1023500091010E94443EA5B883E084B980E0288BB7
:10236000398B4A8B5B8B02DC288939894A895B89E6
:10237000821B930B9A83898395B864B881E0288B7C
:10238000398B4A8B5B8BF2DB288939894A895B89D7
:10239000821B930B9C838B8375B890E394B982E086
:1023A000288B398B4A8B5B8BE1DB28893989821B2F
:1023B000930B9E838D838EEC90E030D804C0E1E0D7
:1023C000BE1609F4E4CE0E94CF0789819A8158D8BD
:1023D0000E94B2098B819C8153D80E94B2098D81E1
:1023E0009E814ED8D4CE0E94F00985E892E016D89E
:1023F00084E690DB115019F0E0DD8111F4CF0E94EA
:10240000EA0783EC90E00AD823E044E06FEF809184
:102410003E0190913F01EDD90E94CF078CEB90E0F7
:102420000E940E0A23E044E06FEF809145019091F5
:102430004601DFD982E080934B01B0DC1092250188
:102440000E94EA0788EB90E00E940E0A60E082E0BA
:102450000E942B1D80908B0190908C01A0908D018B
:10246000B0908E019C868B8661E082E00E942B1DDD
:10247000C0908B01D0908C01E0908D01F0908E0186
:10248000DE86CD8660E081E00E942B1D00918B01ED
:1024900010918C011E830D8362E080E00E942B1D51
:1024A00080918B0190918C019C838B8362E081E011
:1024B0000E942B1D80918B0190918C019A878987B6
:1024C00061E080E00E942B1D80918B0190918C0136
:1024D0009A838983EF85E13021F0209144012230F5
:1024E00021F4029698878F8304C098878F83109277
:1024F0004401C4010E94540AC6010E94540AB80152
:10250000882777FD8095982F03E026E444EF82D852
:102510006E01FFE0CF0ED11CFE01319681919191A9
:102520000A97853B9105F0F4EC15FD05B9F7AEE887
:10253000EA2EA3E0FA2E8E010F5F1F4FF801608193
:102540000E5F1F4F6E5EC7010E947D3FFFEFEF1AC7
:10255000FF0A0C151D0591F70E94CF0789ED91E048
:102560000E940E0A82E080934B0118DC0E947334B3
:102570002F85213029F080914401823009F0E8C094
:10258000E0E4BE2E10E0FAE0CF2ED12CE12CF12CAD
:10259000A7DC0E94EA0780E00E94B0098FE791E083
:1025A0000E940E0A82E00E94B0098DE290E00E9433
:1025B0000E0A1092250160E082E00E942B1D00911E
:1025C00095016091830170918401809185019091C2
:1025D0008601073F44F4A70196010E94443E0F5F25
:1025E000B901CA01F6CF00939501609383017093FE
:1025F00084018093850190938601073F09F092C082
:10260000DC01CB0180569109A109B10980399545BA
:10261000A105B10508F086C06091970170919801FD
:10262000CB018B569F4F8B32914008F07BC01F5FD0
:10263000153008F478C085E993E00E948B3F0E9432
:10264000EA0786E290E00E940E0A8091970190913D
:1026500098010E94400ACBDB18B881E087B980E27C
:1026600084B982E08FDA853D9340DCF714B810928C
:102670003B0110923A0182E085DA8C0180917C0165
:1026800090917D0190933B0180933A0182E07ADA48
:102690007C01EE0CFF1C10923B0110923A0182E08B
:1026A00071DAC0907C01D0907D01D0923B01C09244
:1026B0003A01080F191F0E191F090E94CF078FE159
:1026C00090E00E940E0A87E993E00E94703F73E059
:1026D000B72EB80E9601D8010E94EC3D9701442711
:1026E00037FD4095542F0E94663EB20E6B2D87E950
:1026F00093E00E947D3F8B2D992787FD90950E9446
:10270000400A75DB82E080934B0148DB1092440164
:102710008EE893E00E94703F682F81E993E00E9469
:102720007D3F16C010E00E94CF0760918301709139
:102730008401809185019091860104E026E4409116
:1027400095010E940A0B88E2E5D9BA9409F020CFDE
:1027500087E3809338010E947B370E94EA0783E277
:1027600091E00E940E0A0E94CF0787E792E00E9444
:102770000E0A1092250182E080934B010FDB03C00B
:1027800052E0852E20CE6396E2E10C94FC3E8091CF
:10279000440181110DC08EE893E00E94703F61E01A
:1027A000680F81E993E00E947D3F81E080934401BE
:1027B0000895CF92DF92FF920F931F93CF93DF93F1
:1027C0001F92CDB7DEB7E82FF0E0E85CFE4FE49152
:1027D000E8B9E7B915B8E62FF0E0EB5CFE4FE491FD
:1027E000E4B908E813E1FE2EFF0C862F6983BED9F9
:1027F0006C01F4B869818017910710F48C01F5CF52
:102800000097E9F00E94D5078FE591E00E940E0A3B
:10281000D60120EA36E841E050E00E94F23D28E986
:1028200037EB40E050E00E94443EDA01C90122E06B
:1028300041E467EF0E94F90B17B818B814B80F906D
:10284000DF91CF911F910F91FF90DF90CF9008956E
:102850000F931F93CF93DF9385E094D985E08ED9B2
:10286000EC018C01000F111F000F111F0A561F4FA2
:1028700010924201043883E0180750F48DEC91E087
:102880000E940E0A0E94C50981E08093420126C081
:102890008CED91E00E940E0A62E0C8010E94040CD7
:1028A0000E94B209CA3F86E0D80790F4C333D640ED
:1028B00060F481EF92E00E940E0A0E94C5098DEC3F
:1028C00029D95E988AEC26D909C088EF92E002C027
:1028D00089ED91E00E940E0A0E94C509DF91CF9117
:1028E0001F910F910895A7E1B0E0E9E7F4E10C949E
:1028F000E03E982E862E542EA895E62FF0E0EB5C55
:10290000FE4F24912D873396E490E42FF0E0EB5CAA
:10291000FE4F6490162D110FE82FF0E0EB5CFE4F98
:10292000F4903396749065B8422E462844B877B830
:1029300078B8862F23D95C01812F862985B90D852A
:10294000012B04B9882D1AD998878F833D8534B916
:10295000882D14D91C0114B8C7D815B844B8882DCF
:102960000DD98A159B0528F5805E9E4FA816B906DD
:1029700008F4D4C4E7B818B8F5B88F2D862984B9FF
:10298000A0903C01B0903D01892DF8D8A81AB90A51
:10299000F4B840913C0150913D0158874F83892DF7
:1029A000EDD86F817885681B790B78876F831B0161
:1029B00007C09501205E3E4F8217930708F4AEC40E
:1029C00020915B018091770190E0820F911D029729
:1029D0004CF0213009F0A2C490915801809174010B
:1029E00098139CC474E7A716B10408F49AC0C501F3
:1029F000880F991F44962816390608F092C077B8B8
:102A000078B804B9882DB6D86C01852DBBD85C0187
:102A100015B9882DAFD89601295A3D4F1F2918B8EE
:102A2000E7B814B915B928173907A8F5852DA2D824
:102A300088349F4028F085E08093250182E204C01D
:102A400085E08093250184E280932401D092510196
:102A5000C0925001AC14BD0440F4C6018A199B0910
:102A6000909357018093560104C010925701109221
:102A700056019601A0E1B7E20E94DD3D20911F01C1
:102A80003091200140E050E00E94443E30935301D9
:102A9000209352013BC4892D6DD88C01852D72D8AD
:102AA0006C01F5B8892D66D8895A9D4F801791071A
:102AB00008F034C478B877B8852D5CD8813D934050
:102AC00028F485E08093250182E304C085E08093AB
:102AD000250184E3809324010C151D0538F4C01AE8
:102AE000D10AD0927301C092720104C01092730196
:102AF0001092720120913C0130913D01201B310B5D
:102B0000A0E1B7E20E94DD3D20912801309129012A
:102B100040E050E00E94443E30936F0120936E01EC
:102B2000C4C118B8E7B8F5B8EF2DE629EB83E4B9CE
:102B3000892D24D89E838D83C0903C01D0903D0187
:102B4000852D20D89A8389830A9748F514B881E0A7
:102B50000E948A0D812F8F2984B9892D0FD89E83D9
:102B60008D83C0903C01D0903D01C81AD90A852DB3
:102B700009D89A83898380912801909129019C0129
:102B800040E050E060E871EA83E09CE10E94443E4E
:102B9000D6010E94F23DA981BA819D010EC0ED814E
:102BA000FE81CE1ADF0A960149815A81241B350B1A
:102BB000A4E6B0E00E94DD3D9A0140E050E00E94B2
:102BC000443E2E873F87488B598B14B815B878B888
:102BD00077B881E00E948A0D6F817885693B7740E4
:102BE00008F09CC344B8882D0E94BE0D8F359D40CF
:102BF00008F461C114B881E00E948A0D44B881E0F4
:102C00000E948A0D04B9882D0E94BE0D9F8B8E8B69
:102C1000852D0E94C20D9A878987892D0E94C20D39
:102C200098878F83E985FA85E13DF74008F4C8C0AD
:102C300015B9882D0E94BA0D8115944078F08AE06C
:102C4000809325018F81988549855A85841B950B32
:102C500090936D0180936C0121E016C484E0809311
:102C600025018DE0809324016E897F892616370621
:102C700020F43B016218730802C06E887F88E090E0
:102C80001F01F090200100E010E060E871EA83E0AD
:102C90009CE1A80197010E94443ED3010E94F23DAD
:102CA000A985BA859D0140E050E00E94443E809194
:102CB0007701882369F08091680190916901A09162
:102CC0006A01B0916B0182179307A407B50710F54D
:102CD000209368013093690140936A0150936B011E
:102CE0002E893F89A0E1B7E20E94DD3DA80197014E
:102CF0000E94443E30936F0120936E018F8198852E
:102D0000E985FA858E1B9F0B90936D0180936C0172
:102D100021E001C020E08091680190916901A091BB
:102D20006A01B0916B014E855F8568897989841746
:102D30009507A607B70730F54093680150936901DE
:102D400060936A0170936B018D819E8169817A81A4
:102D5000861B970B90936D0180936C019601A0E107
:102D6000B7E20E94DD3D209128013091290140E029
:102D700050E00E94443E205F384D30936F01209315
:102D80006E0103C0222309F47FC39101A0E1B7E2E1
:102D90000E94DD3DA80197010E94443E30937101DD
:102DA000209370019501A0E1B7E20E94DD3DA801EA
:102DB00097010E94443E30937301209372014CCFDF
:102DC00071E62716310408F076C08E899F89813D0F
:102DD000974008F470C085E08093250182E18093DC
:102DE00024018E899F8986509F4FEF81F8858E1729
:102DF0009F0720F483E1809324011DC02F81388533
:102E00004E895F894217530790F4A0911F01B0913A
:102E10002001241B350B0E94DD3D9A0140E050E06B
:102E20000E94443E30936D0120936C0104C01092C7
:102E30006D0110926C015E2D5770E52E852D80641A
:102E400080937C001BE0AA24A394B12CCC24CA94C8
:102E5000E3E0DE2EA89561E0862D1CD504B986B18D
:102E60008E21E9F36D8564B980917A008064809346
:102E70007A0080917A0086FDFCCF80917800909155
:102E80007900D601A81BB90BAA0EBB1E115011F771
:102E9000C501880F991F880F991F69E070E00E9493
:102EA0001D3E7093730160937201809177018F5F73
:102EB00080937701D1CE44B865B8882D0E94BE0DAD
:102EC0009A838983852D0E94C20D98878F834091B4
:102ED0003C0150913D01481B590B4A30510550F5BA
:102EE00014B881E00E948A0D04B915B9882D0E949A
:102EF000BE0D9A838983852D0E94C20D98878F838A
:102F000080911F01909120019C0140E050E060E819
:102F100071EA83E09CE10E94443EA981BA810E944B
:102F2000F23D20913C0130913D01EF81F8852E1B4F
:102F30003F0B09C029813A81241B350BA4E6B0E080
:102F40000E94DD3D9A0140E050E00E94443E298706
:102F50003A874B875C87E7B818B8FB81F4B9F5B9B5
:102F6000892D0E94BE0D9F878E87852D0E94C20DE0
:102F70009E838D83882D0E94C20DAC012E853F85D6
:102F80002033314108F0C8C1F5B8892D4C8B5D8BD9
:102F90000E94BE0DBC01F4B8892D6A8B7B8B0E9408
:102FA000BE0D6C0115B881E00E948A0DF5B8892D1F
:102FB0000E94BE0D4C895D896A897B89A0E4CA168E
:102FC000A6E0DA0608F05AC08133914108F456C0F1
:102FD0008E859F858A569F4F6817790708F04EC0E7
:102FE00086E08093250180915B018F5F80935B0178
:102FF0008D819E81841B950B90935101809350018C
:103000002E853F85241B350B3093570120935601A5
:1030100014B815B8E8B881E00E948A0DF4B8892D7B
:103020000E94BE0D853F910508F03CC2EB81E4B9DA
:10303000852D0E94BE0D813D934008F433C2892D39
:103040000E94C20D8D3D924008F42CC2F4B8892D27
:103050000E94BE0D8D3D924008F424C2F5B881E077
:103060000E948A0D15B8892D0E94BE0D853F9105DD
:1030700008F018C287E08093250114C24B8144B93F
:1030800045B981E00E948A0D412E4F2844B845B8C9
:10309000892D0E94BE0D6C0100913C0110913D01F3
:1030A000081B190B852D0E94C20D9F878E8760918A
:1030B0003C0170913D01681B790B7C836B83882DEB
:1030C0000E94C20D9E838D838B819C818E3F99408F
:1030D00008F4B1C084E0809325018CE08093240142
:1030E00038012016310610F4621873088091280107
:1030F000909129016C01E12CF12C60E871EA83E0E8
:103100009CE1A70196010E94443ED3010E94F23D3A
:10311000EB81FC819F0140E050E00E94443E8091A1
:103120005B01882369F080914C0190914D01A09141
:103130004E01B0914F0182179307A407B50708F518
:1031400020934C0130934D0140934E0150934F0119
:103150008E859F852D813E81821B930B909351011B
:10316000809350019801A0E1B7E20E94DD3DA701E4
:1031700096010E94443E309353012093520121E076
:1031800001C020E080914C0190914D01A0914E0131
:10319000B0914F0149855A856B857C8584179507C9
:1031A000A607B70730F540934C0150934D0160934B
:1031B0004E0170934F018F81988569817A81861BBA
:1031C000970B90935101809350019B01A0E1B7E2CE
:1031D0000E94DD3D20911F013091200140E050E030
:1031E0000E94443E205F384D30935301209352019A
:1031F00003C0222309F457C19101A0E1B7E20E9464
:10320000DD3D20911F013091200140E050E00E94FF
:10321000443E30935501209354019501A0E1B7E25B
:103220000E94DD3DA70196010E94443E3093570164
:103230002093560137C171E62716310408F06CC09F
:1032400009348DE0180708F467C085E080932501F4
:1032500082E0809324018D819E8186509F4F8C1542
:103260009D0520F483E0809324011EC0AD81BE81C2
:10327000AC15BD05A8F4A0912801B09129019601D3
:10328000ED81FE812E1B3F0B0E94DD3D980140E049
:1032900050E00E94443E309351012093500104C0FD
:1032A0001092510110925001072D0770852D8064F6
:1032B00080937C001BE0CC24C394D12CA89560E0C3
:1032C000862DE8D244B845B886B18023E9F7F4B832
:1032D00080917A00806480937A0080917A0086FDE4
:1032E000FCCF8091780090917900C80ED91E1150C2
:1032F00029F7C601880F991F880F991F69E070E0B0
:103300000E941D3E709357016093560180915B01AE
:103310008F5F80935B01C6C017B818B814B815B892
:1033200017B8F7EC2F16F1E03F0608F4A2C018B862
:1033300018EC072D0E2907B981E00E948A0DE7B825
:10334000892D0E94C20D429710F01150A1F75D84A3
:10335000550C4F2C440C44B845B861E0862D9AD2E8
:10336000892D0E94BE0D8C0154B815B877B878B875
:1033700060E0862D8FD2A0903C01B0903D01882D59
:103380000E94BE0D6C012D8524B9892D0E94BE0DB1
:103390001C01882D0E94C20D281A390A18B8E7B8F6
:1033A000F4B8F5B861E0862D75D2892D0E94BE0D66
:1033B0007C01882D0E94C20DE81AF90A2E143F04E0
:1033C00038F444B845B8892D0E94BE0D170115C0C8
:1033D00085010C191D0954B815B877B878B860E0A4
:1033E000862D58D2E0903C01F0903D01882D0E943E
:1033F000BE0DA701481B590BCA019101275931097C
:1034000029383141B0F58215930598F5C80133E0AC
:10341000969587953A95E1F7893C910510F088ECEF
:1034200090E0800F911F8215930518F5C10124E0EB
:10343000969587952A95E1F780179107D0F48091AA
:103440002501833018F483E08093250180912301C6
:10345000E82FF0E0DF01A756BE4F9C9216968C92A3
:10346000EE0FFF1FEB55FE4F318220828F5F80935E
:103470002301682D892D25D017B818B814B815B8B0
:103480006796E2E10C94FC3E809177018F5F809318
:103490007701222389F350927401809275019092F2
:1034A0007601EACF21E080915B018F5F80935B0121
:1034B000222311F3509258019092590180925A019F
:1034C000DBCFA0E0B0E0E7E6FAE10C94E23E982E14
:1034D000862EA895E62FF0E0EB5CFE4F54903396D5
:1034E0002491E82FF0E0EB5CFE4FE4903396F490EB
:1034F0003091770180915B0190E0830F911D892BC2
:1035000009F0C3C1A89580912B0190912C01880FDF
:10351000991F880F991F90933D0180933C018091E2
:103520007C0190917D01880F991F880F991F9093BE
:103530003B0180933A018EEB8093380118B827B98C
:10354000E4B8E5B858E1D52EC0E0D0E0882D0E945F
:10355000BE0D782E692E892D0E94C20D8C018C1B08
:103560009D0B97FF03C091958195910903972CF0CE
:10357000A895DA94D1F1E801E9CFEE0C15B8E4B8DA
:10358000892D0E94BE0D8135910578F5E5B8892D0C
:103590000E94BE0DEC01F7B8F8B815B854B888E130
:1035A000482EC12CD12C892D0E94BE0DB82EA92EDB
:1035B000882D0E94C20D7C019C012C193D0937FF0A
:1035C00003C03195219531092330310514F5550C8F
:1035D00054B8882D0E94BE0D6C01003C94E419077C
:1035E000E8F4C53881E0D807E8F080912B0190918C
:1035F0002C0190933D0180933C0180917C0190913E
:103600007D0190933B0180933A0187E380933801D9
:103610003CC1A8954A9449F36701C5CFC03B9DE4DE
:10362000D90718F784EAE81682E0F80608F063C0C4
:1036300098E9C916D104C8F200913C0110913D01EE
:103640009E01A8E9B7EB0E94DD3D98012C1B3D0BC4
:1036500040E050E00E94443E29013A0198012C19B3
:103660003D09A8E9B7EB0E94DD3D860120E030E08E
:10367000A90198010E94443EC837DF4070F4C3019D
:10368000B201B2E0660F771F881F991FBA95D1F774
:10369000620F731F841F951F12C098E7C9169FE021
:1036A000D906A0F4CA01B901A2E0660F771F881FEE
:1036B000991FAA95D1F7640D751D861D971D25E0EC
:1036C00030E040E050E00E94443E08C0240D351D2B
:1036D000461D571D5695479537952795A4E6B0E0AA
:1036E0000E94F23D6B017C018CEAC80E8DE0D81E71
:1036F000E11CF11C73C0272D362D0217130708F4A7
:103700009801CB2DDA2DCE15DF0508F4E70159011C
:103710002017310708F45801A0912801B091290120
:10372000C501821B930B9C010E94DD3D20913C0151
:1037300030913D012A193B0940E050E00E94443E8F
:1037400029013A018E01EC16FD0608F48701A091CB
:103750001F01B09120019E01201B310B0E94DD3D15
:103760006801E12CF12CA70196010E94443E98E7E4
:10377000A9169FE0B90670F4C301B201E2E0660F3A
:10378000771F881F991FEA95D1F7620F731F841F57
:10379000951F11C008378FE01807B0F4CA01B901AE
:1037A00052E0660F771F881F991F5A95D1F7640D55
:1037B000751D861D971D25E030E040E050E00E9419
:1037C000443E69017A010AC069017A01C40CD51C22
:1037D000E61CF71CF694E794D794C7941091250142
:1037E000143008F002CF9A94980C892D90E0EC01E7
:1037F000CE59DE4F2881880F991F880F991FFC0131
:10380000EE54FE4F2223D1F14080518062807380BC
:10381000A7019601241935094609570957FF07C022
:1038200050954095309521953F4F4F4F5F4FAAE0FF
:10383000B0E00E94F23DA30192012C593F4F4F4F3F
:103840005F4F2C0D3D1D4E1D5F1D0E94443E232BDE
:10385000242B252B09F0C9CE133019F081E0809379
:10386000250182E0888380917E01E82FF0E0EB590A
:10387000FE4F90828F5F80937E01B7CEC082D1824F
:10388000E282F38281E08883B0CECDB7DEB7E0E19B
:103890000C94FE3ECF93C82FC09595B160FF02C037
:1038A000982B01C09C2395B994B1982B94B982E0D0
:1038B0000E948A0D84B18C2384B985B18C2385B98B
:1038C000CF910895A0E0B0E0E8E6FCE10C94E93E79
:1038D0008AE0D82E9FE3B92E29E0C22E17B818B877
:1038E00015B8B4B880E00E94BE0D8C0181E00E9442
:1038F000C20DEC0182E00E94C20D20912501293009
:1039000079F417B814B81093060100930501D09309
:103910000801C093070190930A018093090156C0E2
:103920000430110540F4C430D10558F484309105B9
:1039300040F321E00AC021E0083E134018F020E0E7
:1039400001C021E0C83ED34008F42260883E934085
:1039500008F4246027B9C0E0D0E0A89580E00E9478
:10396000B60D7C0181E00E94C20D8C0182E00E94B4
:10397000C20D24E1E21625E0F20608F4389A04317B
:1039800035E0130708F4399A843125E0920708F4EA
:103990003A9A36E0E316F10428F40630110510F4E3
:1039A000069738F02196C43F81E0D807B1F6C0925F
:1039B000250100E010E00C171D0729F00E94790D89
:1039C0000F5F1F4FF8CFDA9409F088CFCDB7DEB77D
:1039D000E9E00C94053FCF92DF92EF92FF92CF93F4
:1039E000209183013091840140918501509186019D
:1039F000C09195018AE0C82ED12CE12CF12C8C2F9E
:103A0000CF5F213A96E8390791E04907510538F030
:103A1000CA01B901A70196010E94443EF0CF8093EC
:103A20009501A0913C01B0913D010E94F23D28E832
:103A300033E140E050E00E94443E20938301309304
:103A400084014093850150938601CF91FF90EF90C0
:103A5000DF90CF900895A4E0B0E0E1E3FDE10C94A5
:103A6000E63E982E862E8FEF860F992D990F990D91
:103A7000890F80935D01E92DF0E0EB5CFE4F14911E
:103A8000862F90E0FC01EB5CFE4FF490FC01E85CBB
:103A9000FE4F049180912501813009F4A7C2409125
:103AA00023018FE991E065EA71E0DC012A2F281BF0
:103AB0002417A0F42D9128110EC09D012750310923
:103AC000F9012081291107C0FB01208131812C3DA2
:103AD000354008F48BC26E5F7F4FE8CF10929001A3
:103AE00010928F0181EF80939501109283011092C3
:103AF00084011092850110928601E4DE18B807B99E
:103B0000F4B8F5B8892D0E94C20D7C01882D0E9461
:103B1000C20DE81AF90A14B810925F0110925E0102
:103B2000C12CD12C20915E0130915F01243F3140A6
:103B300050F515B914B90E94730D14B815B80E9448
:103B40007A0DA895892D0E94C20D6C01CE18DF0850
:103B500080915E0190915F018E37910528F02BE4F2
:103B6000C216D1040CF43EC25DE2C51651E0D50682
:103B700084F480915E0190915F01019690935F01C2
:103B800080935E01CFCFEDE2CE16E1E0DE060CF4CD
:103B900029C220915E0130915F01232B21F0C601E3
:103BA00000E010E006C0F5E1CF16F5E0DF06BCF35B
:103BB00085C020915E0130915F012017310758F0D8
:103BC0000E94740D892D0E94C20D8E199F09A8951F
:103BD0000F5F1F4FEECF8601081B190B1016110641
:103BE00094F4093C11050CF0FDC128EE33E0D80136
:103BF0000E94EC3D9601442737FD4095542F0E94CA
:103C0000443E790102C0E12CF12CA0905E01B090FD
:103C10005F012FEFA21AB20AC501A0E0B0E08093C5
:103C20008B0190938C01A0938D01B0938E01C601FE
:103C3000800F911F27D29C01D5010E94DD3D60932A
:103C40008B0170938C0180938D0190938E01609312
:103C5000830170938401809385019093860187EF9F
:103C600080939501B8DE20918301309184014091C9
:103C700085015091860181E793E029833A834B8344
:103C80005C830E94703FA8EEB3E0A81BB10987FDDA
:103C9000B39529813A814B815C810E94FC3D24E6E9
:103CA00030E040E050E00E94443E20938301309396
:103CB0008401409385015093860152C103DE15B8FB
:103CC00087E087B918B8F12EFF0CF4B880E4809330
:103CD0007B0084E580BF892D806480937C0086E131
:103CE00080937A000E947D0D10925F0110925E0118
:103CF00010928000109285001092840087E286BBAB
:103D000081E280936F0081E080938001F5B890910B
:103D1000250180938100953059F481E090E0092CD1
:103D200001C0880F0A94EAF78095877087B901C0AF
:103D300007B9F89483B7817F83BF8091800188237E
:103D400089F083B7816083BF7894889583B78E7F2D
:103D500083BFF894A89580915E0190915F018034B3
:103D6000964059F7789410928100E0908600F09088
:103D7000870010926F0086E980937A0014B815B816
:103D8000892D0E94C20D2091400130914101821B7A
:103D9000930B0B96909398018093970180915E010D
:103DA00090915F018032934008F01CC180915E01C8
:103DB00090915F0190938E0180938D01F0928C0120
:103DC000E0928B0184EF8093950180915E01909148
:103DD0005F0182349105C8F060918B0170918C0174
:103DE00080918D0190918E0124E630E040E050E01A
:103DF0000E94443E20938B0130938C0140938D01AF
:103E000050938E0186EF80939501A0918101B0912E
:103E1000820120918B0130918C0140918D01509154
:103E20008E010E94F23D20E233E040E050E00E942B
:103E3000443E20938B0130938C0140938D0150932D
:103E40008E01209383013093840140938501509328
:103E50008601C1DD80919501843F09F071C0C09059
:103E60008301D0908401E0908501F0908601F0EA12
:103E7000CF16FFE0DF06E104F104C0F4A7019601CC
:103E80002C543F4F4F4F5F4F60EA7FE080E090E05F
:103E90000E94443E2C0D3D1D4E1D5F1D209383014D
:103EA000309384014093850150938601C090830133
:103EB000D0908401E0908501F0908601C114D10476
:103EC00021E0E206F10428F4D092C301C092C201BD
:103ED00006C081E090E09093C3018093C20180917D
:103EE0005D0190E082579C4F0E94703F482F50E048
:103EF00060E070E04C155D056E057F0568F4C41A3E
:103F0000D50AE60AF70AC0928301D0928401E092B2
:103F10008501F092860114C084E1C80ED11CE11C19
:103F2000F11CC416D506E606F70610F40E94C71366
:103F300010928301109284011092850110928601E3
:103F400014B98091830190918401A0918501B09171
:103F500086014997A105B10508F444C0E12CF12C74
:103F600080912301882321F0809125018530D1F5AE
:103F700088E0809325012091950180919601821718
:103F8000BCF028132FC040918301509184016091AF
:103F90008501709186018091870190918801A0919F
:103FA0008901B0918A0184179507A607B707D0F455
:103FB0008091830190918401A0918501B091860147
:103FC0008093870190938801A0938901B0938A011F
:103FD00020939601F0929201E092910180929301D8
:103FE0009092940117B818B814B815B82496ECE05C
:103FF0000C94023F1F920F920FB60F9211248F93D1
:104000009F93B59904C080918001811109C0B59B2F
:1040100010C080918600909187008A3F910548F4F6
:1040200080915E0190915F01019690935F01809372
:104030005E019F918F910F900FBE0F901F9018956A
:104040001F920F920FB60F9211248F939F9310928D
:104050008001B09B10C080918600909187008A3FBC
:10406000910548F480915E0190915F0101969093D3
:104070005F0180935E019F918F910F900FBE0F9013
:104080001F9018950F9221E08C32920710F48CE269
:1040900091E08C52914069E170E00E941D3E99E1EF
:1040A0006B3210F0982F6BE2981BEFE0F3E0E60F15
:1040B000F11DE60FF11D9F93CF010E94703F482F25
:1040C0003196CF010E94703F582F3196CF010E9448
:1040D000703F282F3196CF010E94703F382F6F918B
:1040E000421B530B649FC001659F900D11240C96D9
:1040F00069E170E00E941D3E620F731FCB010F90BB
:104100000895A0E0B0E0E7E8F0E20C94E63E88E82D
:1041100093E190932C0180932B0190933D01809328
:104120003C018EEB8093380118B880E187B90E947A
:10413000820D17B884E00E94BE0DAC018B5C9840E4
:10414000833F9140A0F481E08093470120913C019E
:1041500030913D01AFEBB9E00E94DD3D9A0140E0B6
:1041600050E00E94443E30932C0120932B0180911B
:104170002B0190912C0190933D0180933C018EE0A6
:104180000E94C20D8EE00E94BE0D9093410180936B
:1041900040010E94F70E96DB18B8C1E0C7B985E16F
:1041A00085B9C4B980E00E94BE0D7C0112E017B948
:1041B00084E0982E94B881E00E94BE0DE80EF91EAE
:1041C00097B890E1892E84B882E00E94BE0DE80E77
:1041D000F91E15B8C8B9C7B9C4B9C0913C01D0918E
:1041E0003D0180E00E94BE0D5C0118B917B994B87A
:1041F00000913C0110913D0181E00E94BE0D6C01D7
:1042000098B897B884B880903C0190903D0182E0C6
:104210000E94BE0DC00FD11FC80DD91DCA19DB09E0
:10422000CC19DD09C81BD90B17B818B814B8809180
:104230003C0190913D014C01880C991C880E991EFF
:104240008E189F088C1A9D0AA12CB12C9701A0E909
:10425000BAE10E94DD3DA50194010E94443E69013E
:104260007A0130934601209345019E01A0E9BAE10D
:104270000E94DD3DA50194010E94443E30933F0120
:1042800020933E012057354E309329012093280179
:1042900080E7C81A85EED80AD0922001C0921F018B
:1042A00087E380933801CDB7DEB7ECE00C94023F92
:1042B000FF920F931F93CF93DF93C82FD62FF42E27
:1042C0000E94B00986E391E00E940E0AE9D16D2FA9
:1042D0008C2F0E94ED35C1E00091C6011091C701FD
:1042E0002091C8013091C901011511052105310541
:1042F00009F0C0E08091020187FD02C0C11104C035
:1043000082E391E00E940E0A8D2F0E94B009C11134
:1043100006C00E94B209809165010E949D0AFF209B
:1043200049F080914801813128F490E08E569C4FED
:104330000E940E0A80E00E94EB09C1111BC060912F
:10434000C6017091C7018091C8019091C90103E035
:1043500028E447EF0E940A0B85E491E00E940E0AD0
:1043600087EA93E00E94783F23E046E464EF0E94EE
:10437000F90B1AC0809165010E949D0A809102018B
:104380008E3F94F483E691E00E940E0A60910B0147
:1043900070910C0180910D0190910E0103E028E4D1
:1043A000409102010E940A0B8091BE019091BF01D1
:1043B000A091C001B091C101892B8A2B8B2BF1F008
:1043C00080E00E94EB096091BE017091BF01809175
:1043D000C0019091C10104E028E440E00E940A0B72
:1043E00080E491E00E940E0A23E040E26FEF8091AA
:1043F000C4019091C5010E94F90B07C080E00E94A2
:10440000CA0980914B01811102C00E94C509CDB734
:10441000DEB7E5E00C94093F0F931F93CF93DF9332
:10442000082F0E94CA07809193010E94B0098FE76C
:1044300091E00E940E0A13D560919301809194013E
:104440005DD39093900180938F0111E08A3F9F4F3D
:1044500008F010E0C0919101D0919201112321F058
:1044600087E391E00E940E0A809194010E94B009B6
:10447000002359F09091480181E1891B0E94B40901
:1044800082E890E00E940E0A02C00E94C5090E94C4
:10449000CF07609187017091880180918901909187
:1044A0008A0104E026E4409196010E940A0B112340
:1044B00069F08EE691E00E940E0A22E044E06EEF81
:1044C00080918F01909190010E94F90B0E94C50983
:1044D0000E94D207CD2B69F087E691E00E940E0A78
:1044E00022E045E26FEF80919101909192010E944C
:1044F000F90B0E94C509DF91CF911F910F9108958B
:104500008F7021F40E94D5070C94281408958F30E1
:1045100021F490914201913011F08F5F089580E075
:104520000895CF938DE890E00E945D2FC0E00E9437
:10453000700F60E082E00E94611A62E080E00E94F9
:10454000611A0E94CA0780917E01882329F041E008
:1045500062E080E0ADDE12C08DE890E00E940E0ABD
:104560008CE993E00E940E0A0E94CF078FE30E941D
:104570008F0980E00E94CA090E94C5098C2FC0DF04
:1045800088EE93E00E94680E811109C080911E019F
:10459000843028F48C2FBBDFC82F8A3F40F20E9462
:1045A000EA07CF9108950F931F93CF93DF93C0E055
:1045B000D8E012EF01E10E94700F60E082E04BDA78
:1045C000D093250180919501843FE1F440918301CE
:1045D00050918401609185017091860144365105A6
:1045E0006105710578F440E060E082E00E9482336A
:1045F0006093830170938401809385019093860179
:104600001093950180919501823FACF080939601C3
:1046100040918301509184016091850170918601E0
:1046200040938701509388016093890170938A01B8
:1046300081E0F2DE1CC00E94CA0786E890E00E947A
:104640000E0A80914801902F981B892F0E94B4096F
:1046500082E890E00E940E0A0E94CF078FE30E943A
:104660008F090E94C5090E94D2070E94C5098C2F9C
:1046700047DF88EE93E00E94680E81110AC08091A6
:104680001E01843030F48C2F42DFC82F8A3F08F49B
:1046900092CF0E94EA07DF91CF911F910F91089569
:1046A000A3E1B0E0E6E5F3E20C94E03E82E0809323
:1046B000020180912501813009F01CC280917E01A8
:1046C000813009F017C22090650124E0229EF0019C
:1046D0001124EE54FE4F80819181A281B3818930F3
:1046E00032E59307A105B10508F004C29B8B8A8BC4
:1046F000312C61E0822D631528F00E94930AB82EB8
:10470000A92E03C00E94930A5C01EA2DF0E0E85C48
:10471000FE4F74908B2D90E0FC01EB5CFE4FE4911A
:1047200015B818B82A893B89203F3105A0F430FC20
:1047300012C000911F011091200100591A4121E07F
:1047400030E00B2C02C0220F331F0A94E2F7C9019C
:10475000872987B906C0E4B977B800911F01109185
:10476000200144E1642E8B2D0E94BA0D4C018A2D4C
:104770000E94C20D34E08316910410F4049710F0E7
:104780006A9489F760E460937B0084E580BF8B2D99
:10479000806480937C0096E190937A00E12CF12C68
:1047A00010928000109285001092840087E286BBF0
:1047B0000E947D0D232D2170298B30FC05C081E8DE
:1047C0008093810078B808C078B80E94860D80E296
:1047D00086BB81E88093810046B345FF12C018B8BC
:1047E0001092810080E286BB8091860090918700C4
:1047F0006C0120918400309185008217930768F046
:1048000013C040FFE9CF31E036BBA895C701019640
:104810007C018035910501F7E2CF40FF05C061E0E2
:1048200066BB8FEFE81AF80A86E980937A0034E1D4
:10483000732E8B2D0E94BA0D4C018A2D0E94C20D41
:1048400024E08216910410F4049710F07A9489F70A
:1048500080904501909046018A899B89880E991E17
:10486000800E911E209121013091220100399AE1A0
:104870001907B0F461EEC616D104E104F10438F46E
:10488000C60165E070E00E941D3E645101C069E10F
:1048900028523109261B310967FD339586E009C08E
:1048A000C40160EB76E30E941D3E87E0860F285D21
:1048B0003F4F90E0A0E0B0E08C159D05AE05BF0530
:1048C00028F4C81AD90AEA0AFB0A03C0C12CD12C61
:1048D00076018989882329F092E2C90ED11CE11C56
:1048E000F11C60E5E616F10418F0C12CD12C76011C
:1048F0008BE0C816D104E104F10428F091E0C91A54
:10490000D108E108F10840913C0150913D01A12CF2
:10491000B12CA8EEB3E00E94DD3D2B013C019801D3
:10492000DA010E94DD3DA50194010E94443E442726
:104930005527C301B2010E94443EC9010E944F0F96
:10494000FC01A5019401C701B6010E94023E4B0182
:104950005C01BF0180E090E023E0660F771F881FB5
:10496000991F2A95D1F76B5F7F4F8F4F9F4F2AE09A
:1049700030E040E050E00E94443EC501B4010E9496
:10498000443E832D90E0E1E0F0E0EC0FFD1F64E099
:10499000369EE00DF11D1124208331834283538321
:1049A0006989611117C06CE0C616D104E104F104F5
:1049B00088F0FC013196EE0FFF1FEE0FFF1F81E024
:1049C00090E08C0F9D1FE80FF91F208331834283F5
:1049D00053833394A895339493E0931508F089CECC
:1049E00018B884E00E948A0D21E04D815E816F81BC
:1049F000788589819A81AB81BC8184179507A60748
:104A0000B70708F020E04D855E856F857889898538
:104A10009A85AB85BC8584179507A607B70710F064
:104A200032E001C033E0E22FF0E0EE0FFF1FEE0FA7
:104A3000FF1F81E090E08C0F9D1FE80FF91FDC0144
:104A400094E0399FA00DB11D11244D915D916D91A0
:104A50007C9180819181A281B381481759076A07AF
:104A60007B0708F0322FE1E0F0E0EC0FFD1F24E0BF
:104A7000329FE00DF11D112480819181A281B381CB
:104A800080930B0190930C01A0930D01B0930E0144
:104A900030FD09C02A893B89203F310520F48BEF86
:104AA0008093020117C02CEF20930201BC01CD01BD
:104AB0006B5F7F4F8F4F9F4F2AE030E040E050E028
:104AC0000E94443E20930B0130930C0140930D0152
:104AD00050930E0180910B0190910C01A0910D015A
:104AE000B0910E01892B8A2B8B2B11F410920201AD
:104AF00017B814B86396E2E10C94FC3EAEE1B0E066
:104B0000E4E8F5E20C94E03E662EB82E860F898329
:104B100020912501283059F5209187013091880195
:104B20004091890150918A0157FD15C0109196015D
:104B300009C0CA01B9012AE0312D412D512D0E9431
:104B4000443E1F5F173FACF391F42A3560E036070F
:104B50004105510518F48FEF9FEF7DC1173F39F4E0
:104B600080E028178DE738074105410510F020E067
:104B70003DE72C8B3D8B26EDA22EE8E3F1E0E60D20
:104B8000F11D859180608E87E8E3F1E0EB0DF11D6A
:104B9000859180608F87E5E3F1E0E60DF11D75906A
:104BA000E5E3F1E0EB0DF11DC59090EC692AB92A1F
:104BB00081E0E82EF12C012D112D8E831F821886A5
:104BC00019861A861B861C861D86188E198E1B8ECA
:104BD0001A8E0E94621C80E088B960927C000E945C
:104BE0007E0D3F8537B975B874B80E94850D14B82D
:104BF00015B8DD24A6ED8A2E3E8537B975B874B890
:104C000060927C00A895A0927A0080917A0086FD3F
:104C1000FCCFA0927A0080917A0086FDFCCF209094
:104C2000780030907900B0927C00A0927A00809158
:104C30007A0086FDFCCF80927A000E94830D0E944C
:104C4000850DC5B8C4B80E94840D0E94860DA89534
:104C5000A895A895A89514B815B880917A0086FDF6
:104C6000FCCF2091780030917900288B398B3F85DB
:104C700037B9C5B8C4B8A895B0927C00A0927A00A4
:104C800080917A0086FDFCCFA0927A0080917A0014
:104C900086FDFCCF609178007091790060927C0075
:104CA000A0927A0080917A0086FDFCCF80927A00F3
:104CB0000E94830D0E94850D75B874B80E94840D02
:104CC0000E94860DA895A895A895A89514B815B822
:104CD00080917A0086FDFCCF409178005091790058
:104CE00014B8CB01820D931DE80EF91E011D111D94
:104CF000EA82FB820C831D8388899989840F951F22
:104D00002E813F8168857985280F391F611D711DAE
:104D10002E833F836887798722E32417150650F096
:104D200075B874B80E94880D14B815B8888D83952D
:104D3000888F07C0483E73E0570718F08A8D839527
:104D40008A8F888999892817190660F03E8537B9B6
:104D5000C5B8C4B80E94880D14B815B8898D83955C
:104D6000898F07C0883E73E0970718F08B8D839575
:104D70008B8FD3945D2D5F3F09F03ECF409045016E
:104D800050904601440C551C9201E4E0240D351D61
:104D9000EA95E1F72901570168016E807F808884D8
:104DA0009984209125012830C1F46C897D89812D59
:104DB000912D6C537040804090409B01AC010E944B
:104DC000023E9B01AC016FEF71EC8EE390E00E941C
:104DD000443E621A730A840A950AA614B704C804EA
:104DE000D90428F46A187B088C089D0803C066243F
:104DF00077244301B20180E090E09301A4010E9476
:104E0000023E9501A6010E94443E8DE693E0798121
:104E1000870F911D0E94703F90E0682EC90160E1EC
:104E200070E00E941D3E260F371FC9016816190643
:104E300018F4861991090FC08C5E9F4F8615910555
:104E400040F48C899D89843981E1980710F00E9493
:104E5000C713812D912D6E96E2E10C94FC3EA4E0E7
:104E6000B0E0E5E3F7E20C94E83E80919101909187
:104E70009201892B09F0B2C0E0919301F0E0E85C67
:104E8000FE4F0491E0919401F0E0EB5CFE4F149131
:104E90000E94621C18B815B807B914B98091940122
:104EA0000E94C20D5C01009196018CE0800F84305D
:104EB00008F094C0015F8091870190918801A091D2
:104EC0008901B0918A012AE0C22ED12CE12CF12C6B
:104ED000BC01CD016B5F7F4F8F4F9F4FA7019601A4
:104EE0000E94443E0F5F073019F0DA01C901F0CF8C
:104EF000293883E138074105510508F06FC0253096
:104F0000310508F46BC015B914B900E010E00217C0
:104F1000130768F429833A834B835C830E94840DD2
:104F20000E5F1F4F5C814B813A812981F0CF14B80D
:104F300015B8A89585E08093380180919401298364
:104F40003A834B835C830E94C20D29813A814B8155
:104F50005C81A816B90620F47C01EA18FB0802C09F
:104F6000E12CF12C00E010E00217130768F429830C
:104F70003A834B835C830E94840D0F5F1F4F5C81DB
:104F80004B813A812981F0CF809194010E94C20D1A
:104F900027E320933801A895A816B90618F48A19B2
:104FA0009B0902C080E090E08E159F0588F4970170
:104FB000281B390B69F0A4EFB1E00E94DD3D970199
:104FC00040E050E00E94443E3093920120939101D2
:104FD0000E94621C17B818B814B815B82496EAE0F5
:104FE0000C94043FA5E0B0E0E8EFF7E20C94E03E5B
:104FF00082E592E062D720EF2A8354980E94790DCF
:1050000014BC16BC109212011092130110921401DC
:105010001092150131E035BB30936E001092800084
:1050200083E19AE790938B0080938A00E1E0F0E0BF
:10503000F0938900E093880010928500109284001C
:1050400083B5816083BDF6E0F6BBF0936F00789482
:1050500024E02093810012E319820E94720DA8952A
:105060004F9902C031E0398385B5811127C015BC45
:1050700086B5809312010E94D2070E94C5090E9442
:10508000D5070E94C5090E94F00986E60E948F0993
:105090000E94F30960911201709113018091140133
:1050A0009091150147E00E940E0C54988091810068
:1050B000882339F08FE30E948F0903C0115069F6ED
:1050C000D6CF1092810010926F0020911201309182
:1050D00013014091140150911501DA01C9010197A2
:1050E000A109B109893D9146A105B10508F029C181
:1050F000AAE0B0E00E94F23D685F7F4F8F4F9F4F64
:1051000023E096958795779567952A95D1F7660F51
:10511000771F709379016093780154980E94790DFC
:1051200016BC1092120110921301109214011092E9
:10513000150181E085BB80936E0010927B01109277
:105140007A0194E09BBB8091680084608093680042
:10515000789480916D00806180936D001D820E9423
:10516000720DA8954F9902C0E1E0E98380916D002E
:1051700084FF05C0FD81FF5FFD83FA3F81F715BC09
:1051800080916D008F7E80936D00809168008B7F91
:105190008093680086B5809312010E94D20784E54F
:1051A0000E948F090E94F3098091120190911301CE
:1051B000A0911401B09115012091780130917901ED
:1051C0003C832B831C012D019C01A20160E070E057
:1051D00080E090E003E00E94173F51016201E12C62
:1051E000F12C00E010E00E94303F59016A017B0180
:1051F000E82F192F03E00E94173F0E2F0E94303F27
:1052000003E00E94173F51016201E12CF12C00E004
:1052100010E00E94303F02E00E94173F00E00E9431
:10522000303F01E00E94173F00E00E94303F03E062
:105230000E94173FEB81FC815F01C12CD12C00E063
:105240000E947C3E39014A011B012C012B813C81CB
:105250002038310530F007E023E745EFB301C40102
:1052600016C084E6A82EB12CC12CD12CE12CF12C37
:1052700000E010E09301C2010E947C3EE22FF42F77
:1052800007E023E747EF6E2F732F8F2F952F0E9494
:105290000A0B3D813A3F21F48FE30E948F0951C0F0
:1052A0009301A401B101C2012C393E4C4340510588
:1052B000610571058105910509F008F442C00E945D
:1052C000D50786E60E948F090E94F3099301A40185
:1052D000B101C201530164017101820121153A4CEF
:1052E0004A495B43610571058105910589F080F0AC
:1052F00020E030E04AE85DE568E775E483E691E0A8
:105300000E947C3EE22FF42F07E028E44AEF0FC012
:1053100020E030E846EC54EA6EE77DE883E090E078
:105320000E947C3EE22FF42F07E028E44CEF6E2F22
:10533000732F8F2F952F0E940A0B8AE70E948F09E7
:10534000549810926E0080ED97E00E94680E2981BB
:10535000820F49F480911E01833028F43A81315044
:105360003A8331114ACE2596E2E10C94FC3E1F921D
:105370000F920FB60F9211248F939F93AF93BF9309
:1053800078948091120190911301A0911401B09131
:1053900015019F5FAF4FBF4F809312019093130190
:1053A000A0931401B0931501BF91AF919F918F917C
:1053B0000F900FBE0F901F9018951F920F920FB66F
:1053C0000F9211248F9386E085BD8F910F900FBEB1
:1053D0000F901F9018951F920F920FB60F921124E5
:1053E000A8951092810015BC0F900FBE0F901F90D2
:1053F00018951F920F920FB60F9211242F933F937F
:105400008F939F9380917A0190917B01892B11F466
:1054100081E085BD20917A0130917B0180917801F6
:10542000909179012817390730F015BC80916D00F3
:105430008F7E80936D0080917A0190917B0101961F
:1054400090937B0180937A019F918F913F912F914F
:105450000F900FBE0F901F9018958E3008F08E5051
:10546000811103C08DE592E040C0813019F482E5DE
:1054700092E03BC0823019F482E292E036C0833081
:1054800019F487E192E031C0843019F488E990E0A2
:105490002CC0853019F48DE890E027C0863019F4CF
:1054A00086E890E022C0873019F487E092E01DC0C2
:1054B000883019F48EEE91E018C0893019F488E430
:1054C00092E013C08A3019F48CE091E00EC08B306A
:1054D00019F482E091E009C08C3019F488E392E07D
:1054E00004C08D3021F48EE292E00E940E0A0C94EA
:1054F000C5090F93CF9388E990E0DFD4C0E0109204
:10550000250160E082E0F5D4809125018830C1F565
:105510000E94CF0783E40E948F090E94F3096091E3
:105520008701709188018091890190918A0103E03F
:1055300026E4409196010E940A0B0E94C5096091E1
:10554000930180919401DADA9093900180938F0116
:105550000E94D2078FE691E00E940E0A80918F018F
:10556000909190018A3F2FEF920730F422E044E0BF
:105570006EEF0E94F90B08C08FE30E948F0904C0F0
:105580000E94F0090E94D2070E94C5098C2F0E9438
:10559000802288EE93E00E94680E81110BC08091FA
:1055A0001E01843038F48C2F0E948722C82F8A3F36
:1055B00008F4A5CFCF910F9108951F93CF93DF9358
:1055C00088E492E07AD4C0E0D0E01AE00E94F009CA
:1055D00089E591E00E940E0A83E00E94BE0D63E01F
:1055E0009C01129FC001139F900D11240E94040C76
:1055F0008C2F0E94802288EE93E00E94680E90918A
:105600001E01811102C0992361F0C0E0963080F440
:105610008F3510F0DF5F02C0882319F0D53010F00D
:1056200007C0D0E08C2F0E948722C82F803F70F2E5
:10563000DF91CF911F910895A5E0B0E0E2E2FBE297
:105640000C94E03E82E292E038D480E180938000C6
:1056500010926F0081E090E0909389008093880021
:1056600010928B0010928A0083E086BB1092820019
:1056700088E08093810015B881E184B918B881E091
:1056800087B9229A89E080938100212C1B822AE02D
:10569000298333243394812C912C5401839411E178
:1056A000822D90E00A966EE170E00E94313E662EF7
:1056B000562E3B81631789F00E94CA0782E292E06E
:1056C0000E940E0A712C751428F48EE20E948F0934
:1056D0007394F9CF0E94C5096B821231C8F0C701DB
:1056E000B601A50194010E94443E2B013C01832D8B
:1056F00069810E94113EA92FB0E0A50194010E948A
:10570000F23D6B017C01C40CD51CE61CF71C0CC0DF
:10571000832D69810E94113EA92FB0E0A50194015B
:105720000E94F23D6B017C010E94CF0789813812F3
:1057300008C081E0123108F480E08A83811106C03C
:1057400001C01A82163120F48EE303C08CE301C03D
:1057500082E50E948F090E94B209412FC701B6015C
:105760000E940E0CC701B6017E5E85489F4FA701BF
:105770009601220F331F441F551F0E94443ECA0149
:105780004F3F510539F030F08DE08093810080E08B
:1057900094E01FC04034510530F08CE080938100CC
:1057A00080E091E016C04830510530F09BE09093C6
:1057B000810080E490E00DC0892B31F0EAE0E093B5
:1057C000810088E090E005C0F9E0F093810081E07D
:1057D00090E02C01612C712CCA01B901A301920146
:1057E0000E94443EC90101979093890080938800EC
:1057F0008091880090918900892B31F421E030E07C
:1058000030938900209388000E94C5090E94D20726
:1058100086E60E948F090E94B209809188009091CB
:1058200089009D838C8360E079E08DE390E0A301A3
:1058300092010E94443EA4E6B0E00E94F23DEC8159
:10584000FD8131969F0140E050E00E94443E2901D5
:105850003A01A4E6B0E0A70196010E94F23D461A83
:10586000570A680A790A05E228E44EEFC301B2013B
:105870000E940A0B8AE70E948F090E94C5098CEDDD
:1058800095E00E94680E811105C080911E01811172
:1058900042C042C0863958F01092810010928000B8
:1058A00017B814B822982596E2E10C94FC3E813595
:1058B00078F1FA81FF23D9F01150C501B4012AE033
:1058C00030E040E050E00E94443E49015A01C701E7
:1058D000B6010E94443ECA01B9012AE030E040E02E
:1058E00050E00E94443E362E2AE029833DC0163106
:1058F00090F51F5F163111F435E13983AAE0B0E06D
:10590000A50194010E94F23D4B015C01312C2CC099
:105910008B3008F03394212C80911E018B3008F0DD
:10592000BBCF80911D0187FF03C08F5F9981890FD5
:10593000830D90E0E9816E2F70E06F5F7F4F0E94D2
:10594000313E382E822D0E948722282EFFEEF81736
:1059500008F0A6CEA1CF2AE0298333243394812CEA
:10596000912C5401839411E1212C9ACEA4E0B0E053
:10597000ECEBFCE20C94E43E87E192E09ED283E201
:105980008093800010926F008FEF90E090938B00D7
:1059900080938A0083E086BB1092820015B881E173
:1059A00084B918B881E087B9229A81E090E0909399
:1059B00089008093880089E08093810010E000E0F6
:1059C000A2E37A2E612CB4E6CB2ED12CE12CF12C63
:1059D00088248A9483E0982EA12CB12C7016E9F1CA
:1059E00083E6871510F4ECE97E0E272D30E0AFEF4B
:1059F000B3E00E94DD3D6E5C7F4F8F4F9F4FA7014C
:105A000096010E94443E30938B0020938A002983A4
:105A10003A834B835C830E94CF07A8EEB3E02981D1
:105A20003A814B815C810E94F23D61507E4F8F4FE5
:105A30009F4FA50194010E94443EDA01C90125E06F
:105A400045E26FEF0E94F90B0E94C509F8E2F615D6
:105A500018F48CE30E948A0D072D80E496E00E94E2
:105A6000680E682E82E8861558F417B810928100E7
:105A70001092800014B822982496EEE00C94003F17
:105A800090911E019B3088F780911D0187FD8C59F4
:105A9000780EE2E3E61518F4FAE07F0E03C0662004
:105AA00051F0739410E0812F0E948722182F803FBD
:105AB00008F494CFDACF9111F5CFF5CFA3E0B0E0A1
:105AC000E4E6FDE20C94E93ED82E81110BC08CE097
:105AD00091E0F3D18AE693E00E94703F182F89E6A7
