:10000000B7C30000C7C30000C5C30000C3C30000DE
:10001000C1C300000C94A725BDC300000C94FC0ACA
:10002000B9C30000B7C300000C94CA1B0C948B2505
:100030000C9499250C94A41BADC30000ABC3000025
:100040000C946525A7C30000A5C30000A3C300004E
:10005000A1C300000C94FD0A9DC300009BC30000D7
:1000600099C3000097C30000870589058D05970592
:1000700095059105910593059D059D05C600BD005B
:10008000B4001008407E01013E01013E01013E0125
:10009000017E404018000720080808F800000020F2
:1000A00060A03FA06020020202FF020202101010B6
:1000B0001F0000000708FFDBBDB5B5CBFF0708FF39
:1000C000BB9DADADB3FF0708FFFFF7FB81FFFF103E
:1000D000100508F878385888091003081C3E7F0D71
:1000E000080710FF818181F1E1C1FF404040474393
:1000F000410D080110FFFF11080310F1E1C1474352
:10010000410E0008202121122060E0E0E0FEFE0404
:1001100002010001037F7F21C2C4C4C04094840057
:1001200007030102040E080210FEFE7F7F0000009C
:1001300000110005202060E0E0E00201000103C2A0
:10014000C4C4C0400703010204010410090A0C4E94
:100150006F742063616C696272617465642100B9B7
:1001600003870358032E030703E402C302A4028893
:10017000020000140029003E00530069008000972F
:1001800000AE00C600DF00F80012012D0149016534
:10019000018201A001BE01DE01FF012102440268CB
:1001A000028E02B502DE020903350364039403C81C
:1001B00003FE0337047304B404F90443059305EA0A
:1001C000054906B3062907AE074808FF08DE0900FF
:1001D0000000000000000000000000000000001E01
:1001E0002121211200807F0000007E4A4A4A34000B
:1001F0000000000000FC4020100804020100000084
:10020000010101010101010101010101017F0488D6
:10021000D0E0F0F800000000000000000000000046
:10022000000000000000FC94948400000102FC0027
:1002300000000000000000000000001E212121122B
:10024000E0C0804020100F000000C02020204000AF
:100250000000FC00009E9E04030303030200000054
:10026000202023242525232020203F00007B7B21E4
:1002700042840480C0000000000000000000000074
:10028000000000FC94948400040607070708F000AF
:10029000000000000000000000000000803F21215D
:1002A000120C00000000FF000000F0084848C800E1
:1002B00000FE0000E7818181C1E1F18181810100BF
:1002C0002020202121212020203F0000F340404019
:1002D00041434740407FC000000000000000000094
:1002E0000000000000489494946400000000FF00A7
:1002F0000000000000000000000000000000003FBF
:100300002121120C0000FF000000F0084848D00036
:100310000000000000FEFE040404040404040700BE
:1003200008080809090908087F3E1C08087F7F2083
:10033000202020202020E00000000000000000001D
:100340000000000000000048949494640000FF0046
:1003500000000000000000000000FF003C0A090A45
:100360003C002231292926000082868E9EBEFEFE98
:10037000BEDEEFF6FAFEFEFAF2E2C28200000008EC
:10038000080804027984A4A46800FF0000000000AB
:10039000000000000000000000000000000000005D
:1003A0000000FF0000F0282428F0001008FC0000E6
:1003B000000000000000000000003C0A090A3C00A8
:1003C000FF0000000000000000000000000000002E
:1003D000000000040C1C3C7CFF7C3C1C0C04000056
:1003E000000000009EA1A9A99A804323130B0703D4
:1003F000FF030303030303000000000000000000EC
:100400000000788484844800FF00000000000000A1
:100410000000F00804E2110909090909090909099C
:100420001121C2040810E0000000010204040700CA
:1004300000000000804020108844231008040300BE
:1004400000000000000000000000FE0100FC0201AE
:10045000000000000000000000000000000000009C
:100460000000794949790000000000000000000800
:100470003E22223E08087F2214087F7F0814227F34
:10048000087F7F00007F7F00586404645800807CF0
:1004900020201C22222222223E3E22222222220828
:1004A000080808080838404030404030404030409C
:1004B00038007E1515150A00062979290600000066
:1004C00000000000607E0A353F002A1C361C2A000E
:1004D000E0514F41FF007F404040FF007F407F40A0
:1004E000FF00E0544C44FC0018247E2418007C409B
:1004F0004040FC007C407C40FC0014B6FFB6140079
:1005000004067F06040010307F30100008083E1CEF
:100510000800081C3E080800784040404000083EA3
:10052000083E0800303C3F3C3000030F3F0F030003
:1005300000000000000000005F0000000003000356
:100540000000147F147F1400242A7F2A1200231332
:10055000086462003649552250000005030000007F
:10056000001C224100000041221C000014083E082B
:10057000140008083E08080000A0600000080808F1
:10058000080800000060600000002010080402005D
:100590003E5149453E0000427F40000042615149C2
:1005A00046002141454B31001814127F10002745A9
:1005B000454539003C4A49493000017109050300AD
:1005C000364949493600064949291E000036360099
:1005D00000000056360000000814224100001414E8
:1005E00014141400004122140800020151090600ED
:1005F000324979413E007E1111117E007F494949FF
:1006000036003E41414122007F4141221C007F498A
:10061000494941007F09090901003E4149497A00E1
:100620007F0808087F0000417F4100002040413FD3
:1006300001007F08142241007F40404040007F02BB
:100640000C027F007F0408107F003E4141413E00C4
:100650007F09090906003E4151215E007F091929E1
:10066000460046494949310001017F0101003F40F0
:1006700040403F001F2040201F003F4038403F00C7
:1006800063140814630007087008070061514945A6
:100690004300007F4141000018247E2410000041E7
:1006A000417F0000040201020400808080808000FD
:1006B0000001020000002054545438007F48444494
:1006C0003800384444442000384444487F003854BB
:1006D00054541800087E09010200085454543C0088
:1006E0007F080404780000447D4000002040443D21
:1006F00000007F102844000000417F4000007C047F
:10070000180478007C080404780038444444380015
:100710007C1414140800081414147C007C080404CD
:100720000800485454542000043F444020003C40FA
:1007300040207C001C2040201C003C4030403C00FD
:100740004428102844000C5050503C004464544C41
:10075000440000083641000000003F000000004156
:100760003608000008082A1C08003C2623263C0006
:1007700011241FBECFEFD8E0DEBFCDBF11E0A0E057
:10078000B1E001C01D92AE3BB107E1F70E943D32DE
:100790000C94233A35CC5A98529A5D98559A80FF1A
:1007A00003C053985B9A02C05B98539AB6D5661FF4
:1007B00018D0661F16D0661F14D0661F12D0661F91
:1007C00010D0661F0ED0661F0CD0661F0AD0A5D5AC
:1007D0005A98529A55985D9A5A98529A5998519A9D
:1007E00008955A98529A18F45198599A02C05998F3
:1007F000519A52985A9A91C560933F01809304018F
:100800008093A501862F880F860F880F80930F0194
:10081000089580E24CD560E081E0EECF80E247D5DC
:1008200060E082E0E9CF80E242D560E083E0E4CF9F
:1008300080913F01809301018091A5018093030184
:1008400008956091010180910301D6CF682F80E067
:10085000A2CF8EEAFBDF85EAF9CF8DE028D58AE0CA
:1008600026C5FBDF1092A50160E080E0C5CFCF93E5
:10087000DF93C0E080E1EADF80E0E8DF8C2F806B6F
:10088000E5DFD4E860E081E086DFD150D9F7CF5FC3
:10089000C83081F7E6DFDF91CF9108955C985A98D0
:1008A00059985D98549A529A519A559A31D55598BB
:1008B0005D9A5B98539A84E132D554985C9A84E1AE
:1008C0002ED58EEAC3DF82EEC1DF82EABFDF80EA87
:1008D000BDDF80ECBBDF8FE2B9DF84E2B7DF81E808
:1008E000B5DF8DE393E00E94E5398F73AFDF80E4DD
:1008F000ADDF84EAABDF86EAA9DFB9DF8FEAA6DFE6
:1009000060E080E079CF0895582F28E030E090E84B
:1009100041E080E0642F652309F0892B440F969510
:100920002150310921153105A9F70895A0E0B0E063
:10093000ECE9F4E00C945039EC01C02ED12CC60146
:10094000860F911D813891050CF06BC0F12CE40EDF
:10095000F11C81E4E816F1040CF063C0142F169525
:100960001695169581E0E81AF10833E0F594E794BE
:100970003A95E1F7822F8270582E21FF0DC0F701C2
:10098000FF27E11BF109EC9DC001ED9D900DFC9D41
:10099000900D1124C80FD91F87E08E1510F497E031
:1009A000E92EF62EF2948FE0F8228F2D8061F82E3A
:1009B0006F70462E2170322E460181E0881A910810
:1009C000E11650F1812F806B41DF8F2D3FDF842DA9
:1009D0003DDFA12CB12C3E01680C791CA01698F4C7
:1009E000332021F0F301EA19FB0903C0FE01EA0DEF
:1009F000FB1D8491511088DF682F81E0CCDE8FEFE2
:100A0000A81AB80AEBCF552019F0CC19DD0902C09D
:100A1000CC0DDD1D1F5FD4CF809104018F70806BE2
:100A200015DFCDB7DEB7E1E10C946C39EF920F938F
:100A3000282F8F7030E6839FC001112481539E4F71
:100A4000322F307324FF02C028E001C028E4209335
:100A50001001303218F01092000108C020E22093FB
:100A60000001209110012D5E2093100140E2E42E40
:100A700008E120E0409100016091100157DF0F91E3
:100A8000EF900895EF920F93262FFC016491319619
:100A90004491FC0132960491FC013396E49050910C
:100AA0000001450F50911001650F04963FDF0F9133
:100AB000EF90089560E0E6CFEF920F93CF93C82FA9
:100AC00080913F018F5F80933F0140910401440F6B
:100AD000440F440F26E0C29FC001112458E0E52EC8
:100AE00006E020E060910F0181599B4F1FDF80914C
:100AF0000F018A5F80930F014C2F50E0FA0131976C
:100B0000EA30F105E0F4EC5CFF4F0C9486398EE39B
:100B100005C08CE7CCD38CE313C08CE7C8D38CE73B
:100B20000FC082E50DC08DE20BC085E709C08FE4E0
:100B3000BED388E6BCD38DE603C08CE401C08C2F05
:100B4000B6D3CF910F91EF9008958F5CB5CF80E22F
:100B5000B3CFA1E0B0E0EFEAF5E00C945F391816EE
:100B60002CF48983F4DF89818150F9CF2196E2E06A
:100B70000C947B3990913F0185E1891BEACFA1E07C
:100B8000B0E0E5ECF5E00C945F398983F3DF80E2B7
:100B90008ED39091A5019F5F9093A50169819830B4
:100BA00038F087E08093A50181E08093420102C084
:100BB000109242018091A5011FDE2196E2E00C9483
:100BC0007B39DDDF7FC44DDED5DF4BCE22DED2DFC9
:100BD00020CE8DE371CFCF93DF93EC0189918823F1
:100BE00011F06ADFFBCFDF91CF910895CF93DF93B0
:100BF000EC01FE018491982F9F7719F05DDF21961B
:100C0000F8CFDF91CF910895CF93DF93EC01CE0120
:100C10000E94E539982F9F7719F04EDF2196F7CF84
:100C2000DF91CF910895EF920F93FC0104913196DB
:100C3000E49002967BDE0F91EF9008950F938FE979
:100C400091E0E2DF409189014D3F64F460917701CA
:100C5000709178018091790190917A0103E026E406
:100C6000E6D002C08FE328DF0F91089597FF09C0F7
:100C70008F939F938DE220DF9F918F919095819527
:100C80009F4F65E271E04AE050E00E94D139A3CF66
:100C9000EDDF01C0EBDF5BCFEF92FF920F931F936D
:100CA000182F062FF42E81E891E0AEDFEE24E091BC
:100CB0004001F09141018685E81611F4812F09C0A9
:100CC0008485E81611F4802F04C08585E81611F498
:100CD0008F2DF2DEE3948E2D833049F71F910F9113
:100CE000FF90EF900895EF92FF920F931F93182FAC
:100CF000062FF42E80E065DF87E891E085DFEE24A3
:100D00008E2D23DF66DFE0914001F0914101868561
:100D1000E81611F4812F09C08485E81611F4802F9C
:100D200004C08585E81611F48F2DC6DE10DFE3942C
:100D30008E2D833029F71F910F91FF90EF9008952A
:100D4000682F80E092E0662309F491E0623009F4B4
:100D500081E008950F93082FE6EAF1E0880F880FED
:100D6000E80FF11D60817181828193816436710584
:100D70008105910570F42091020127FD0AC0802FA2
:100D8000DFDF692F0E942D216EEF23E044E03ED18A
:100D900004C04FEF04E024E04AD0D9DE0F9108955B
:100DA000863058F4E9E9F1E0E80FF11DE80FF11D94
:100DB0008081918163E035D1CACE08951F93182FA9
:100DC00080917301882319F0C2DE80E075DE21DD99
:100DD00088E791E019DF812F82958F70E1DF812F05
:100DE0008F70DEDF1F910895CF93DF938091110103
:100DF00082958F70CDE8D1E0C80FD11D8881A5DE26
:100E000080E491E001DF8E81A0DE80E491E0FCDEF1
:100E1000CDE8D1E0809111018370C80FD11D8E8182
:100E200094DE80911101CADFDF91CF910895AEE089
:100E3000B0E0EDE1F7E00C944F39342E222E6B0137
:100E40007C01102F1F7080E389838A838B838C83BE
:100E50008D838E83F7FE0BC08DE22EDEF094E0943E
:100E6000D094C094C11CD11CE11CF11C04C005FF2E
:100E700002C08BE221DE133009F4B6C0143009F44D
:100E8000BAC0153051F0163081F01730B1F074E669
:100E9000872E912CA12CB12C17C060EA862E66E813
:100EA000962EAA24A394B12C0FC050E4852E52E4B0
:100EB000952E5FE0A52EB12C07C040E8842E46E9B0
:100EC000942E48E9A42EB12C3AE0432E512C612CEB
:100ED000712CC814D904EA04FB0470F0C701B601F0
:100EE0006B5F7F4F8F4F9F4FA30192010E94B338DA
:100EF00069017A013394EDCF81E1830D9BEA899FEB
:100F0000812C1124869486E08319899F912C1124C9
:100F10009694992D990F990D982E991A5E0187E054
:100F2000A80EB11C2AE030E0A501C701B6010E945D
:100F3000AE39F50101900020E9F7CF0101977C015E
:100F4000EA18FB08AE2C6701DD24892D90E0049699
:100F50008C159D051CF4839493E0990E882D90E0E8
:100F60008B5C9F4F0E94E539B82E04FF04C0A11688
:100F700010F41E1901C010E0AE2CA918A10E1A140D
:100F800024F08EE299DD192D1E19911002C028EF70
:100F9000A22E912C012F10E0C00ED11EEA2CFF24AE
:100FA000E7FCF094E92DF0E0EC15FD05A4F436968D
:100FB000E01BF10B81E090E08C0F9D1FE80FF91F03
:100FC00080817ADD9394892D90E08E159F0551F7ED
:100FD0008EE272DDE7CFBB2011F08B2D6DDD22207C
:100FE00089F0822D69DD0EC098EE892E93E0992E4E
:100FF000A12CB12C69CF80E1882E87E2982EA12CFC
:10100000B12C62CF2E96E2E10C946B390F93362F00
:10101000BC0180E090E0022F242F432F08DF0F91C6
:1010200008950F93062FBC0180E090E026E54DEF78
:10103000FEDE0F9108950F93042F28E440E0F7DEC1
:101040008AE73ADD0F910895E82FF0E0EE0FFF1FD9
:10105000E458FF4F8591949120910001420F209117
:101060001001620F20E0DFCDCF93DF93C82FD62F82
:10107000E0914001F091410148E16EE18685E4DFB5
:10108000E0914001F09141014D2F6C2F8485DCDF10
:10109000E0914001F091410140E06EE18585D4DFAF
:1010A000DF91CF9108951F93CF93DF93E0DB80E32F
:1010B000BDDC62E084E990E0E5DC80E2B7DC8FEC47
:1010C00090E0F8DC60E085E097DB84E991E09CDD6E
:1010D0006AE085E091DB8CE891E096DD88E99AE3AF
:1010E000B4D1C5DB83E1A2DC83E0A0DC88ED90E035
:1010F000E1DC61E082E080DB8EE4DEDC8DE2DCDCE2
:101100008EEA91E081DD6BE082E076DB80E5D4DC85
:101110008DE2D2DC8EEA91E077DD88E99AE395D121
:10112000A6DB81E383DC81E281DC81E391E0C2DC48
:1011300060E085E061DB8EE4BFDC8DE2BDDC85E450
:10114000BBDC88EA91E060DD6AE086E055DB80E5A3
:10115000B3DC8DE2B1DC85E4AFDC88EA91E054DDFC
:1011600088E99AE372D183DB81E160DC85E291E07A
:10117000A1DC81E05BDC81E091E09CDC60E081E06F
:101180003BDB8EE499DC8DE297DC84E495DC88EA35
:1011900091E03ADD6AE082E02FDB80E58DDC8DE2D4
:1011A0008BDC84E489DC88EA91E02EDD88E99AE32F
:1011B0004CD15DDB82E33ADC82E238DC87EF90E001
:1011C00079DC60E085E018DB8EE476DC8DE274DCAF
:1011D00085E472DC83EB91E017DD6AE086E00CDBEE
:1011E00080E56ADC8DE268DC85E466DC83EB91E017
:1011F0000BDD88E99AE329D13ADB82E117DC81EF44
:1012000090E058DC82E012DC8FED90E053DC61E08E
:1012100081E0F2DA8EE450DC8DE24EDC84E44CDCDA
:1012200083EB91E0F1DC6BE082E0E6DA80E544DC20
:101230008DE242DC84E440DC83EB91E0E5DC88E98C
:101240009AE303D114DB0DDB81E291E0DDDCE1DA2E
:101250008CE191E0D9DCE2DA8AE691E0D5DCE3DAF0
:1012600080E491E0D1DC73DC8CE391E0CDDCC0E084
:1012700015E18C2F612F0E948038D82F911109C061
:10128000811104C088E99AE3E0D0F1DA60E08D2FA3
:10129000B3DA80E28C0F10DCCF5FCF3551F788E9ED
:1012A0009AE3D3D0E4DADF91CF911F9108958F9321
:1012B0002F932AE080953B9A089410F4439802C03B
:1012C000439A000020D027D086952A95B1F72F9118
:1012D0008F91089503D002D001D000D000D003D068
:1012E00002D001D000D000D003D002D001D000D075
:1012F00000D0A89503D002D001D000D000D003D0F8
:1013000002D001D000D000D003D002D001D000D054
:1013100000D003D002D001D000D00000089590E0AA
:10132000893C28F0885C48EC849FC0011124009718
:1013300009F4089520918100277019F0DADF0197F0
:10134000F6CF8130910519F002973EE303C037E1F3
:1013500080E090E02091B200230F2093B30042E0A0
:101360004093700027E023BF889526E023BF1092AA
:101370007000A895DCCF8F9384E0D1DF07C08F93F6
:1013800082E0CDDF03C08F9381E0C9DF8F911F938F
:10139000182F106410937C00E12FE07880913001C9
:1013A000E81759F0E0933001AEDF8EE980937A00C0
:1013B00083E083BF889582E083BF20E030E0A9010D
:1013C000E0E01FC08EE980937A0083E083BF8895B8
:1013D00082E083BF6091780070917900260F371FFB
:1013E000411D511DE43061F480913201803041F0A3
:1013F00084E02030380720F417FD02C01068CACFFF
:10140000EF5F80912F01E817E8F26091330170914E
:10141000340117FF04C0609131017091320180E006
:1014200090E00E9471382FEF33E040E050E00E94DE
:10143000B338B901CA0120912F0130E040E050E0FB
:101440000E94B338C9011F910895EF92FF920F9344
:101450001F93CF93DF93F82EE92EC5E64F9B05C06F
:10146000CF2DDE2D05E510E019C081E058DFC15019
:10147000A9F7F6CF82E053DF000F4F9B0F5F0F738A
:101480000F3379F4111103C0CF2DDE2D14E01F5F4F
:10149000163990F4A8951C161D0644F0D7FFEACF24
:1014A0000BC00111F7CF1123A9F306C02A9720978B
:1014B000A9F7CFEFDFEFF2CF812FCDB7DEB7E6E0B0
:1014C0000C947739CF93B4D9C82F809142018823E7
:1014D000D1F0813051F4C73041F464E187E08CD918
:1014E0008BE2EADA64E187E087D980E49FE1ADDF4F
:1014F000C73041F480914201813021F460E087E0FF
:101500007BD938DB9ED9CF91089586E693E00E947F
:10151000E539382F87E693E00E94E53920913701BD
:10152000230F30913801381F20931A0130931B018B
:1015300083E0283E380720F0C901885E934002C04E
:1015400080E090E062E370E00E948C38683008F040
:1015500067E0EFE5F1E0E60FF11DE60FF11D4591C3
:1015600055912591359162E3681B421B530B649F93
:10157000C001659F900D1124499662E370E00E94BE
:101580008C38620F731F709376016093750188E643
:1015900093E00E94E539992787FD90956091370186
:1015A00070913801860F971F90933201809331011B
:1015B00090937201809371010895CF93DF9324E19A
:1015C00030E0B9010E948C38DC01E1E7F1E0E60F80
:1015D000F71FE60FF71FC591D591459155914C1B0B
:1015E0004A9FC0011124B9010E948C386C0F7D1FE5
:1015F000CB01DF91CF9108951895189510921E0197
:1016000010921C0110926C011092520110921D0157
:1016100010923E01109273011092570110925801DE
:10162000109259011092870182E0809388011092F4
:101630000201109286011092850110927B01109296
:101640007C0110927D0110927E0181EF80938A01CE
:101650000895A1E0B0E0EFE2FBE00C945D3998E082
:1016600097B998B9E82FF0E0E75BFE4F949195B9F0
:10167000262F281BE20FF11D27FDFA95E491E92B97
:10168000E4B9698384DE8C016981862F80DE209134
:1016900033013091340136952795A9014350510902
:1016A000B801625E7F4F4617570778F4255E3F4FBB
:1016B0000217130750F4BC01625E7F4F46175707AD
:1016C00020F441E08217930708F040E014B8842F1B
:1016D0002196E4E00C947939CF9361E080E0B9DFA2
:1016E000C82F62E080E0B5DFC80F62E081E0B1DFC3
:1016F0008C0FCF910895A3E1B0E0E1E8FBE00C94FA
:101700004F39B82E10921E01807FA9F4E5DF833097
:1017100009F0BDC3ACD881E792E076DA7AD88FE3DE
:10172000CBD980ED97E091DE8B30C0F4A0D88EE06D
:1017300091E06ADAACC306E910E099D886ED91E051
:1017400063DACADF833021F41F5F143010F006C063
:1017500010E088E2E4DD015081F763C05AD80E94AE
:101760002B1C8AEC90E050DA60E080E493E00E9469
:10177000F23960E081E493E00E94F23960E08FE3A7
:1017800093E00E94F23960E082E00E942D216C011A
:101790009A83898361E082E00E942D217C019C83F1
:1017A0008B8360E081E00E942D218C019E838D83DC
:1017B00023E040E26EEFC60129DC23E040E26EEF59
:1017C000C70124DC23E044E06EEFC8011FDC2AE5FA
:1017D000C216D10424F024E130E03A8329836981E0
:1017E00080E493E00E94F2398AE5E816F10424F0DF
:1017F00024E130E03C832B836B8181E493E00E9401
:10180000F2390A35110524F024E130E03E832D83BE
:101810006D818FE393E00E94F23982E08093420170
:1018200051DE9B2D9F709F87913009F04EC001E0E3
:1018300010E058EB252E52ED352E57E4452E512C55
:1018400062E0962E78E0A72EECE06E2EF4ECCF2E20
:10185000F6E3DF2EE12CF12C3AC0839423E0281527
:1018600060F1B4D9B0D984E527D9C8010ADA6FD9B3
:10187000E1E0BE1231C08DEF90E0C6D964E0809106
:10188000370190913801CDDB0E94090488EF90E088
:10189000BBD98091750190917601F3D98EEB80933D
:1018A0002F01A7B8A8B814B815B888EE93E0CDDD1D
:1018B000F4E0BF1691F28B3080F288EE93E0C5DD44
:1018C0000F5F1F4F0830110511F418E71CC1812C60
:1018D000B02EB0E27B2EC5CFF2E0BF1241C0209106
:1018E000330130913401A8E5BBE10E944C38A701D7
:1018F00096010E94D53881E085B985E084B980E001
:10190000288B398B4A8B5B8B36DD288939894A894C
:101910005B89821B930B9A83898381E184B980E080
:10192000288B398B4A8B5B8B26DD288939894A893C
:101930005B89821B930B9C838B8384E085B984E154
:1019400084B981E0288B398B4A8B5B8B14DD288925
:101950003989821B930B9E838D8382EE90E0B7C002
:1019600093E0B91229C095B8EAE0E4B980E003DD5C
:1019700020913301309134013695279538872F8394
:10198000821B930B9A838983F2E2F4B980E0F3DC43
:101990002F813885821B930B9C838B83A5B828E20B
:1019A00024B981E0E8DC2F813885821B930B9E836C
:1019B0008D8384ED90E08BC084E0B81207C081E68F
:1019C00092E022D989DE81115FC287C095E0B91209
:1019D00013C015B894B880E0CEDC9A838983A4B88C
:1019E00081E0C9DC9C838B8374B882E0C4DC9E8375
:1019F0008D8384EF90E06BC0E6E0BE1227C094B800
:101A000095B880E0B8DC2091330130913401821B1D
:101A1000930B9A838983A4B8A5B881E0ACDC2091AC
:101A2000330130913401821B930B9C838B8374B8F8
:101A300075B882E0A0DC2091330130913401821B23
:101A4000930B9E838D8380EF90E041C0F7E0BF123F
:101A500040C02091330130913401A8E5BBE10E94E0
:101A60004C38A20191010E94B33895B883E084B943
:101A700080E0288B398B4A8B5B8B7DDC2889398908
:101A80004A895B89821B930B9A838983A5B864B8C2
:101A900081E0288B398B4A8B5B8B6DDC28893989F7
:101AA0004A895B89821B930B9C838B8375B890E377
:101AB00094B982E0288B398B4A8B5B8B5CDC28895C
:101AC0003989821B930B9E838D838EEC90E09CD88A
:101AD00004C0E1E0BE1609F4E4CE0E940904898145
:101AE0009A81C4D834D88B819C81C0D830D88D815C
:101AF0009E81BCD8D6CE6AD881E692E085D884E6AD
:101B00000EDC115019F0E8DD8111F5CF0E94370489
:101B100083EC90E079D823E044E06FEF80913501C9
:101B20009091360173DA0E9409048CEB90E06CD836
:101B300023E044E06FEF80913C0190913D0166DA33
:101B400082E080934201BEDC10921E010E943704A5
:101B500088EB90E059D860E082E00E94D118809034
:101B60007F0190908001A0908101B09082019C86BD
:101B70008B8661E082E00E94D118C0907F01D090F6
:101B80008001E0908101F0908201DE86CD8660E0E8
:101B900081E00E94D11800917F01109180011E8385
:101BA0000D8362E080E00E94D11880917F019091C6
:101BB00080019C838B8362E081E00E94D118809138
:101BC0007F01909180019A87898761E080E00E947F
:101BD000D11880917F01909180019A838983EF854C
:101BE000E13021F020913B01223021F402969887C8
:101BF0008F8304C098878F8310923B01C4014AD819
:101C0000C60148D8B801882777FD8095982F03E052
:101C100026E444EF0CD96E01FFE0CF0ED11CFE018B
:101C20003196819191910A97853B9105F0F4EC15DD
:101C3000FD05B9F7AFE5EA2EA3E0FA2E8E010F5F9E
:101C40001F4FF80160810E5F1F4F6E5EC7010E943B
:101C5000F239FFEFEF1AFF0A0C151D0591F70E94EC
:101C6000090484EC91E00E94040682E08093420122
:101C700029DC0E94FF2E2F85213029F080913B0125
:101C8000823009F0E9C0E0E4BE2E10E0FAE0CF2E89
:101C9000D12CE12CF12CB2DC0E94370480E00E94B0
:101CA000A5058AE691E00E94040682E00E94A5054F
:101CB0008DE290E00E94040610921E0160E082E036
:101CC0000E94D1180091890160917701709178018B
:101CD0008091790190917A01073F44F4A701960120
:101CE0000E94B3380F5FB901CA01F6CF0093890192
:101CF00060937701709378018093790190937A01D2
:101D0000073F09F093C0DC01CB0180569109A1097E
:101D1000B10980399545A105B10508F087C06091EA
:101D20008B0170918C01CB018B569F4F8B32914070
:101D300008F07CC01F5F153008F479C086E693E098
:101D40000E94003A0E94370486E290E00E94040656
:101D500080918B0190918C010E943606D6DB88E041
:101D600088B989E087B980E284B982E010DB853DDB
:101D70009340DCF714B8109232011092310182E0E6
:101D800006DB8C0180917101909172019093320178
:101D90008093310182E0FBDA7C01EE0CFF1C109293
:101DA00032011092310182E0F2DAC0907101D090DC
:101DB0007201D0923201C0923101080F191F0E1921
:101DC0001F090E9409048FE190E00E94040688E642
:101DD00093E00E94E53973E0B72EB80E9601D80162
:101DE0000E945B389701442737FD4095542F0E948D
:101DF000D538B20E6B2D88E693E00E94F2398B2D18
:101E0000992787FD90950E9436067FDB82E08093BC
:101E1000420158DB10923B018FE593E00E94E539C7
:101E2000682F82E693E00E94F23916C010E00E940B
:101E30000904609177017091780180917901909106
:101E40007A0104E026E4409189010E94170788E2A4
:101E500066DABA9409F01FCF89E180932F010E94BE
:101E6000FB310E9437048EE091E00E9404060E943C
:101E7000090488E592E00E94040610921E0182E0A7
:101E8000809342011FDB03C052E0852E26CE63966D
:101E9000E2E10C946B3980913B0181110DC08FE51B
:101EA00093E00E94E53961E0680F82E693E00E94CA
:101EB000F23981E080933B010895CF92DF92FF9247
:101EC0000F931F93CF93DF931F92CDB7DEB7E82F09
:101ED000F0E0E45BFE4FE491E8B9E860E7B915B8DB
:101EE000E62FF0E0E75BFE4FE491E4B908E813E188
:101EF000FE2EFF0C862F69833EDA6C01F4B86981EF
:101F00008017910710F48C01F5CF0097E9F00E943B
:101F100013048AE491E00E940406D60120EA36E820
:101F200041E050E00E94613828E937EB40E050E0A2
:101F30000E94B338DA01C90122E041E467EF66D8B4
:101F400088E087B988B914B80F90DF91CF911F91BD
:101F50000F91FF90DF90CF9008950F931F93CF9331
:101F6000DF9385E014DA85E00EDA8C01EC01CC0F0A
:101F7000DD1FCC0FDD1FE29610923901C43883E0DB
:101F8000D80750F488EB91E00E9404060E94BA053D
:101F900081E08093390125C087EC91E00E9404061E
:101FA00062E0CE013ED80E94A705023A83E01807FE
:101FB00090F40938134060F48CEC92E00E9404061F
:101FC0000E94BA058DECABD95E988AECA8D909C0FD
:101FD00083ED92E002C084EC91E00E9404060E942E
:101FE000BA05DF91CF911F910F910895A7E1B0E05D
:101FF000ECEFFFE00C944F39982E862E4983A8957C
:10200000E62FF0E0E75BFE4F24912E873396349164
:10201000398BE42FF0E0E75BFE4F6490162D110F33
:10202000E82FF0E0E75BFE4F7490339644914A87C7
:1020300048604B873860432E65B8522E562854B8F6
:1020400047B95A8558B9862F9ED999878887812F95
:10205000862985B96E85612B6C8364B9882D93D9E7
:102060005C017E8574B9882D8ED91C0114B841D9C4
:1020700015B854B8882D87D9A885B9858A179B07C4
:1020800030F5805E9E4FA817B90708F4D8C447B84A
:1020900088E088B975B8872D862984B9E091330125
:1020A000F0913401F987E887892D6DD92885398524
:1020B000281B390B3987288774B8A0903301B0905A
:1020C0003401892D60D9A81AB90A150108C02885DC
:1020D0003985205E3E4F8217930708F4B0C42091E3
:1020E000520180916C0190E0820F911D02974CF09B
:1020F000213009F0A4C490914F0180916901981397
:102100009EC4488559854437510508F4A5C0CA01C5
:10211000880F991F44962816390608F09DC05B85E4
:1021200057B96A8568B97C8174B9882D28D97C0132
:1021300089812DD96C0115B9882D21D99701295A8A
:102140003D4F172928173907D0F588E088B947B8D7
:1021500014B915B9898113D988349F4028F085E0D6
:1021600080931E0182E204C085E080931E0184E218
:1021700080931D01F0924801E0924701CE14DF04E4
:1021800040F4C7018C199D0990934E0180934D0135
:1021900004C010924E0110924D019701A0E1B7E2E8
:1021A0000E944C38209118013091190140E050E014
:1021B0000E94B33830934A012093490137C488E024
:1021C00088B947B814B915B9892DD9D88C01898136
:1021D000DED87C0175B8892DD2D8895A9D4F8017D9
:1021E000910708F02CC4BA85B8B9EB85E7B98981A5
:1021F000C6D8813D934028F485E080931E0182E398
:1022000004C085E080931E0184E380931D010E15B8
:102210001F0538F4E01AF10AF0926801E0926701B4
:1022200004C010926801109267012091330130912F
:102230003401201B310BA0E1B7E20E944C38209101
:102240001F013091200140E050E00E94B3383093EC
:10225000640120936301BFC188E088B947B875B8AD
:10226000072D062904B9892D8ED89D878C87E0908B
:102270003301F090340189818AD89F838E830A9735
:1022800068F514B881E04BD8812F872984B9892D4E
:102290007AD89D878C872091330130913401281B97
:1022A000390B3B832A83898172D89F838E838091E7
:1022B0001F01909120019C0140E050E060E871EA2C
:1022C00083E09CE10E94B338AA81BB810E946138FF
:1022D000AE81BF819D0140E050E015C0F7012C8523
:1022E0003D85E21BF30BFB83EA839F014E815F81F7
:1022F000241B350BA4E6B0E00E944C386A01E12CA7
:10230000F12CA70196010E94B33869017A0114B833
:1023100015B85A8558B96B8567B981E000D879EB53
:10232000A71677E0B70608F08AC354B8882D2BD8D3
:102330008F359D4008F455C114B881E00E948F0983
:1023400054B881E00E948F09BC81B4B9882D1BD894
:102350005C0189811CD8988B8F87892D18D89F8B19
:102360008E8BEF85F889E13DF74008F4C1C015B9BF
:10237000882D05D88115944078F08AE080931E015D
:102380008E899F894F855889841B950B9093620194
:102390008093610121E016C484E080931E018DE0EA
:1023A00080931D0185012A143B0410F402191309BE
:1023B0004090180150901901612C712C60E871EA6D
:1023C00083E09CE1A30192010E94B338D8010E94EE
:1023D0006138AF85B8898D0120E030E0A90198010E
:1023E0000E94B33880916C01882369F080915D016F
:1023F00090915E01A0915F01B091600182179307F7
:10240000A407B50708F520935D0130935E01409362
:102410005F01509360019501A0E1B7E20E944C3842
:10242000A30192010E94B3383093640120936301A9
:102430008E899F89EF85F8898E1B9F0B909362018F
:102440008093610121E001C020E080915D019091C5
:102450005E01A0915F01B09160018C159D05AE05F4
:10246000BF0538F5C0925D01D0925E01E0925F0138
:10247000F09260018C859D852E813F81821B930B9C
:1024800090936201809361012A813B81A0E1B7E2D0
:102490000E944C3820911F013091200140E050E013
:1024A0000E94B338205F384D30936401209363015C
:1024B00003C0222309F486C39101A0E1B7E20E9480
:1024C0004C38A30192010E94B338309366012093E7
:1024D000650128853985A0E1B7E20E944C38A30147
:1024E00092010E94B338309368012093670152CF64
:1024F00031E62316310408F074C041EDA41647E01C
:10250000B40608F46EC085E080931E0182E18093DA
:102510001D01C50186509F4F6E897F8986179707D9
:1025200020F483E180931D011CC08E899F89A81629
:10253000B90698F4A0911801B09119019C012A19CB
:102540003B090E944C38950140E050E00E94B338AE
:10255000309362012093610104C0109262011092D5
:102560006101098907708981806480937C001BE088
:10257000CC24C394D12CEE24EA94A3E0FA2EA8959F
:1025800061E0862D2BD59C8194B986B18023E9F337
:10259000AE85A4B980917A00806480937A0080919E
:1025A0007A0086FDFCCF8091780090917900F70148
:1025B000E81BF90BCE0EDF1E115009F7C601880F7C
:1025C000991F880F991F69E070E00E948C38709302
:1025D00068016093670180916C018F5F80936C014B
:1025E000D9CE54B865B8882D0E94C3099B838A83CD
:1025F00089810E94C7099F838E8340913301509146
:102600003401481B590B4A30510558F514B881E084
:102610000E948F09FC81F4B915B9882D0E94C30965
:102620009B838A8389810E94C7099F838E838091BF
:102630001801909119019C0140E050E060E871EAB6
:1026400083E09CE10E94B338AA81BB810E9461387B
:1026500020913301309134014E815F81241B350B71
:1026600009C02A813B81241B350BA4E6B0E00E94FF
:102670004C389A0140E050E00E94B33869017A0179
:1026800047B888E088B904B905B9892D0E94C30903
:102690005C0189810E94C7099D838C83882D0E94DB
:1026A000C7099C0150E3A51651E1B50608F0C4C165
:1026B00075B8892D2C8B3D8B0E94C309AC0174B871
:1026C000892D4A8B5B8B0E94C3099D878C8715B827
:1026D00081E00E948F0975B8892D0E94C3092C8959
:1026E0003D894A895B896C857D856034764008F038
:1026F00057C08133914108F453C0C5018A569F4F9A
:102700004817590708F04CC086E080931E0180915D
:1027100052018F5F809352018C819D81821B930BAC
:102720009093480180934701A21AB30AB0924E01D8
:10273000A0924D0114B815B8E989E8B981E00E946A
:102740008F0974B8892D0E94C309853F910508F04F
:1027500048C204B989810E94C309813D934008F4AD
:1027600040C2892D0E94C7098D3D924008F439C2AC
:1027700074B8892D0E94C3098D3D924008F431C27E
:1027800075B881E00E948F0915B8892D0E94C30990
:10279000853F910508F025C287E080931E0121C284
:1027A00004B905B981E00E948F09512E572854B809
:1027B00055B8892D0E94C3095C01409133015091A5
:1027C0003401481B590B588B4F8789810E94C709D8
:1027D0009D878C876091330170913401681B790B60
:1027E0007D836C83882D0E94C7098C018C819D811B
:1027F0008E3F994008F4B1C084E080931E018CE0C4
:1028000080931D01EF85F8892E163F0620F45F01A5
:10281000A218B30802C0AF84B88840901F0150903E
:102820002001612C712C60E871EA83E09CE1A30136
:1028300092010E94B338D5010E946138AC81BD81FC
:102840009D0140E050E00E94B338809152018823FE
:1028500069F08091430190914401A0914501B091AC
:10286000460182179307A407B50700F5209343019B
:102870003093440140934501509346018C859D85DA
:10288000801B910B90934801809347012F853889D5
:10289000A0E1B7E20E944C38A30192010E94B33834
:1028A00030934A012093490121E001C020E080914A
:1028B000430190914401A0914501B09146018C15CE
:1028C0009D05AE05BF0530F5C0924301D09244018D
:1028D000E0924501F09246018E819F81EA81FB8161
:1028E0008E1B9F0B90934801809347019F01A0E1AD
:1028F000B7E20E944C38209118013091190140E054
:1029000050E00E94B338205F384D30934A01209345
:10291000490103C0222309F465C19101A0E1B7E296
:102920000E944C38209118013091190140E050E08C
:102930000E94B33830934C0120934B012885398590
:10294000A0E1B7E20E944C38A30192010E94B33883
:1029500030934E0120934D0144C1F1E62F1631040E
:1029600008F06AC02F85388929343D4008F464C0D6
:1029700085E080931E0182E080931D01C80186508E
:102980009F4F8A159B0520F483E080931D011CC096
:102990000A151B05A8F4A0911F01B0912001950113
:1029A000201B310B0E944C38AF85B8899D0140E057
:1029B00050E00E94B338309348012093470104C08F
:1029C00010924801109247010A850770898180643E
:1029D00080937C001BE0EE24E394F12CA89560E04A
:1029E000862DFCD254B855B886B18023E9F774B867
:1029F00080917A00806480937A0080917A0086FDCD
:102A0000FCCF8091780090917900E80EF91E11506A
:102A100029F7C701880F991F880F991F69E070E097
:102A20000E948C3870934E0160934D018091520149
:102A30008F5F80935201D5C088E087B988B914B8F8
:102A400015B888E087B9B7EC2B16B1E03B0608F45F
:102A5000ADC088B918EC0B85042907B981E00E9444
:102A60008F0947B8892D0E94C709429710F011506D
:102A7000A1F75E84550C372C330C34B835B861E0BF
:102A8000862DACD2892D0E94C3099B838A8354B8BA
:102A900015B8EB85E7B9FA85F8B960E0862D9ED2C6
:102AA000E0903301F0903401882D0E94C3098C011D
:102AB0002E8524B9892D0E94C3096C01882D0E949E
:102AC000C709C81AD90A88E088B947B874B875B870
:102AD00061E0862D83D2892D0E94C3095C01882D77
:102AE0000E94C709A81AB90ACA14DB0438F434B81A
:102AF00035B8892D0E94C309650119C0A701401B83
:102B0000510B5B834A8354B815B85B8557B96A8506
:102B100068B960E0862D62D20091330110913401D2
:102B2000882D0E94C309D801A81BB90BCD019601BD
:102B30002759310929383141C8F58C159D05B0F563
:102B40008A819B8153E0969587955A95E1F7893C58
:102B5000910510F088EC90E02A813B81820F931F51
:102B60008C159D0518F5C60144E0969587954A9504
:102B7000E1F782179307D0F480911E01833018F497
:102B800083E080931E0180911C01E82FF0E0DF01BB
:102B9000A357BE4F9C9216968C92EE0FFF1FE756DE
:102BA000FE4FD182C0828F5F80931C01682D892DDA
:102BB00028D088E087B988B914B815B86796E2E1DB
:102BC0000C946B3980916C018F5F80936C01222390
:102BD00081F339813093690180926A0190926B018F
:102BE000E8CF21E0809152018F5F80935201222330
:102BF00001F3498140934F0190925001809251011D
:102C0000D8CFA0E0B0E0E7E0F6E10C945139982E7F
:102C1000862EA895E62FF0E0E75BFE4F54903396A2
:102C20002491E82FF0E0E75BFE4FE4903396F490B8
:102C300030916C018091520190E0830F911D892B9E
:102C400009F0C7C1A8958091220190912301880FB6
:102C5000991F880F991F90933401809333018091BD
:102C6000710190917201880F991F880F991F90939D
:102C70003201809331018EEB80932F0188E088B977
:102C8000286027B9E4B8E5B858E1D52EC0E0D0E017
:102C9000882D0E94C309782E692E892D0E94C709AC
:102CA0008C018C1B9D0B97FF03C091958195910919
:102CB00003972CF0A895DA94E1F1E801E9CFEE0C46
:102CC00015B8E4B8892D0E94C3098135910588F5AE
:102CD000E5B8892D0E94C309EC018F2D886087B962
:102CE000F8B815B854B888E1482EC12CD12C892DDC
:102CF0000E94C309B82EA92E882D0E94C7097C0105
:102D00009C012C193D0937FF03C0319521953109EC
:102D10002330310514F5550C54B8882D0E94C30991
:102D20006C01003C94E41907E8F4C53881E0D80749
:102D3000E8F08091220190912301909334018093D7
:102D400033018091710190917201909332018093CF
:102D5000310189E180932F013CC1A8954A9449F340
:102D60006701C5CFC03B9DE4D90718F784EAE81690
:102D700082E0F80608F063C098E9C916D104C8F2E9
:102D800000913301109134019E01A8E9B7EB0E9434
:102D90004C3898012C1B3D0B40E050E00E94B338AA
:102DA00029013A0198012C193D09A8E9B7EB0E94C5
:102DB0004C38860120E030E0A90198010E94B33828
:102DC000C837DF4070F4C301B201B2E0660F771F6D
:102DD000881F991FBA95D1F7620F731F841F951F23
:102DE00012C098E7C9169FE0D906A0F4CA01B9013C
:102DF000A2E0660F771F881F991FAA95D1F7640D6F
:102E0000751D861D971D25E030E040E050E00E94D2
:102E1000B33808C0240D351D461D571D56954795DE
:102E200037952795A4E6B0E00E9461386B017C01DC
:102E30008CEAC80E8DE0D81EE11CF11C73C0272D52
:102E4000362D0217130708F49801CB2DDA2DCE1575
:102E5000DF0508F4E70159012017310708F458018C
:102E6000A0911F01B0912001C501821B930B9C0111
:102E70000E944C3820913301309134012A193B09CA
:102E800040E050E00E94B33829013A018E01EC166F
:102E9000FD0608F48701A0911801B09119019E0167
:102EA000201B310B0E944C386801E12CF12CA7014A
:102EB00096010E94B33898E7A9169FE0B90670F40E
:102EC000C301B201E2E0660F771F881F991FEA95E0
:102ED000D1F7620F731F841F951F11C008378FE051
:102EE0001807B0F4CA01B90152E0660F771F881FB6
:102EF000991F5A95D1F7640D751D861D971D25E004
:102F000030E040E050E00E94B33869017A010AC025
:102F100069017A01C40CD51CE61CF71CF694E794F1
:102F2000D794C79410911E01143008F002CF9A94E0
:102F3000980C892D90E0EC01C95ADE4F2881880F4A
:102F4000991F880F991FFC01EA55FE4F2223D1F1EA
:102F50004080518062807380A70196012419350951
:102F60004609570957FF07C0509540953095219560
:102F70003F4F4F4F5F4FAAE0B0E00E946138A3017E
:102F800092012C593F4F4F4F5F4F2C0D3D1D4E1D51
:102F90005F1D0E94B338232B242B252B09F0C9CEAB
:102FA000133019F081E080931E0182E088838091C4
:102FB0007301E82FF0E0E65AFE4F90828F5F809316
:102FC0007301B7CEC082D182E282F38281E088832E
:102FD000B0CECDB7DEB7E0E10C946D39CF93C82FFA
:102FE000C09595B160FF02C0982B01C09C2395B994
:102FF00094B1982B94B982E00E948F0984B18C23FC
:1030000084B985B18C2385B9CF910895A0E0B0E053
:10301000ECE0F8E10C9457398AE0D82E98E0C92EFC
:103020002FE3A22E39E0B32EC7B8C8B815B8A4B89C
:1030300080E00E94C3098C0181E00E94C709EC0175
:1030400082E00E94C70920911E01293081F428E006
:1030500027B914B81093060100930501D093080115
:10306000C093070190930A018093090155C0043071
:10307000110540F4C430D10550F48430910538F383
:1030800029E009C0083E134010F028E001C029E003
:10309000C83ED34008F42260883E934008F4246080
:1030A00027B9C0E0D0E0A89580E00E94BB097C0170
:1030B00081E00E94C7098C0182E00E94C70924E1D7
:1030C000E21625E0F20608F4389A043135E01307D9
:1030D00008F4399A843125E0920708F43A9A36E0E8
:1030E000E316F10428F40630110510F4069738F0C1
:1030F0002196C43F81E0D807B1F6B0921E0100E0EE
:1031000010E00C171D0729F00E947E090F5F1F4F6A
:10311000F8CFDA9409F088CFCDB7DEB7EAE00C94A7
:103120007339CF92DF92EF92FF92CF932091770184
:10313000309178014091790150917A01C0918901D3
:103140008AE0C82ED12CE12CF12C8C2FCF5F213AB4
:1031500096E8390791E04907510538F0CA01B901ED
:10316000A70196010E94B338F0CF80938901A09106
:103170003301B09134010E94613828E833E140E026
:1031800050E00E94B3382093770130937801409348
:10319000790150937A01CF91FF90EF90DF90CF901B
:1031A0000895A4E0B0E0E7EDF8E10C945539982ECD
:1031B000862E8FEF860F992D990F990D890F809389
:1031C0005401E92DF0E0E75BFE4F1491862F90E06B
:1031D000FC01E75BFE4FF490FC01E45BFE4F0491C1
:1031E00080911E01813009F4ABC280911C0123E95A
:1031F00031E069E971E0D9019A2F921B9817A0F488
:103200009D9198110EC0AD0147505109FA0190816E
:10321000991107C0FB01408151814C3D554008F494
:103220008FC26E5F7F4FE8CF0860109284011092CA
:10323000830181EF809389011092770110927801C8
:103240001092790110927A01E1DE88E088B907B91D
:10325000F4B8F5B8892D0E94C7097C01882D0E9419
:10326000C709E81AF90A14B81092560110925501CC
:10327000C12CD12C2091550130915601243F314071
:1032800050F515B914B90E94780914B815B80E9400
:103290007F09A895892D0E94C7096C01CE18DF0807
:1032A00020915501309156012E37310528F02BE43D
:1032B000C216D1040CF43FC28DE2C81681E0D806D4
:1032C00084F4809155019091560101969093560196
:1032D00080935501CFCFEDE2CE16E1E0DE060CF48F
:1032E0002AC22091550130915601232B21F0C601AD
:1032F00000E010E006C0F5E1CF16F5E0DF06BCF314
:1033000085C020915501309156012017310758F0A2
:103310000E947909892D0E94C7098E199F09A895D5
:103320000F5F1F4FEECF8601081B190B10161106F9
:1033300094F4093C11050CF0FEC128EE33E0D801ED
:103340000E945B389601442737FD4095542F0E9418
:10335000B338790102C0E12CF12CA0905501B09056
:1033600056012FEFA21AB20AC501A0E0B0E0809387
:103370007F0190938001A0938101B0938201C601E7
:10338000800F911F29D29C01D5010E944C38609377
:103390007F017093800180938101909382016093FB
:1033A0007701709378018093790190937A0187EF88
:1033B00080938901B6DE20917701309178014091A8
:1033C000790150917A0182E493E029833A834B8317
:1033D0005C830E94E539A8EEB3E0A81BB10987FD24
:1033E000B39529813A814B815C810E946B3824E638
:1033F00030E040E050E00E94B338209377013093F2
:1034000078014093790150937A0153C1FFDD15B8DB
:103410008FE087B988E088B9F12EFF0CF4B880E41A
:1034200080937B0084E580BF892D806480937C003D
:1034300086E180937A000E948209109256011092D0
:10344000550110928000109285001092840087E24E
:1034500086BB81E280936F0091E090937401F5B890
:1034600080911E0190938100853059F481E090E0B5
:10347000092C01C0880F0A94EAF780958F7087B9EC
:1034800001C007B9F89483B7817F83BF809174012D
:10349000882389F083B7816083BF7894889583B748
:1034A0008E7F83BFF894A895809155019091560125
:1034B0008034964059F7789410928100E09086000D
:1034C000F090870010926F0086E980937A0014B81C
:1034D00015B8892D0E94C709209137013091380114
:1034E000821B930B0C9690938C0180938B0180919F
:1034F0005501909156018032934008F01CC1809193
:103500005501909156019093820180938101F09230
:103510008001E0927F0184EF8093890180915501C1
:103520009091560182349105C8F060917F017091AD
:103530008001809181019091820124E630E040E099
:1035400050E00E94B33820937F0130938001409374
:1035500081015093820186EF80938901A0917501CA
:10356000B091760120917F013091800140918101DD
:10357000509182010E94613820E233E040E050E047
:103580000E94B33820937F013093800140938101E2
:103590005093820120937701309378014093790111
:1035A00050937A01BEDD80918901843F09F071C09A
:1035B000C0907701D0907801E0907901F0907A0185
:1035C00020EAC2162FE0D206E104F104C0F4A701FC
:1035D00096012C543F4F4F4F5F4F60EA7FE080E0F1
:1035E00090E00E94B3382C0D3D1D4E1D5F1D2093B1
:1035F0007701309378014093790150937A01C0901C
:103600007701D0907801E0907901F0907A01C114AF
:10361000D10481E0E806F10428F4D092B701C09209
:10362000B60106C081E090E09093B7018093B601A7
:103630008091540190E0815A9C4F0E94E539482FB7
:1036400050E060E070E04C155D056E057F0568F4A4
:10365000C41AD50AE60AF70AC0927701D092780117
:10366000E0927901F0927A0114C094E1C90ED11C64
:10367000E11CF11CC416D506E606F70610F40E94FC
:103680004B0F1092770110927801109279011092ED
:103690007A0114B98091770190917801A091790114
:1036A000B0917A014997A105B10508F444C0E12C15
:1036B000F12C80911C01882321F080911E0185301E
:1036C000D1F588E080931E012091890180918A01C3
:1036D0008217BCF028132FC04091770150917801D8
:1036E0006091790170917A0180917B0190917C01C8
:1036F000A0917D01B0917E0184179507A607B707B9
:10370000D0F48091770190917801A0917901B091E6
:103710007A0180937B0190937C01A0937D01B0930B
:103720007E0120938A01F0928601E09285018092C9
:1037300087019092880188E087B988B914B815B8D4
:103740002496ECE00C9471391F920F920FB60F92F1
:1037500011248F939F93B59904C0809174018111B6
:1037600009C0B59B10C080918600909187008A3F68
:10377000910548F4809155019091560101969093DE
:103780005601809355019F918F910F900FBE0F901E
:103790001F9018951F920F920FB60F9211248F93BE
:1037A0009F9310927401B09B10C0809186009091FD
:1037B00087008A3F910548F4809155019091560108
:1037C000019690935601809355019F918F910F9090
:1037D0000FBE0F901F9018950F9221E08C32920728
:1037E00010F48CE291E08C52914069E170E00E940B
:1037F0008C3899E16B3210F0982F6BE2981BE3EE56
:10380000F2E0E60FF11DE60FF11D9F93CF010E943C
:10381000E539482F3196CF010E94E539582F31966E
:10382000CF010E94E539282F3196CF010E94E5395A
:10383000382F6F91421B530B649FC001659F900D01
:1038400011240C9669E170E00E948C38620F731F9E
:10385000CB010F900895A0E0B0E0E1E3FCE10C940F
:10386000543988E893E19093230180932201909347
:103870003401809333018EEB80932F01C8E0C8B9E7
:1038800088E187B90E948709C7B984E00E94C3090B
:10389000AC018B5C9840833F9140A0F481E0809321
:1038A0003E012091330130913401AFEBB9E00E9429
:1038B0004C389A0140E050E00E94B3383093230125
:1038C0002093220180912201909123019093340151
:1038D000809333018EE00E94C7098EE00E94C309E5
:1038E00090933801809337010E94850A8FDB88E02E
:1038F000782E78B8D9E0D7B9C1E0C5B9C4B980E0AD
:103900000E94C3097C010AE007B914E015B914B993
:1039100081E00E94C309E80EF91E9CE0892E87B859
:1039200020E1922E95B894B882E00E94C309E80E77
:10393000F91E15B8D8B9D7B9C4B9C0913301D0911F
:10394000340180E00E94C3095C0108B907B914B9C9
:10395000009133011091340181E00E94C3096C0190
:1039600088B887B894B8809033019090340182E091
:103970000E94C309C00FD11FC80DD91DCA19DB0988
:10398000CC19DD09C81BD90B77B878B814B8809169
:103990003301909134014C01880C991C880E991EBA
:1039A0008E189F088C1A9D0AA12CB12C9701A0E9B2
:1039B000BAE10E944C38A50194010E94B338690114
:1039C0007A0130933D0120933C019E01A0E9BAE1C8
:1039D0000E944C38A50194010E94B33830933601FF
:1039E000209335012057354E3093200120931F013D
:1039F00080E7C81A85EED80AD0921901C092180142
:103A000089E180932F01CDB7DEB7EDE00C947039DA
:103A1000FF920F931F93CF93DF93C82FD62FF42ECF
:103A20000E94A50581E291E00E940406E1D16D2F7C
:103A30008C2F0E946B30C1E00091BA011091BB0144
:103A40002091BC013091BD01011511052105310501
:103A500009F0C0E08091020187FD02C0C11104C0DD
:103A60008DE191E00E9404068D2F0E94A505C111F1
:103A700006C00E94A70580915A010E94AA06FF2055
:103A800049F080913F01823128F490E08D599C4F9C
:103A90000E94040680E00E94E105C1111BC06091F4
:103AA000BA017091BB018091BC019091BD0103E00E
:103AB00028E447EF0E94170780E391E00E94040684
:103AC00089E793E00E94ED3923E046E464EF0E9429
:103AD00006081AC080915A010E94AA06809102012C
:103AE0008E3F94F48EE491E00E94040660910B01F5
:103AF00070910C0180910D0190910E0103E028E47A
:103B0000409102010E9417078091B2019091B30188
:103B1000A091B401B091B501892B8A2B8B2BF1F0C8
:103B200080E00E94E1056091B2017091B301809143
:103B3000B4019091B50104E028E440E00E94170729
:103B40008BE291E00E94040623E040E26FEF809157
:103B5000B8019091B9010E94060807C080E00E9458
:103B6000BF0580914201811102C00E94BA05CDB704
:103B7000DEB7E5E00C9478390F931F93CF93DF9372
:103B8000082F0E943104809187010E94A5058AE6D2
:103B900091E00E94040612D560918701809188010E
:103BA0005CD3909384018093830111E08A3F9F4FFF
:103BB00008F010E0C0918501D0918601112321F019
:103BC00082E291E00E940406809188010E94A5058E
:103BD000002359F090913F0182E1891B0E94A905C1
:103BE00082E890E00E94040602C00E94BA050E948A
:103BF000090460917B0170917C0180917D0190911D
:103C00007E0104E026E440918A010E9417071123F7
:103C100069F089E591E00E94040622E044E06EEF3D
:103C200080918301909184010E9406080E94BA0548
:103C30000E940E04CD2B69F082E591E00E940406FB
:103C400022E045E26FEF80918501909186010E940C
:103C500006080E94BA05DF91CF911F910F91089538
:103C60008F7021F40E9413040C94AD0F08958F30CF
:103C700021F490913901913011F08F5F089580E027
:103C80000895CF938DE890E00E94FA29C0E00E9449
:103C9000FE0A60E082E00E94011662E080E00E947D
:103CA00001160E94310480917301882329F041E0BC
:103CB00062E080E0ADDE12C08DE890E00E94040674
:103CC0008DE693E00E9404060E9409048FE30E949F
:103CD0005C0580E00E94BF050E94BA058C2FC0DF02
:103CE00088EE93E00E94250A811105C08C2FBFDF6A
:103CF000C82F8A3F60F20E943704CF9108950F9336
:103D00001F93CF93DF93C0E0D8E012EF02E10E944F
:103D1000FE0A60E082E045DAD0931E0180918901BD
:103D2000843FE1F4409177015091780160917901ED
:103D300070917A01443651056105710578F440E0CF
:103D400060E082E00E940D2E60937701709378010D
:103D50008093790190937A01109389018091890170
:103D6000823FACF080938A014091770150917801B5
:103D70006091790170917A0140937B0150937C01AD
:103D800060937D0170937E0181E0F6DE1CC00E948D
:103D9000310486E890E00E94040680913F01902F54
:103DA000981B892F0E94A90582E890E00E940406D2
:103DB0000E9409048FE30E945C050E94BA050E94DC
:103DC0000E040E94BA058C2F4BDF88EE93E00E9410
:103DD000250A811106C08C2F4ADFC82F8A3F08F4BC
:103DE00096CF0E943704DF91CF911F910F910895D4
:103DF000A3E1B0E0EEEFFEE10C944F3982E0809356
:103E0000020180911E01813009F023C2809173016B
:103E1000813009F01EC220905A0124E0229EF00158
:103E20001124EA55FE4F80819181A281B3818930AE
:103E300032E59307A105B10508F00BC29B8B8A8B75
:103E4000312C61E0822D631528F00E94A006B82E67
:103E5000A92E03C00E94A0065C01EA2DF0E0E45BFD
:103E6000FE4F74908B2D90E0FC01E75BFE4FE491D8
:103E700015B828E028B92A893B89203F3105A8F4E4
:103E800030FC13C0009118011091190100591A411A
:103E900021E030E00B2C02C0220F331F0A94E2F71E
:103EA000C9018860872987B908C0E4B9872D88606F
:103EB00087B9009118011091190144E1642E8B2DEE
:103EC0000E94BF094C018A2D0E94C70934E0831665
:103ED000910410F4049710F06A9489F760E46093F9
:103EE0007B0084E580BF8B2D806480937C0086E11D
:103EF00080937A00E12CF12C1092800010928500C2
:103F00001092840087E286BB0E948209932D9170F3
:103F1000998B30FC05C081E88093810078B808C097
:103F200078B80E948B0980E286BB81E8809381008B
:103F300046B345FF13C028E028B91092810080E203
:103F400086BB80918600909187006C01209184004F
:103F5000309185008217930768F013C040FFE8CFC7
:103F600031E036BBA895C70101967C0180359105EB
:103F7000F9F6E1CF40FF05C061E066BB8FEFE81ABC
:103F8000F80A86E980937A0034E1732E8B2D0E9423
:103F9000BF094C018A2D0E94C70924E082169104B2
:103FA00010F4049710F07A9489F780903C01909077
:103FB0003D018A899B89880E991E800E911E209151
:103FC0001A0130911B0100399AE11907B0F461EE32
:103FD000C616D104E104F10438F4C60165E070E0CE
:103FE0000E948C38645101C069E128523109261BB6
:103FF000310967FD339586E009C0C40160EB76E3C3
:104000000E948C3887E0860F285D3F4F90E0A0E04B
:10401000B0E08C159D05AE05BF0528F4C81AD90A75
:10402000EA0AFB0A03C0C12CD12C760189898823B6
:1040300029F092E2C90ED11CE11CF11C60E5E616E4
:10404000F10418F0C12CD12C76018BE0C816D104F4
:10405000E104F10428F091E0C91AD108E108F1085F
:104060004091330150913401A12CB12CA8EEB3E062
:104070000E944C382B013C019801DA010E944C3817
:10408000A50194010E94B33844275527C301B2010A
:104090000E94B338C9010E94DD0AFC01A501940108
:1040A000C701B6010E9471384B015C01BF0180E07D
:1040B00090E023E0660F771F881F991F2A95D1F79C
:1040C0006B5F7F4F8F4F9F4F2AE030E040E050E022
:1040D0000E94B338C501B4010E94B338832D90E02B
:1040E000E1E0F0E0EC0FFD1F64E0369EE00DF11D15
:1040F000112420833183428353836989611117C05E
:104100006CE0C616D104E104F10488F0FC0131969C
:10411000EE0FFF1FEE0FFF1F81E090E08C0F9D1F41
:10412000E80FF91F20833183428353833394A8958A
:10413000339493E0931508F084CE88E088B984E046
:104140000E948F0921E04D815E816F817885898190
:104150009A81AB81BC8184179507A607B70708F041
:1041600020E04D855E856F85788989859A85AB8548
:10417000BC8584179507A607B70710F032E001C089
:1041800033E0E22FF0E0EE0FFF1FEE0FFF1F81E0A4
:1041900090E08C0F9D1FE80FF91FDC0194E0399F20
:1041A000A00DB11D11244D915D916D917C91808187
:1041B0009181A281B381481759076A077B0708F0EC
:1041C000322FE1E0F0E0EC0FFD1F24E0329FE00D24
:1041D000F11D112480819181A281B38180930B0113
:1041E00090930C01A0930D01B0930E0130FD09C016
:1041F0002A893B89203F310520F48BEF809302010F
:1042000017C02CEF20930201BC01CD016B5F7F4FE3
:104210008F4F9F4F2AE030E040E050E00E94B338DB
:1042200020930B0130930C0140930D0150930E012C
:1042300080910B0190910C01A0910D01B0910E01A4
:10424000892B8A2B8B2B11F41092020188E087B9FD
:1042500014B86396E2E10C946B39AEE1B0E0E3E3AD
:10426000F1E20C944F39662EB82E860F8983209187
:104270001E01283059F520917B0130917C0140913D
:104280007D0150917E0157FD15C010918A0109C032
:10429000CA01B9012AE0312D412D512D0E94B338B8
:1042A0001F5F173FACF391F42A3560E036074105F4
:1042B000510518F48FEF9FEF7DC1173F39F480E06F
:1042C00028178DE738074105410510F020E03DE74C
:1042D0002C8B3D8B26EDA22EECE4F1E0E60DF11DDA
:1042E000859188608E87ECE4F1E0EB0DF11D8591FE
:1042F00088608F87E9E4F1E0E60DF11D7590E9E44F
:10430000F1E0EB0DF11DC59090EC692AB92A81E02E
:10431000E82EF12C012D112D8E831F82188619860F
:104320001A861B861C861D86188E198E1B8E1A8E69
:104330000E94061888E088B960927C000E94830978
:104340003F8537B975B874B80E948A0914B815B892
:10435000DD24A6ED8A2E3E8537B975B874B8609213
:104360007C00A895A0927A0080917A0086FDFCCF0F
:10437000A0927A0080917A0086FDFCCF2090780090
:1043800030907900B0927C00A0927A0080917A00FF
:1043900086FDFCCF80927A000E9488090E948A09DB
:1043A000C5B8C4B80E9489090E948B09A895A89530
:1043B000A895A89514B815B880917A0086FDFCCF11
:1043C0002091780030917900288B398B3F8537B95F
:1043D000C5B8C4B8A895B0927C00A0927A0080912C
:1043E0007A0086FDFCCFA0927A0080917A0086FD4B
:1043F000FCCF609178007091790060927C00A0926F
:104400007A0080917A0086FDFCCF80927A000E942B
:1044100088090E948A0975B874B80E9489090E94A7
:104420008B09A895A895A895A89514B815B880915A
:104430007A0086FDFCCF409178005091790014B845
:10444000CB01820D931DE80EF91E011D111DEA829C
:10445000FB820C831D8388899989840F951F2E8187
:104460003F8168857985280F391F611D711D2E8355
:104470003F836887798722E32417150650F075B8C3
:1044800074B80E948D0914B815B8888D8395888FEB
:1044900007C0483E73E0570718F08A8D83958A8FCE
:1044A000888999892817190660F03E8537B9C5B8FB
:1044B000C4B80E948D0914B815B8898D8395898F69
:1044C00007C0883E73E0970718F08B8D83958B8F1C
:1044D000D3945D2D5F3F09F03ECF40903C0150905A
:1044E0003D01440C551C9201E4E0240D351DEA9574
:1044F000E1F72901570168016E807F8088849984E3
:1045000020911E012830C1F46C897D89812D912D67
:104510006C537040804090409B01AC010E94713808
:104520009B01AC016FEF71EC8EE390E00E94B33819
:10453000621A730A840A950AA614B704C804D90437
:1045400028F46A187B088C089D0803C06624772429
:104550004301B20180E090E09301A4010E94713810
:104560009501A6010E94B3388EE393E07981870F0D
:10457000911D0E94E53990E0682EC90160E170E06C
:104580000E948C38260F371FC9016816190618F4C7
:10459000861991090FC08C5E9F4F8615910540F4D6
:1045A0008C899D89843981E1980710F00E944B0F16
:1045B000812D912D6E96E2E10C946B39A4E0B0E070
:1045C000E4EEF2E20C9457398091850190918601D6
:1045D000892B09F0B5C0E0918701F0E0E45BFE4F64
:1045E00004910860E0918801F0E0E75BFE4F1491D0
:1045F0000E94061888E088B915B807B914B98091E7
:1046000088010E94C7095C0100918A018CE0800F3B
:10461000843008F095C0015F80917B0190917C010E
:10462000A0917D01B0917E012AE0C22ED12CE12C17
:10463000F12CBC01CD016B5F7F4F8F4F9F4FA701C6
:1046400096010E94B3380F5F073019F0DA01C901F3
:10465000F0CF293883E138074105510508F070C0D3
:104660002530310508F46CC015B914B900E010E02C
:104670000217130768F429833A834B835C830E94F3
:1046800089090E5F1F4F5C814B813A812981F0CFF0
:1046900014B815B8A89585E080932F018091880102
:1046A00029833A834B835C830E94C70929813A811D
:1046B0004B815C81A816B90620F47C01EA18FB083E
:1046C00002C0E12CF12C00E010E00217130768F49F
:1046D00029833A834B835C830E9489090F5F1F4FB4
:1046E0005C814B813A812981F0CF809188010E94C1
:1046F000C70929E120932F01A895A816B90618F437
:104700008A199B0902C080E090E08E159F0588F40D
:104710009701281B390B69F0A4EFB1E00E944C38D7
:10472000970140E050E00E94B33830938601209317
:1047300085010E94061888E087B988B914B815B8B1
:104740002496EAE00C947339A5E0B0E0EAEAF3E2DB
:104750000C944F3988E392E04DD620EF2A83549889
:104760000E947E0914BC16BC109212011092130113
:10477000109214011092150131E035BB30936E0098
:104780001092800083E19AE790938B0080938A00D7
:10479000E1E0F0E0F0938900E0938800109285005A
:1047A0001092840083B5816083BDF6E0F6BBF09380
:1047B0006F00789424E02093810012E319820E9414
:1047C0007709A8954F9902C031E0398385B58111E9
:1047D00027C015BC86B5809312010E940E040E946A
:1047E000BA050E9413040E94BA050E94E60586E6F7
:1047F0000E945C050E94E90560911201709113010D
:10480000809114019091150147E00E941B08549873
:1048100080918100882339F08FE30E945C0503C0FA
:10482000115069F6D6CF1092810010926F0020913E
:104830001201309113014091140150911501DA01D8
:10484000C9010197A109B109893D9146A105B105A9
:1048500008F029C1AAE0B0E00E946138685F7F4F8C
:104860008F4F9F4F23E096958795779567952A956B
:10487000D1F7660F771F70936E0160936D015498A6
:104880000E947E0916BC1092120110921301109220
:1048900014011092150181E085BB80936E00109287
:1048A000700110926F0194E09BBB8091680084605E
:1048B00080936800789480916D00806180936D0092
:1048C0001D820E947709A8954F9902C0E1E0E98313
:1048D00080916D0084FF05C0FD81FF5FFD83FA3F7D
:1048E00081F715BC80916D008F7E80936D00809163
:1048F00068008B7F8093680086B5809312010E94C8
:104900000E0484E50E945C050E94E9058091120175
:1049100090911301A0911401B091150120916D01A6
:1049200030916E013C832B831C012D019C01A2015F
:1049300060E070E080E090E003E00E948C3951017B
:104940006201E12CF12C00E010E00E94A539590130
:104950006A017B01E82F192F03E00E948C390E2F8A
:104960000E94A53903E00E948C3951016201E12CBB
:10497000F12C00E010E00E94A53902E00E948C3981
:1049800000E00E94A53901E00E948C3900E00E94FD
:10499000A53903E00E948C39EB81FC815F01C12CB9
:1049A000D12C00E00E94EB3839014A011B012C0197
:1049B0002B813C812038310530F007E023E745EFBB
:1049C000B301C40116C084E6A82EB12CC12CD12C91
:1049D000E12CF12C00E010E09301C2010E94EB38C1
:1049E000E22FF42F07E023E747EF6E2F732F8F2F6F
:1049F000952F0E9417073D813A3F21F48FE30E94D3
:104A00005C0551C09301A401B101C2012C393E4C97
:104A100043405105610571058105910509F008F4D0
:104A200042C00E94130486E60E945C050E94E905CC
:104A30009301A401B101C20153016401710182011A
:104A400021153A4C4A495B43610571058105910581
:104A500089F080F020E030E04AE85DE568E775E441
:104A600083E691E00E94EB38E22FF42F07E028E480
:104A70004AEF0FC020E030E846EC54EA6EE77DE8EC
:104A800083E090E00E94EB38E22FF42F07E028E467
:104A90004CEF6E2F732F8F2F952F0E9417078AE7E9
:104AA0000E945C05549810926E0080ED97E00E9481
:104AB000250A2981820F29F43A8131503A83311134
:104AC0004ECE2596E2E10C946B391F920F920FB6F1
:104AD0000F9211248F939F93AF93BF9378948091FB
:104AE000120190911301A0911401B09115019F5FE3
:104AF000AF4FBF4F8093120190931301A093140105
:104B0000B0931501BF91AF919F918F910F900FBE00
:104B10000F901F9018951F920F920FB60F921124AD
:104B20008F9386E085BD8F910F900FBE0F901F90E1
:104B300018951F920F920FB60F921124A8951092FC
:104B4000810015BC0F900FBE0F901F9018951F92FB
:104B50000F920FB60F9211242F933F938F939F9331
:104B600080916F0190917001892B11F481E085BDD6
:104B700020916F013091700180916D0190916E01D3
:104B80002817390730F015BC80916D008F7E809317
:104B90006D0080916F01909170010196909370016A
:104BA00080936F019F918F913F912F910F900FBE36
:104BB0000F901F9018958D3008F08D50811103C013
:104BC00082E492E03BC0813019F488E392E036C081
:104BD000823019F48FE092E031C0833019F484E020
:104BE00092E02CC0843019F488E990E027C0853029
:104BF00019F48DE890E022C0863019F486E890E040
:104C00001DC0873019F483EF91E018C0883019F483
:104C100084EE91E013C0893019F480E392E00EC075
:104C20008A3019F48DEC91E009C08B3019F486E2DA
:104C300092E004C08C3021F48BE192E00E940406E3
:104C40000C94BA050F93CF9388E990E0D3D3C0E0DA
:104C500010921E0160E082E0E9D380911E0188304D
:104C6000C1F50E94090483E40E945C050E94E905E5
:104C700060917B0170917C0180917D0190917E011A
:104C800003E026E440918A010E9417070E94BA05BA
:104C90006091870180918801E0DA9093840180938C
:104CA00083010E940E048AE591E00E94040680912F
:104CB0008301909184018A3F2FEF920730F422E024
:104CC00044E06EEF0E94060808C08FE30E945C0576
:104CD00004C00E94E6050E940E040E94BA058C2FB3
:104CE0000E94301E88EE93E00E94250A811107C0C1
:104CF0008C2F0E94371EC82F8A3F08F4A9CFCF916E
:104D00000F9108951F93CF93DF9380E392E072D3C6
:104D1000C0E0D0E01AE00E94E3050E942D040E944A
:104D20002D0484E491E00E94040686E00E94C309F9
:104D300063E09C01129FC001139F900D11240E94FB
:104D400011080E94E6050E942D0484E491E00E946F
:104D5000040687E00E94C30963E09C01129FC00122
:104D6000139F900D11240E9411088C2F0E94301E59
:104D700088EE93E00E94250A882339F08F3508F0E9
:104D8000DF5FD53050F4C0E001C0D0E08C2F0E942E
:104D9000371EC82F803F08F4BECFDF91CF911F91FF
:104DA0000895A5E0B0E0E7EDF6E20C944F398FE00E
:104DB00092E020D380E18093800010926F0081E028
:104DC00090E0909389008093880010928B0010925D
:104DD0008A0083E086BB1092820088E08093810085
:104DE00015B891E194B988B989E087B9229A80937E
:104DF0008100212C1B822AE0298333243394812CC7
:104E0000912C5401839411E1822D90E00A966EE179
:104E100070E00E94A038662E562E3B81631789F001
:104E20000E9431048FE092E00E940406712C7514F8
:104E300028F48EE20E945C057394F9CF0E94BA05B3
:104E40006B821231C8F0C701B601A50194010E941E
:104E5000B3382B013C01832D69810E948038A92F32
:104E6000B0E0A50194010E9461386B017C01C40C83
:104E7000D51CE61CF71C0CC0832D69810E9480386C
:104E8000A92FB0E0A50194010E9461386B017C015B
:104E90000E9409048981381208C081E0123108F4A7
:104EA00080E08A83811106C001C01A82163120F485
:104EB0008EE303C08CE301C082E50E945C050E9482
:104EC000A705412FC701B6010E941B08C701B60103
:104ED0007E5E85489F4FA7019601220F331F441F16
:104EE000551F0E94B338CA014F3F510539F030F0C9
:104EF0008DE08093810080E094E01FC04034510534
:104F000030F08CE08093810080E091E016C0483062
:104F1000510530F09BE09093810080E490E00DC05B
:104F2000892B31F0EAE0E093810088E090E005C051
:104F3000F9E0F093810081E090E02C01612C712C6C
:104F4000CA01B901A30192010E94B338C9010197B6
:104F500090938900809388008091880090918900C7
:104F6000892B31F421E030E03093890020938800D0
:104F70000E94BA050E940E0486E60E945C050E940B
:104F8000A70580918800909189009D838C8360E0C3
:104F900079E08DE390E0A30192010E94B338A4E68A
:104FA000B0E00E946138EC81FD8131969F0140E0C4
:104FB00050E00E94B33829013A01A4E6B0E0A7010D
:104FC00096010E946138461A570A680A790A05E272
:104FD00028E44EEFC301B2010E9417078AE70E943E
:104FE0005C050E94BA058CED95E00E94250A882395
:104FF00009F443C0863960F010928100109280005D
:1050000088E087B914B822982596E2E10C946B39B0
:10501000813578F1FA81FF23D9F01150C501B4012F
:105020002AE030E040E050E00E94B33849015A01E4
:10503000C701B6010E94B338CA01B9012AE030E0C5
:1050400040E050E00E94B338362E2AE0298331C078
:10505000163130F51F5F163111F435E13983AAE0BE
:10506000B0E0A50194010E9461384B015C01312C34
:1050700020C08B3008F03394212C832D90E0E981FF
:105080006E2F70E06F5F7F4F0E94A038382E822D08
:105090000E94371E282EFFEEF81708F0B5CEACCFD1
:1050A0002AE0298333243394812C912C5401839456
:1050B00011E1212CA9CEA4E0B0E0E1E6F8E20C94E5
:1050C000533984E092E096D183E28093800010927D
:1050D0006F008FEF90E090938B0080938A0083E0C5
:1050E00086BB1092820015B881E184B988E088B946
:1050F00029E027B9229A81E090E09093890080937B
:1051000088002093810010E000E0A2E37A2E612C59
:10511000B4E6CB2ED12CE12CF12C88248A9483E0A8
:10512000982EA12CB12C7016E9F183E6871510F4A6
:10513000ECE97E0E272D30E0AFEFB3E00E944C3853
:105140006E5C7F4F8F4F9F4FA70196010E94B3382F
:1051500030938B0020938A0029833A834B835C83AE
:105160000E940904A8EEB3E029813A814B815C8159
:105170000E94613861507E4F8F4F9F4FA50194016F
:105180000E94B338DA01C90125E045E26FEF0E94C1
:1051900006080E94BA05F8E2F61518F48CE30E949E
:1051A0008F09072D80E496E00E94250A682E82E888
:1051B000861560F488E087B9109281001092800013
:1051C00014B822982496EEE00C946F39E2E3E615C9
:1051D00018F4FAE07F0E03C0662011F0739410E01B
:1051E000812F0E94371E182F803F08F49CCFE2CFFA
:1051F000CF93DF938DEC91E0FDD08DE393E00E949F
:10520000E539C82FD0E081E80E9426048C2F0E9447
:1052100026040E94090424E040E260E08C2F90E024
:105220000E9406080E94BA0580E496E00E94250AC2
:10523000882331F0823858F4893288F0CF5FD0E08B
:10524000CF778D2F0E94371ED82F803FE0F26C2F32
:105250008DE393E00E94F239DF91CF910895C15818
:10526000EECF0F931F93CF93DF9383EF91E0C2D0E4
:1052700082E493E00E94E539182F00E00E940904BF
:10528000C12FDD27C7FDD09517FF0BC08DE20E940F
:105290005C0523E045E26FEF882799278C1B9D0B67
:1052A00004C023E045E26FEFCE010E9406080E9491
:1052B000BA0580E496E00E94250A882331F08238FE
:1052C00088F48932C8F01F5F00E0113514F01556DC
:1052D00003C01C3E0CF41B59802F0E94371E082F60
:1052E000803F60F2612F82E493E00E94F239DF9107
:1052F000CF911F910F9108951150E6CF813011F495
:1053000080E022CA823009F44CCD833009F4D3CE38
:10531000843009F497CC853011F40C94411E86300A
:1053200021F40E9437040C947F1E873009F499CF32
:10533000883019F481E10C947B0B893009F4E2CCBC
:105340008A3009F455CF8B3009F4B2C18C3029F47E
:105350005E9880E090E00C94250A0895FF920F93E8
:105360001F93CF93DF938DE492E044D0D0E0C0E070
:105370001BE01C0FF12C01E00F0D60E0802F0E945C
:10538000FC0382E0F81204C08EE30E945C0502C0B8
:105390000E94A7051D3018F083EF810F01C0812FF7
:1053A0000ADC1F5F063011F0F02EE5CF80E49FE1AC
:1053B0000E94250A8111D0E090913901913009F4C1
:1053C000D0E0823340F0CC2379F08C2F97DF8DE44E
:1053D00092E010D002C08111CF5FDF5FD23820F49D
:1053E000CD3030F2CD50C4CF80E0CDB7DEB7E5E0B0
:1053F0000C947839A2E0B0E0E0E0FAE20C945E3977
:1054000089839A830E94370489819A810E940406C5
:1054100014E682E00E948F094F9902C01150C9F72B
:105420000E9409042296E3E00C947A39A4E0B0E0EB
:10543000ECE1FAE20C945439882E762E862F90E017
:10544000FC01E45BFE4F14911860E82DF0E0E75B8F
:10545000FE4FB490FC01E75BFE4F04911092840173
:1054600010928301109277011092780110927901C5
:1054700010927A0187EF809389010E94061888E0D4
:1054800088B917B904B905B9882D0E94C7098C01DC
:10549000872D0E94C709081B190B14B810925601DA
:1054A0001092550120E030E09CE2E92EFF24F394B5
:1054B0004AE0A42E54E6952E809155019091560114
:1054C000843D904308F069C0B5B880915501909132
:1054D0005601892B89F06701C21AD30A60915501E0
:1054E00070915601A29EC001A39E900D11240E94AE
:1054F0008C38C616D70650F4B4B80E94820914B886
:105500008091550190915601019628C080915501D6
:10551000909156010B97C8F060915501709156011A
:10552000929EC001939E900D11240E948C386C15A0
:105530007D0558F4B4B80E94770914B880915501DC
:10554000909156018C599F4F09C0B4B80E947D09B3
:1055500014B880915501909156010A969093560186
:105560008093550115B80E948409A895882D0E9442
:10557000C7099C01201B310B809155019091560168
:105580008B31964020F0253231050CF488C02D3245
:1055900081E038070CF490CF05C02D32F1E03F07D1
:1055A0000CF47DC08091550190915601019729F42A
:1055B000253145E034070CF072C00091550110917F
:1055C0005601000F111FA80160E070E040937F01B9
:1055D000509380016093810170938201C90168E258
:1055E00070E00E94A038C901860F971F0E94EC1B33
:1055F0009C01D8010E944C3860937F017093800118
:105600008093810190938201609377017093780178
:105610008093790190937A010E94911820917701EB
:10562000309178014091790150917A0182E493E0C0
:1056300029833A834B835C830E94E539A8EEB3E06B
:10564000A81BB10987FDB39529813A814B815C8103
:105650000E946B3820E137E240E050E00E94B3380E
:1056600020937701309378014093790150937A0128
:1056700088E080931E0120937B0130937C0140934E
:105680007D0150937E018091890180938A0110925F
:10569000860110928501709287018092880188E0CE
:1056A00087B988B914B815B82496EDE00C94703910
:1056B000A0E0B0E0EEE5FBE20C945A390E9437041A
:1056C0008EE091E00E9404060E9409048AEC90E0BA
:1056D0000E94040680E493E00E94E53923E040E262
:1056E0006EEF90E00E94060881E493E00E94E539A5
:1056F00023E040E26EEF90E00E9406088FE393E023
:105700000E94E53923E044E06EEF90E00E94060835
:105710000E940E0483EC90E00E94040623E044E023
:105720006FEF80913501909136010E9406080E942A
:1057300013048CEB90E00E94040623E044E06FEF3A
:1057400080913C0190913D010E94060888E99AE30E
:105750000E94250A0E94370488EB90E00E9404060C
:1057600084E693E00E94E53990E042970E944A0661
:1057700085E693E00E94E53990E042970E944A0650
:1057800081E693E00E94E53990E023E046E464EF8F
:1057900042970E9406080E94090483E00E94A9051E
:1057A00080E693E00E94E53990E042970E944A0625
:1057B00083E693E00E94E53990E042970E944A0612
:1057C0008FE593E00E94E53990E023E046E464EF42
:1057D00042970E9406080E940E0486E290E00E9412
:1057E000040686E693E00E94ED390E9436060E9488
:1057F00013048FE190E00E94040688E693E00E9483
:10580000E539992787FD90950E94360660E087E08C
:105810000E94FC03F12CDF2CDD0CDF0CE12CDA9470
:10582000FE14D9F1CD2DCE0DD0E0CC0FDD1FCE0171
:105830008F5A9C4F0E94ED398C01CE018D5B9C4F9D
:105840000E94ED39EC018091A501873038F088E99C
:105850009AE30E94250A0E94370403C080E00E9458
:10586000BF0580EB90E00E9404068F2D0E94A505E5
:105870008AE30E945C058E2D0E94A50580E00E94AF
:10588000BF0523E040E26EEFC8010E94060823E056
:1058900046E462EFCE010E940608E39483E0E8123A
:1058A000BFCFF394F812B7CF88E99AE30E94250A94
:1058B0000E945308CDB7DEB7E7E00C947639A1E833
:1058C000B0E0E5E6FCE20C944F3950908D01D090A9
:1058D0009301F0909401E52DF0E0E75BFE4F4490DA
:1058E000A42CB12CAA0CBB1C852D8064382E78E02A
:1058F000272E8F2C912CF401E75BFE4F2491C42CB2
:10590000C22A2A2930927C006D2C712CF301E45BB1
:10591000FE4FE491E860E7B928B815B814B8CF573E
:10592000DF4F2883C158D0400E948309CF57DF4FF3
:105930002881C158D040E22E022F40E4BE016F5FA3
:105940007F4F80E090E17CD0FE01759630E02AE048
:10595000819191919695879596958795182F3817EF
:1059600028F42F5F203419F0382FF2CF132F812F16
:10597000869586958695312F381B203409F453C0BF
:10598000DE011196A20FB11DA20FB11D8D919C9148
:105990009695879596958795831708F042C082E083
:1059A00080931E01D092510150924F01F09250010C
:1059B000F301E80DF91DEA5AFE4F10826D2D8F2D6F
:1059C0000E94011680915101E0915001F0E0E80F32
:1059D000F11DEE0FFF1FEE0FFF1FEE55FE4FC080B3
:1059E000D180E280F3801352212F30E0A4E6B0E0B2
:1059F0000E944C384B015C019E2D8D2D7C2D66271D
:105A0000A70196012057354E4F4F5F4F0E94B33884
:105A1000C501B4010E94B33830934E0120934D016B
:105A200009C02F5FAACF80919301D81203C0DF2C49
:105A3000F82E5FCFCF57DF4FE2E10C946B3908951A
:105A4000E62FF72F903009F49395E5B8C4B8B6EF78
:105A5000B0937A00A5E0A0937B00A8E0A09381001A
:105A600010928000AFEFA0938500A0938400A6E081
:105A7000A093360010928B0010928A00B3E0AFE33F
:105A8000A91B51E0392F33302AF0A05CBC4F53954D
:105A90003350F9CFB0938900A0938800A0917A0089
:105AA000A4FFFCCFB6EBB0937A00A2E0A0936F0006
:105AB000A9E0A093810062E0A0E0A0937B00A1E0B8
:105AC000A09353008895E5B8C4B884FF19C0A8E135
:105AD0000000AA95F1F7EF93FF93E7B1F8B1A4E0C6
