:1000000037C4000047C4000045C4000043C40000DA
:1000100041C400000C9414263DC400000C947C0BD9
:1000200039C4000037C400000C94371C0C94F82528
:100030000C9406260C94111C2DC400002BC4000047
:100040000C94D22527C4000025C4000023C400005E
:1000500021C400000C947D0B1DC400001BC40000D3
:1000600019C4000017C40000070609060D0617068C
:1000700015061106110613061D061D06C600BD0055
:10008000B4001008407E01013E01013E01013E0125
:10009000017E404018000720080808F800000020F2
:1000A00060A03FA06020020202FF020202101010B6
:1000B0001F0000000708FFDBBDB5B5CBFF0708FF39
:1000C000BB9DADADB3FF0708FFFFF7FB81FFFF103E
:1000D000100508F878385888091003081C3E7F0D71
:1000E000080710FF818181F1E1C1FF404040474393
:1000F000410D080110FFFF11080310F1E1C1474352
:10010000410E0008202121122060E0E0E0FEFE0404
:1001100002010001037F7F21C2C4C4C04094840057
:1001200007030102040E080210FEFE7F7F0000009C
:1001300000110005202060E0E0E00201000103C2A0
:10014000C4C4C0400703010204010410090A0C4E94
:100150006F742063616C696272617465642120460A
:100160006F72FF63616C6962726174696F6E2063A4
:100170006C616D70207468652033FF70696E732048
:10018000746F67657468657220616E642073746152
:100190007274207769746820746865FF6B65792EC6
:1001A0002041636B6E6F776C65646765207468656A
:1001B0002073656C662D746573742077697468208C
:1001C000746865206B65792077697468696EFF32A1
:1001D000732E20446973636F6E6E6563742070695B
:1001E0006E7320616674657220746865FF6D657357
:1001F00073616765202269736F6C617465FF50726B
:100200006F626521222069732073686F776E2E20DC
:10021000536F66747761726520616E6420646F63EA
:10022000756D656E746174696F6E20697320617499
:100230002073766E3A2F2F206D696B726F636F6E2D
:1002400074726F6C6C65722E206E65742F7472619F
:100250006E736973746F72207465737465722000B5
:10026000B903870358032E030703E402C302A40261
:1002700088020000140029003E005300690080003D
:100280009700AE00C600DF00F80012012D01490101
:1002900065018201A001BE01DE01FF0121024402CD
:1002A00068028E02B502DE0209033503640394037B
:1002B000C803FE0337047304B404F904430593052B
:1002C000EA054906B3062907AE074808FF08DE0914
:1002D000000000000000000000000000000000001E
:1002E0001E2121211200807F0000007E4A4A4A34EC
:1002F000000000000000FC40201008040201000083
:1003000000010101010101010101010101017F045D
:1003100088D0E0F0F80000000000000000000000BD
:1003200000000000000000FC94948400000102FC26
:100330000000000000000000000000001E2121213C
:1003400012E0C0804020100F000000C0202020409C
:10035000000000FC00009E9E040303030302000053
:1003600000202023242525232020203F00007B7B04
:100370002142840480C00000000000000000000052
:1003800000000000FC94948400040607070708F0AE
:1003900000000000000000000000000000803F217D
:1003A00021120C00000000FF000000F0084848C8BF
:1003B0000000FE0000E7818181C1E1F181818101BE
:1003C000002020202121212020203F0000F3404058
:1003D0004041434740407FC0000000000000000053
:1003E000000000000000489494946400000000FFA6
:1003F00000000000000000000000000000000000FD
:100400003F2121120C0000FF000000F0084848D0F6
:10041000000000000000FEFE0404040404040407BD
:100420000008080809090908087F3E1C08087F7FA2
:1004300020202020202020E00000000000000000FC
:10044000000000000000000048949494640000FF45
:100450000000000000000000000000FF003C0A094E
:100460000A3C002231292926000082868E9EBEFE8B
:10047000FEBEDEEFF6FAFEFEFAF2E2C282000000F5
:1004800008080804027984A4A46800FF00000000A2
:10049000000000000000000000000000000000005C
:1004A000000000FF0000F0282428F0001008FC00E5
:1004B00000000000000000000000003C0A090A3CA7
:1004C00000FF00000000000000000000000000002D
:1004D00000000000040C1C3C7CFF7C3C1C0C040055
:1004E00000000000009EA1A9A99A804323130B07D6
:1004F00003FF0303030303030000000000000000E8
:10050000000000788484844800FF000000000000A0
:10051000000000F00804E2110909090909090909A4
:10052000091121C2040810E00000000102040407C0
:1005300000000000008040201088442310080403BD
:100540000000000000000000000000FE0100FC02AE
:10055000010000000000000000000000000000009A
:100560000000007949497900000000000000000007
:10057000083E22223E08087F2214087F7F081422AA
:100580007F087F7F00007F7F0058640464580080EC
:100590007C20201C22222222223E3E2222222222B3
:1005A00008080808080838404030404030404030D3
:1005B0004038007E1515150A000629792906000025
:1005C0000000000000607E0A353F002A1C361C2A0D
:1005D00000E0514F41FF007F404040FF007F407FDF
:1005E00040FF00E0544C44FC0018247E2418007C9A
:1005F000404040FC007C407C40FC0014B6FFB61438
:100600000004067F06040010307F30100008083E0A
:100610001C0800081C3E08080078404040400008C4
:100620003E083E0800303C3F3C3000030F3F0F03C4
:100630000000000000000000005F00000000030058
:10064000030000147F147F1400242A7F2A12002341
:10065000130864620036495522500000050300006B
:1006600000001C224100000041221C000014083E32
:1006700008140008083E08080000A06000000808F0
:100680000808080000006060000000201008040254
:10069000003E5149453E0000427F4000004261510A
:1006A0004946002141454B31001814127F100027A4
:1006B00045454539003C4A49493000017109050367
:1006C00000364949493600064949291E0000363698
:1006D00000000000563600000008142241000014FB
:1006E00014141414000041221408000201510906D8
:1006F00000324979413E007E1111117E007F494947
:100700004936003E41414122007F4141221C007F89
:1007100049494941007F09090901003E4149497A97
:10072000007F0808087F0000417F41000020404111
:100730003F01007F08142241007F40404040007F7D
:10074000020C027F007F0408107F003E4141413EC1
:10075000007F09090906003E4151215E007F091909
:1007600029460046494949310001017F0101003F06
:100770004040403F001F2040201F003F4038403F86
:1007800000631408146300070870080700615149EA
:10079000454300007F4141000018247E24100000E2
:1007A00041417F00000402010204008080808080BB
:1007B000000001020000002054545438007F4844D7
:1007C000443800384444442000384444487F0038CA
:1007D0005454541800087E09010200085454543C33
:1007E000007F080404780000447D4000002040445D
:1007F0003D00007F102844000000417F4000007C45
:1008000004180478007C0804047800384444443810
:10081000007C1414140800081414147C007C0804D0
:10082000040800485454542000043F444020003C35
:100830004040207C001C2040201C003C4030403CBC
:10084000004428102844000C5050503C004464548C
:100850004C440000083641000000003F000000004A
:10086000413608000008082A1C08003C2623263CC4
:1008700011241FBECFEFD8E0DEBFCDBF11E0A0E056
:10088000B1E001C01D92AE3BB107E1F70E94933188
:100890000C945739B5CB5A98529A5D98559A80FF67
:1008A00003C053985B9A02C05B98539AB6D5661FF3
:1008B00018D0661F16D0661F14D0661F12D0661F90
:1008C00010D0661F0ED0661F0CD0661F0AD0A5D5AB
:1008D0005A98529A55985D9A5A98529A5998519A9C
:1008E00008955A98529A18F45198599A02C05998F2
:1008F000519A52985A9A91C560933F01809304018E
:100900008093A501862F880F860F880F80930F0193
:10091000089580E24CD560E081E0EECF80E247D5DB
:1009200060E082E0E9CF80E242D560E083E0E4CF9E
:1009300080913F01809301018091A5018093030183
:1009400008956091010180910301D6CF682F80E066
:10095000A2CF8EEAFBDF85EAF9CF8DE028D58AE0C9
:1009600026C5FBDF1092A50160E080E0C5CFCF93E4
:10097000DF93C0E080E1EADF80E0E8DF8C2F806B6E
:10098000E5DFD4E860E081E086DFD150D9F7CF5FC2
:10099000C83081F7E6DFDF91CF9108955C985A98CF
:1009A00059985D98549A529A519A559A31D55598BA
:1009B0005D9A5B98539A84E132D554985C9A84E1AD
:1009C0002ED58EEAC3DF82EEC1DF82EABFDF80EA86
:1009D000BDDF80ECBBDF8FE2B9DF84E2B7DF81E807
:1009E000B5DF89E293E00E9419398F73AFDF80E4AD
:1009F000ADDF84EAABDF86EAA9DFB9DF8FEAA6DFE5
:100A000060E080E079CF0895582F28E030E090E84A
:100A100041E080E0642F652309F0892B440F96950F
:100A20002150310921153105A9F70895A0E0B0E062
:100A3000ECE1F5E00C948438EC01C02ED12CC60119
:100A4000860F911D813891050CF06BC0F12CE40EDE
:100A5000F11C81E4E816F1040CF063C0142F169524
:100A60001695169581E0E81AF10833E0F594E794BD
:100A70003A95E1F7822F8270582E21FF0DC0F701C1
:100A8000FF27E11BF109EC9DC001ED9D900DFC9D40
:100A9000900D1124C80FD91F87E08E1510F497E030
:100AA000E92EF62EF2948FE0F8228F2D8061F82E39
:100AB0006F70462E2170322E460181E0881A91080F
:100AC000E11650F1812F806B41DF8F2D3FDF842DA8
:100AD0003DDFA12CB12C3E01680C791CA01698F4C6
:100AE000332021F0F301EA19FB0903C0FE01EA0DEE
:100AF000FB1D8491511088DF682F81E0CCDE8FEFE1
:100B0000A81AB80AEBCF552019F0CC19DD0902C09C
:100B1000CC0DDD1D1F5FD4CF809104018F70806BE1
:100B200015DFCDB7DEB7E1E10C94A038EF920F935B
:100B3000282F8F7030E6839FC001112480539D4F72
:100B4000322F307324FF02C028E001C028E4209334
:100B50001001303218F01092000108C020E22093FA
:100B60000001209110012D5E2093100140E2E42E3F
:100B700008E120E0409100016091100157DF0F91E2
:100B8000EF900895EF920F93262FFC016491319618
:100B90004491FC0132960491FC013396E49050910B
:100BA0000001450F50911001650F04963FDF0F9132
:100BB000EF90089560E0E6CFEF920F93CF93C82FA8
:100BC00080913F018F5F80933F0140910401440F6A
:100BD000440F440F26E0C29FC001112458E0E52EC7
:100BE00006E020E060910F0180599A4F1FDF80914D
:100BF0000F018A5F80930F014C2F50E0FA0131976B
:100C0000EA30F105E0F4EC5CFF4F0C94BA388EE367
:100C100005C08CE7CCD38CE313C08CE7C8D38CE73A
:100C20000FC082E50DC08DE20BC085E709C08FE4DF
:100C3000BED388E6BCD38DE603C08CE401C08C2F04
:100C4000B6D3CF910F91EF9008958F5CB5CF80E22E
:100C5000B3CFA1E0B0E0EFE2F6E00C9493381816C1
:100C60002CF48983F4DF89818150F9CF2196E2E069
:100C70000C94AF3890913F0185E1891BEACFA1E048
:100C8000B0E0E5E4F6E00C9493388983F3DF80E28A
:100C90008ED39091A5019F5F9093A50169819830B3
:100CA00038F087E08093A50181E08093420102C083
:100CB000109242018091A5011FDE2196E2E00C9482
:100CC000AF38DDDF7FC44DDED5DF4BCE22DED2DF95
:100CD00020CE8DE371CFCF93DF93EC0189918823F0
:100CE00011F06ADFFBCFDF91CF910895CF93DF93AF
:100CF000EC01FE018491982F9F7719F05DDF21961A
:100D0000F8CFDF91CF910895CF93DF93EC01CE011F
:100D10000E941939982F9F7719F04EDF2196F7CF4F
:100D2000DF91CF910895EF920F93FC0104913196DA
:100D3000E49002967BDE0F91EF9008950F938BE87D
:100D400091E0E2DF409189014D3F64F460917701C9
:100D5000709178018091790190917A0103E026E405
:100D6000E6D002C08FE328DF0F91089597FF09C0F6
:100D70008F939F938DE220DF9F918F919095819526
:100D80009F4F65E271E04AE050E00E940539A3CF31
:100D9000EDDF01C0EBDF5BCFEF92FF920F931F936C
:100DA000182F062FF42E8DE691E0AEDFEE24E091B1
:100DB0004001F09141018685E81611F4812F09C0A8
:100DC0008485E81611F4802F04C08585E81611F497
:100DD0008F2DF2DEE3948E2D833049F71F910F9112
:100DE000FF90EF900895EF92FF920F931F93182FAB
:100DF000062FF42E80E065DF83E791E085DFEE24A7
:100E00008E2D23DF66DFE0914001F0914101868560
:100E1000E81611F4812F09C08485E81611F4802F9B
:100E200004C08585E81611F48F2DC6DE10DFE3942B
:100E30008E2D833029F71F910F91FF90EF90089529
:100E4000682F80E092E0662309F491E0623009F4B3
:100E500081E008950F93082FE6EAF1E0880F880FEC
:100E6000E80FF11D60817181828193816436710583
:100E70008105910570F42091020127FD0AC0802FA1
:100E8000DFDF692F0E949A216EEF23E044E03ED11C
:100E900004C04FEF04E024E04AD0D9DE0F9108955A
:100EA000863058F4E9E9F1E0E80FF11DE80FF11D93
:100EB0008081918163E035D1CACE08951F93182FA8
:100EC00080917301882319F0C2DE80E075DE21DD98
:100ED00084E691E019DF812F82958F70E1DF812F09
:100EE0008F70DEDF1F910895CF93DF938091110102
:100EF00082958F70CDE8D1E0C80FD11D8881A5DE25
:100F000082E391E001DF8E81A0DE82E391E0FCDEEE
:100F1000CDE8D1E0809111018370C80FD11D8E8181
:100F200094DE80911101CADFDF91CF910895AEE088
:100F3000B0E0EDE9F7E00C948338342E222E6B01FB
:100F40007C01102F1F7080E389838A838B838C83BD
:100F50008D838E83F7FE0BC08DE22EDEF094E0943D
:100F6000D094C094C11CD11CE11CF11C04C005FF2D
:100F700002C08BE221DE133009F4B6C0143009F44C
:100F8000BAC0153051F0163081F01730B1F074E668
:100F9000872E912CA12CB12C17C060EA862E66E812
:100FA000962EAA24A394B12C0FC050E4852E52E4AF
:100FB000952E5FE0A52EB12C07C040E8842E46E9AF
:100FC000942E48E9A42EB12C3AE0432E512C612CEA
:100FD000712CC814D904EA04FB0470F0C701B601EF
:100FE0006B5F7F4F8F4F9F4FA30192010E94E737A6
:100FF00069017A013394EDCF81E1830D9BEA899FEA
:10100000812C1124869486E08319899F912C1124C8
:101010009694992D990F990D982E991A5E0187E053
:10102000A80EB11C2AE030E0A501C701B6010E945C
:10103000E238F50101900020E9F7CF0101977C012A
:10104000EA18FB08AE2C6701DD24892D90E0049698
:101050008C159D051CF4839493E0990E882D90E0E7
:10106000895D9F4F0E941939B82E04FF04C0A11654
:1010700010F41E1901C010E0AE2CA918A10E1A140C
:1010800024F08EE299DD192D1E19911002C028EF6F
:10109000A22E912C012F10E0C00ED11EEA2CFF24AD
:1010A000E7FCF094E92DF0E0EC15FD05A4F436968C
:1010B000E01BF10B81E090E08C0F9D1FE80FF91F02
:1010C00080817ADD9394892D90E08E159F0551F7EC
:1010D0008EE272DDE7CFBB2011F08B2D6DDD22207B
:1010E00089F0822D69DD0EC098EE892E93E0992E4D
:1010F000A12CB12C69CF80E1882E87E2982EA12CFB
:10110000B12C62CF2E96E2E10C949F380F93362FCC
:10111000BC0180E090E0022F242F432F08DF0F91C5
:1011200008950F93062FBC0180E090E026E54DEF77
:10113000FEDE0F9108950F93042F28E440E0F7DEC0
:101140008AE73ADD0F910895E82FF0E0EE0FFF1FD8
:10115000E458FF4F8591949120910001420F209116
:101160001001620F20E0DFCDCF93DF93C82FD62F81
:10117000E0914001F091410148E16EE18685E4DFB4
:10118000E0914001F09141014D2F6C2F8485DCDF0F
:10119000E0914001F091410140E06EE18585D4DFAE
:1011A000DF91CF9108951F93CF93DF93E0DB80E32E
:1011B000BDDC62E084E990E0E5DC80E2B7DC8FEC46
:1011C00090E0F8DC60E085E097DB80E891E09CDD72
:1011D0006AE085E091DB88E791E096DD88E99AE3B3
:1011E000B4D1C5DB83E1A2DC83E0A0DC88ED90E034
:1011F000E1DC61E082E080DB8EE4DEDC8DE2DCDCE1
:101200008AE991E081DD6BE082E076DB80E5D4DC89
:101210008DE2D2DC8AE991E077DD88E99AE395D125
:10122000A6DB81E383DC81E281DC81E391E0C2DC47
:1012300060E085E061DB8EE4BFDC8DE2BDDC85E44F
:10124000BBDC84E991E060DD6AE086E055DB80E5A7
:10125000B3DC8DE2B1DC85E4AFDC84E991E054DD00
:1012600088E99AE372D183DB81E160DC85E291E079
:10127000A1DC81E05BDC81E091E09CDC60E081E06E
:101280003BDB8EE499DC8DE297DC84E495DC84E939
:1012900091E03ADD6AE082E02FDB80E58DDC8DE2D3
:1012A0008BDC84E489DC84E991E02EDD88E99AE333
:1012B0004CD15DDB82E33ADC82E238DC87EF90E000
:1012C00079DC60E085E018DB8EE476DC8DE274DCAE
:1012D00085E472DC8FE991E017DD6AE086E00CDBE3
:1012E00080E56ADC8DE268DC85E466DC8FE991E00C
:1012F0000BDD88E99AE329D13ADB82E117DC81EF43
:1013000090E058DC82E012DC8FED90E053DC61E08D
:1013100081E0F2DA8EE450DC8DE24EDC84E44CDCD9
:101320008FE991E0F1DC6BE082E0E6DA80E544DC15
:101330008DE242DC84E440DC8FE991E0E5DC88E981
:101340009AE303D114DB0DDB83E191E0DDDCE1DA2C
:101350008EE091E0D9DCE2DA86E591E0D5DCE3DAF3
:1013600082E391E0D1DC73DC8EE291E0CDDCC0E081
:1013700015E18C2F612F0E94B437D82F911109C02D
:10138000811104C088E99AE3E0D0F1DA60E08D2FA2
:10139000B3DA80E28C0F10DCCF5FCF3551F788E9EC
:1013A0009AE3D3D0E4DADF91CF911F9108958F9320
:1013B0002F932AE080953B9A089410F4439802C03A
:1013C000439A000020D027D086952A95B1F72F9117
:1013D0008F91089503D002D001D000D000D003D067
:1013E00002D001D000D000D003D002D001D000D074
:1013F00000D0A89503D002D001D000D000D003D0F7
:1014000002D001D000D000D003D002D001D000D053
:1014100000D003D002D001D000D00000089590E0A9
:10142000893C28F0885C48EC849FC0011124009717
:1014300009F4089520918100277019F0DADF0197EF
:10144000F6CF8130910519F002973EE303C037E1F2
:1014500080E090E02091B200230F2093B30042E09F
:101460004093700027E023BF889526E023BF1092A9
:101470007000A895DCCF8F9384E0D1DF07C08F93F5
:1014800082E0CDDF03C08F9381E0C9DF8F911F938E
:10149000182F106410937C00E12FE07880913001C8
:1014A000E81759F0E0933001AEDF8EE980937A00BF
:1014B00083E083BF889582E083BF20E030E0A9010C
:1014C000E0E01FC08EE980937A0083E083BF8895B7
:1014D00082E083BF6091780070917900260F371FFA
:1014E000411D511DE43061F480913201803041F0A2
:1014F00084E02030380720F417FD02C01068CACFFE
:10150000EF5F80912F01E817E8F26091330170914D
:10151000340117FF04C0609131017091320180E005
:1015200090E00E94A5372FEF33E040E050E00E94AA
:10153000E737B901CA0120912F0130E040E050E0C7
:101540000E94E737C9011F910895EF92FF920F9310
:101550001F93CF93DF93F82EE92EC5E64F9B05C06E
:10156000CF2DDE2D05E510E019C081E058DFC15018
:10157000A9F7F6CF82E053DF000F4F9B0F5F0F7389
:101580000F3379F4111103C0CF2DDE2D14E01F5F4E
:10159000163990F4A8951C161D0644F0D7FFEACF23
:1015A0000BC00111F7CF1123A9F306C02A9720978A
:1015B000A9F7CFEFDFEFF2CF812FCDB7DEB7E6E0AF
:1015C0000C94AB38CF93B4D9C82F809142018823B3
:1015D000D1F0813051F4C73041F464E187E08CD917
:1015E0008BE2EADA64E187E087D980E49FE1ADDF4E
:1015F000C73041F480914201813021F460E087E0FE
:101600007BD938DB9ED9CF91089582E593E00E9483
:101610001939382F83E593E00E9419392091370159
:10162000230F30913801381F20931A0130931B018A
:1016300083E0283E380720F0C901885E934002C04D
:1016400080E090E062E370E00E94C037683008F00C
:1016500067E0E0E6F2E0E60FF11DE60FF11D4591CF
:1016600055912591359162E3681B421B530B649F92
:10167000C001659F900D1124499662E370E00E94BD
:10168000C037620F731F709376016093750184E514
:1016900093E00E941939992787FD90956091370151
:1016A00070913801860F971F90933201809331011A
:1016B00090937201809371010895CF93DF9324E199
:1016C00030E0B9010E94C037DC01E2E7F2E0E60F4A
:1016D000F71FE60FF71FC591D591459155914C1B0A
:1016E0004A9FC0011124B9010E94C0376C0F7D1FB1
:1016F000CB01DF91CF9108951895189510921E0196
:1017000010921C0110926C011092520110921D0156
:1017100010923E01109273011092570110925801DD
:10172000109259011092870182E0809388011092F3
:101730000201109286011092850110927B01109295
:101740007C0110927D0110927E0181EF80938A01CD
:101750000895A1E0B0E0EFEAFBE00C94913898E046
:1017600097B998B9E82FF0E0E75BFE4F949195B9EF
:10177000262F281BE20FF11D27FDFA95E491E92B96
:10178000E4B9698384DE8C016981862F80DE209133
:1017900033013091340136952795A9014350510901
:1017A000B801625E7F4F4617570778F4255E3F4FBA
:1017B0000217130750F4BC01625E7F4F46175707AC
:1017C00020F441E08217930708F040E014B8842F1A
:1017D0002196E4E00C94AD38CF9361E080E0B9DF6E
:1017E000C82F62E080E0B5DFC80F62E081E0B1DFC2
:1017F0008C0FCF910895A3E1B0E0E1E0FCE00C9400
:101800008338B82E10921E01807FA9F4E5DF833063
:1018100009F0BDC3ACD88DE592E076DA7AD88FE3D3
:10182000CBD980ED97E091DE8B30C0F4A0D880E07A
:1018300091E06ADAACC306E910E099D882EC91E055
:1018400063DACADF833021F41F5F143010F006C062
:1018500010E088E2E4DD015081F763C05AD80E94AD
:10186000981C8CEB90E050DA60E08CE293E00E94F0
:10187000263960E08DE293E00E94263960E08BE239
:1018800093E00E94263960E082E00E949A216C0178
:101890009A83898361E082E00E949A217C019C8383
:1018A0008B8360E081E00E949A218C019E838D836E
:1018B00023E040E26EEFC60129DC23E040E26EEF58
:1018C000C70124DC23E044E06EEFC8011FDC2AE5F9
:1018D000C216D10424F024E130E03A8329836981DF
:1018E0008CE293E00E9426398AE5E816F10424F0A0
:1018F00024E130E03C832B836B818DE293E00E94F6
:1019000026390A35110524F024E130E03E832D8389
:101910006D818BE293E00E94263982E08093420140
:1019200051DE9B2D9F709F87913009F04EC001E0E2
:1019300010E058EB252E52ED352E57E4452E512C54
:1019400062E0962E78E0A72EECE06E2EF4ECCF2E1F
:10195000F6E3DF2EE12CF12C3AC0839423E0281526
:1019600060F1B4D9B0D984E527D9C8010ADA6FD9B2
:10197000E1E0BE1231C08FEE90E0C6D964E0809104
:10198000370190913801CDDB0E9489048AEE90E006
:10199000BBD98091750190917601F3D98EEB80933C
:1019A0002F01A7B8A8B814B815B888EE93E0CDDD1C
:1019B000F4E0BF1691F28B3080F288EE93E0C5DD43
:1019C0000F5F1F4F0830110511F418E71CC1812C5F
:1019D000B02EB0E27B2EC5CFF2E0BF1241C0209105
:1019E000330130913401A8E5BBE10E948037A701A3
:1019F00096010E94093881E085B985E084B980E0CC
:101A0000288B398B4A8B5B8B36DD288939894A894B
:101A10005B89821B930B9A83898381E184B980E07F
:101A2000288B398B4A8B5B8B26DD288939894A893B
:101A30005B89821B930B9C838B8384E085B984E153
:101A400084B981E0288B398B4A8B5B8B14DD288924
:101A50003989821B930B9E838D8384ED90E0B7C000
:101A600093E0B91229C095B8EAE0E4B980E003DD5B
:101A700020913301309134013695279538872F8393
:101A8000821B930B9A838983F2E2F4B980E0F3DC42
:101A90002F813885821B930B9C838B83A5B828E20A
:101AA00024B981E0E8DC2F813885821B930B9E836B
:101AB0008D8386EC90E08BC084E0B81207C08DE483
:101AC00092E022D989DE81115FC287C095E0B91208
:101AD00013C015B894B880E0CEDC9A838983A4B88B
:101AE00081E0C9DC9C838B8374B882E0C4DC9E8374
:101AF0008D8386EE90E06BC0E6E0BE1227C094B8FE
:101B000095B880E0B8DC2091330130913401821B1C
:101B1000930B9A838983A4B8A5B881E0ACDC2091AB
:101B2000330130913401821B930B9C838B8374B8F7
:101B300075B882E0A0DC2091330130913401821B22
:101B4000930B9E838D8382EE90E041C0F7E0BF123D
:101B500040C02091330130913401A8E5BBE10E94DF
:101B60008037A20191010E94E73795B883E084B9DC
:101B700080E0288B398B4A8B5B8B7DDC2889398907
:101B80004A895B89821B930B9A838983A5B864B8C1
:101B900081E0288B398B4A8B5B8B6DDC28893989F6
:101BA0004A895B89821B930B9C838B8375B890E376
:101BB00094B982E0288B398B4A8B5B8B5CDC28895B
:101BC0003989821B930B9E838D8380EC90E09CD897
:101BD00004C0E1E0BE1609F4E4CE0E9489048981C4
:101BE0009A81C4D834D88B819C81C0D830D88D815B
:101BF0009E81BCD8D6CE6AD88DE492E085D884E6A2
:101C00000EDC115019F0E8DD8111F5CF0E94B70408
:101C100085EB90E079D823E044E06FEF80913501C7
:101C20009091360173DA0E9489048EEA90E06CD8B4
:101C300023E044E06FEF80913C0190913D0166DA32
:101C400082E080934201BEDC10921E010E94B70424
:101C50008AEA90E059D860E082E00E943E198090C4
:101C60007F0190908001A0908101B09082019C86BC
:101C70008B8661E082E00E943E19C0907F01D09087
:101C80008001E0908101F0908201DE86CD8660E0E7
:101C900081E00E943E1900917F01109180011E8316
:101CA0000D8362E080E00E943E1980917F01909157
:101CB00080019C838B8362E081E00E943E198091C9
:101CC0007F01909180019A87898761E080E00E947E
:101CD0003E1980917F01909180019A838983EF85DD
:101CE000E13021F020913B01223021F402969887C7
:101CF0008F8304C098878F8310923B01C4014AD818
:101D0000C60148D8B801882777FD8095982F03E051
:101D100026E444EF0CD96E01FFE0CF0ED11CFE018A
:101D20003196819191910A97853B9105F0F4EC15DC
:101D3000FD05B9F7ABE4EA2EA3E0FA2E8E010F5FA2
:101D40001F4FF80160810E5F1F4F6E5EC7010E943A
:101D50002639FFEFEF1AFF0A0C151D0591F70E94B7
:101D6000890480EB91E00E94840682E08093420126
:101D700029DC0E94562E2F85213029F080913B01CD
:101D8000823009F0E9C0E0E4BE2E10E0FAE0CF2E88
:101D9000D12CE12CF12CB2DC0E94B70480E00E942F
:101DA000250686E591E00E94840682E00E942506D1
:101DB0008FE190E00E94840610921E0160E082E0B4
:101DC0000E943E190091890160917701709178011C
:101DD0008091790190917A01073F44F4A70196011F
:101DE0000E94E7370F5FB901CA01F6CF009389015E
:101DF00060937701709378018093790190937A01D1
:101E0000073F09F093C0DC01CB0180569109A1097D
:101E1000B10980399545A105B10508F087C06091E9
:101E20008B0170918C01CB018B569F4F8B3291406F
:101E300008F07CC01F5F153008F479C082E593E09C
:101E40000E9434390E94B70488E190E00E94840621
:101E500080918B0190918C010E94B606D6DB88E0C0
:101E600088B989E087B980E284B982E010DB853DDA
:101E70009340DCF714B8109232011092310182E0E5
:101E800006DB8C0180917101909172019093320177
:101E90008093310182E0FBDA7C01EE0CFF1C109292
:101EA00032011092310182E0F2DAC0907101D090DB
:101EB0007201D0923201C0923101080F191F0E1920
:101EC0001F090E94890481E190E00E94840684E554
:101ED00093E00E94193973E0B72EB80E9601D8012D
:101EE0000E948F379701442737FD4095542F0E9459
:101EF0000938B20E6B2D84E593E00E9426398B2DB4
:101F0000992787FD90950E94B6067FDB82E080933B
:101F1000420158DB10923B018BE493E00E94193997
:101F2000682F8EE493E00E94263916C010E00E94CC
:101F30008904609177017091780180917901909185
:101F40007A0104E026E4409189010E94970788E223
:101F500066DABA9409F01FCF89E180932F010E94BD
:101F600051310E94B70480E091E00E9484060E94F3
:101F7000890484E492E00E94840610921E0182E0AB
:101F8000809342011FDB03C052E0852E26CE63966C
:101F9000E2E10C949F3880913B0181110DC08BE4EC
:101FA00093E00E94193961E0680F8EE493E00E948B
:101FB000263981E080933B010895CF92DF92FF9212
:101FC0000F931F93CF93DF931F92CDB7DEB7E82F08
:101FD000F0E0E45BFE4FE491E8B9E860E7B915B8DA
:101FE000E62FF0E0E75BFE4FE491E4B908E813E187
:101FF000FE2EFF0C862F69833EDA6C01F4B86981EE
:102000008017910710F48C01F5CF0097E9F00E943A
:10201000930486E391E00E948406D60120EA36E824
:1020200041E050E00E94953728E937EB40E050E06E
:102030000E94E737DA01C90122E041E467EF66D880
:1020400088E087B988B914B80F90DF91CF911F91BC
:102050000F91FF90DF90CF9008950F931F93CF9330
:10206000DF9385E014DA85E00EDA8C01EC01CC0F09
:10207000DD1FCC0FDD1FE29610923901C43883E0DA
:10208000D80750F484EA91E00E9484060E943A0640
:1020900081E08093390125C083EB91E00E948406A2
:1020A00062E0CE013ED80E942706023A83E018077C
:1020B00090F40938134060F488EB92E00E948406A3
:1020C0000E943A068DECABD95E988AECA8D909C07B
:1020D0008FEB92E002C080EB91E00E9484060E94A8
:1020E0003A06DF91CF911F910F910895A9E1B0E0D9
:1020F000ECE7F0E10C948338982E862E4983A8955E
:10210000E62FF0E0E75BFE4F449033962491288B56
:10211000E42FF0E0E75BFE4F6490E82FF0E0E75B30
:10212000FE4F7490339634913A8338603F8728602D
:102130002E8765B8462D44294E8344B937B95A8154
:1021400058B9862FA0D99987888744B8882D9BD9FC
:102150001C0114B84ED915B86E8164B9882D93D975
:10216000A885B9858A179B0730F5805E9E4FA81712
:10217000B90708F4CFC4BE85B7B988E088B975B887
:10218000872D862984B9E0913301F0913401F987D4
:10219000E887892D78D928853985281B390B398717
:1021A000288774B82090330130903401892D6BD981
:1021B000281A390A08C028853985205E3E4F8217C3
:1021C000930708F4A7C42091520180916C0190E01C
:1021D000820F911D02974CF0213009F09BC4909121
:1021E0004F0180916901981395C4562C550C488570
:1021F00059854437510508F4A8C0CA01880F991FB2
:1022000044962816390608F0A0C05F8557B96A8140
:1022100068B9852D842984B9882D31D98C018981AB
:1022200036D97C0155B8882D2AD99801295A3D4FB5
:10223000572828173907D8F588E088B97E8577B9F7
:1022400054B855B889811BD988349F4028F085E05F
:1022500080931E0182E204C085E080931E0184E227
:1022600080931D011093480100934701E016F10689
:1022700040F4C8018E199F0990934E0180934D013F
:1022800004C010924E0110924D019801A0E1B7E2F6
:102290000E948037209118013091190140E050E0F0
:1022A0000E94E73730934A01209349012AC488E00D
:1022B00088B9BE85B7B954B855B8892DE0D88C0116
:1022C0008981E5D87C0175B8892DD9D8895A9D4F67
:1022D0008017910708F01EC4EA81E8B9FF85F7B9B5
:1022E0008981CDD8813D934028F485E080931E01FB
:1022F00082E304C085E080931E0184E380931D0186
:102300000E151F0538F4E01AF10AF0926801E09208
:10231000670104C010926801109267012091330197
:1023200030913401201B310BA0E1B7E20E948037CD
:1023300020911F013091200140E050E00E94E737DA
:102340003093640120936301ADC188E088B93E8574
:1023500037B975B8472D46294C8344B9892D93D890
:102360009B878A87009133011091340189818FD82E
:102370005C018A30910550F514B881E050D8852D64
:10238000872984B9892D7FD89B878A8760913301FB
:1023900070913401681B790B798F688F898177D8A8
:1023A0005C0180911F01909120019C0140E050E070
:1023B00060E871EA83E09CE10E94E737A88DB98D5F
:1023C0000E949537950140E050E013C0C801AA85EE
:1023D000BB858A1B9B0B998F888F9C012A193B090F
:1023E000A4E6B0E00E948037850120E030E0A9013A
:1023F00098010E94E73769017A0114B815B8BA81CB
:10240000B8B9EF85E7B981E00AD8F9EB2F16F7E004
:102410003F0608F07FC32E8124B9882D34D88F352C
:102420009D4008F445C114B881E00E940F0A4E8116
:1024300044B981E00E940F0A552D54295B8B54B991
:10244000882D21D88C01898122D89A8B898B892D5E
:102450001ED89D878C8769897A89613D774008F409
:10246000AFC084E080931E018DE080931D01201693
:10247000310630F4D801A219B309BB83AA8302C084
:102480001B830A834090180150901901612C712C14
:1024900060E871EA83E09CE1A30192010E94E737C2
:1024A000AA81BB810E949537E989FA899F0140E0A2
:1024B00050E00E94E73780916C01882369F0809199
:1024C0005D0190915E01A0915F01B0916001821762
:1024D0009307A407B50708F520935D0130935E01CB
:1024E00040935F01509360019801A0E1B7E20E9420
:1024F0008037A30192010E94E73730936401209353
:1025000063018C859D8529893A89821B930B909361
:1025100062018093610121E001C020E080915D01B2
:1025200090915E01A0915F01B09160018C159D05B5
:10253000AE05BF0528F5C0925D01D0925E01E09224
:102540005F01F09260018A859B858A199B099093AF
:10255000620180936101288D398DA0E1B7E20E946C
:10256000803720911F013091200140E050E00E940F
:10257000E737205F384D309364012093630103C037
:10258000222309F48CC39101A0E1B7E20E948037B5
:10259000A30192010E94E737309366012093650101
:1025A00028853985A0E1B7E20E948037A301920116
:1025B0000E94E737309368012093670121E06FC3E1
:1025C00031E62316310408F073C0013D47E01407DB
:1025D00008F46EC085E080931E0182E180931D01A6
:1025E000C80186509F4F6C857D858617970720F41C
:1025F00083E180931D011CC08C859D8508171907F8
:1026000098F4A0911801B09119019C01201B310B85
:102610000E948037980140E050E00E94E7373093F5
:1026200062012093610104C0109262011092610165
:1026300098899770D92E8981806480937C00FBE013
:10264000CF2E01E010E0EE24EA94A3E0FA2EA89544
:1026500061E0862D30D5AB89A4B986B18D21E9F32F
:1026600044B880917A00806480937A0080917A00E7
:1026700086FDFCCF8091780090917900F701E81BEE
:10268000F90B0E0F1F1FCA9411F7C801880F991F6D
:10269000880F991F69E070E00E94C037709368014D
:1026A0006093670180916C018F5F80936C0186CF8E
:1026B000FE81F4B965B8882D0E94430A9F838E83FA
:1026C00089810E94470A9B878A87409133015091F4
:1026D0003401481B590B4A30510560F514B881E0AC
:1026E0000E940F0A852D842984B955B8882D0E942F
:1026F000430A9F838E8389810E94470A9B878A872A
:1027000080911801909119019C0140E050E060E82F
:1027100071EA83E09CE10E94E737AE81BF810E94AD
:10272000953720913301309134014A855B85241B14
:10273000350B09C02E813F81241B350BA4E6B0E088
:102740000E9480379A0140E050E00E94E73769011B
:102750007A015E8557B988E088B96C8164B965B93A
:10276000892D0E94430A8C0189810E94470A5C01DD
:10277000882D0E94470A9C01003371E1170708F079
:10278000C6C175B8892D2E8B3F8B0E94430AAC01C0
:1027900074B8892D4C8B5D8B0E94430A9A8B898B70
:1027A00015B881E00E940F0A75B8892D0E94430A6E
:1027B0002E893F894C895D8969897A8960347640A0
:1027C00008F057C08133914108F453C0C8018A56BC
:1027D0009F4F4817590708F04CC086E080931E01B0
:1027E000809152018F5F80935201C501821B930B30
:1027F0009093480180934701021B130B10934E01E5
:1028000000934D0114B815B8E889E8B981E00E9439
:102810000F0A74B8892D0E94430A853F910508F07C
:102820004DC2FC81F4B989810E94430A813D9340E5
:1028300008F444C2892D0E94470A8D3D924008F455
:102840003DC274B8892D0E94430A8D3D924008F420
:1028500035C275B881E00E940F0A15B8892D0E9413
:10286000430A853F910508F029C287E080931E0145
:1028700025C25C8154B955B981E00E940F0A5728DE
:1028800054B855B8892D0E94430A5C016091330108
:1028900070913401681B790B7A8B698B89810E9456
:1028A000470A9D878C878091330190913401AC85D4
:1028B000BD858A1B9B0B9D838C83882D0E94470AB4
:1028C0008C01EC81FD81EE3FF94008F4B1C084E059
:1028D00080931E018CE080931D0149895A8924163A
:1028E000350620F45A01A218B30802C0A988BA8894
:1028F00040901F0150902001612C712C60E871EA1A
:1029000083E09CE1A30192010E94E737D5010E9478
:102910009537AC81BD819D0140E050E00E94E737D2
:1029200080915201882369F0809143019091440184
:10293000A0914501B091460182179307A407B507FE
:1029400000F5209343013093440140934501509397
:1029500046018C859D85801B910B90934801809347
:10296000470129893A89A0E1B7E20E948037A30193
:1029700092010E94E73730934A012093490121E0F8
:1029800001C020E08091430190914401A091450154
:10299000B09146018C159D05AE05BF0530F5C0927E
:1029A0004301D0924401E0924501F09246018A85AC
:1029B0009B85EE81FF818E1B9F0B90934801809336
:1029C00047019F01A0E1B7E20E94803720911801E2
:1029D0003091190140E050E00E94E737205F384D08
:1029E00030934A012093490103C0222309F467C1AF
:1029F0009101A0E1B7E20E94803720911801309147
:102A0000190140E050E00E94E73730934C012093D9
:102A10004B0128853985A0E1B7E20E948037A301E8
:102A200092010E94E73730934E0120934D0146C139
:102A3000F1E62F16310408F06AC029893A89293451
:102A40003D4008F464C085E080931E0182E08093DD
:102A50001D01C80186509F4F8A159B0520F483E015
:102A600080931D011CC00A151B05A8F4A0911F012D
:102A7000B09120019501201B310B0E948037A9895C
:102A8000BA899D0140E050E00E94E7373093480149
:102A90002093470104C010924801109247010A8117
:102AA00007708981806480937C001BE0EE24E394AE
:102AB000F12CA89560E0862DFED254B855B886B1A9
:102AC0008023E9F774B880917A00806480937A005B
:102AD00080917A0086FDFCCF8091780090917900FA
:102AE000E80EF91E115029F7C701880F991F880FAA
:102AF000991F69E070E00E94C03770934E016093A7
:102B00004D01809152018F5F80935201D7C088E0C0
:102B100087B988B914B815B888E087B9B7EC2B160F
:102B2000B1E03B0608F4AFC088B918EC0E85EF851C
:102B30000E2B07B981E00E940F0AFE85F7B9892D97
:102B40000E94470A429710F0115099F7542C550CE7
:102B5000372C330C34B835B861E0862DACD2892DD2
:102B60000E94430A9D838C8354B815B82F8527B9DA
:102B70003A8138B960E0862D9ED2E0903301F09022
:102B80003401882D0E94430A8C0144B8892D0E948B
:102B9000430A6C01882D0E94470AC81AD90A88E0A6
:102BA00088B94E8547B974B875B861E0862D83D26F
:102BB000892D0E94430A5C01882D0E94470AA81AA9
:102BC000B90ACA14DB0438F434B835B8892D0E9428
:102BD000430A650119C09701201B310B3D832C83EB
:102BE00054B815B83F8537B94A8148B960E0862D99
:102BF00062D20091330110913401882D0E94430A62
:102C0000B801681B790BCB01960127593109293886
:102C10003141C8F58C159D05B0F58C819D8153E03F
:102C2000969587955A95E1F7893C910510F088ECC7
:102C300090E02C813D81820F931F8C159D0518F526
:102C4000C60144E0969587954A95E1F78217930768
:102C5000D0F480911E01833018F483E080931E012C
:102C600080911C01E82FF0E0DF01A357BE4F9C923A
:102C700016968C92EE0FFF1FE756FE4FD182C08250
:102C80008F5F80931C01682D892D28D088E087B93B
:102C900088B914B815B86996E2E10C949F38809110
:102CA0006C018F5F80936C01222381F33981309313
:102CB000690180926A0190926B01E8CF21E08091D6
:102CC00052018F5F80935201222301F34981409387
:102CD0004F019092500180925101D8CFA0E0B0E016
:102CE000E4E7F6E10C948538982E862EA895E62F19
:102CF000F0E0E75BFE4F549033962491E82FF0E02C
:102D0000E75BFE4FE4903396F49030916C01809134
:102D1000520190E0830F911D892B09F0C7C1A8953E
:102D20008091220190912301880F991F880F991F8C
:102D300090933401809333018091710190917201DD
:102D4000880F991F880F991F90933201809331014A
:102D50008EEB80932F0188E088B9286027B9E4B80A
:102D6000E5B858E1D52EC0E0D0E0882D0E94430A96
:102D7000782E692E892D0E94470A8C018C1B9D0B91
:102D800097FF03C091958195910903972CF0A89521
:102D9000DA94E1F1E801E9CFEE0C15B8E4B8892D39
:102DA0000E94430A8135910588F5E5B8892D0E9476
:102DB000430AEC018F2D886087B9F8B815B854B86C
:102DC00088E1482EC12CD12C892D0E94430AB82EAF
:102DD000A92E882D0E94470A7C019C012C193D09CF
:102DE00037FF03C03195219531092330310514F5A2
:102DF000550C54B8882D0E94430A6C01003C94E4A1
:102E00001907E8F4C53881E0D807E8F0809122017D
:102E1000909123019093340180933301809171014B
:102E200090917201909332018093310189E18093F6
:102E30002F013CC1A8954A9449F36701C5CFC03B17
:102E40009DE4D90718F784EAE81682E0F80608F04E
:102E500063C098E9C916D104C8F2009133011091FA
:102E600034019E01A8E9B7EB0E94803798012C1B22
:102E70003D0B40E050E00E94E73729013A019801FC
:102E80002C193D09A8E9B7EB0E948037860120E0A4
:102E900030E0A90198010E94E737C837DF4070F49D
:102EA000C301B201B2E0660F771F881F991FBA9560
:102EB000D1F7620F731F841F951F12C098E7C916C0
:102EC0009FE0D906A0F4CA01B901A2E0660F771FFE
:102ED000881F991FAA95D1F7640D751D861D971D32
:102EE00025E030E040E050E00E94E73708C0240DC4
:102EF000351D461D571D5695479537952795A4E6D0
:102F0000B0E00E9495376B017C018CEAC80E8DE021
:102F1000D81EE11CF11C73C0272D362D0217130794
:102F200008F49801CB2DDA2DCE15DF0508F4E70162
:102F300059012017310708F45801A0911F01B091E1
:102F40002001C501821B930B9C010E9480372091B8
:102F50003301309134012A193B0940E050E00E94CE
:102F6000E73729013A018E01EC16FD0608F48701C6
:102F7000A0911801B09119019E01201B310B0E94F4
:102F800080376801E12CF12CA70196010E94E737F8
:102F900098E7A9169FE0B90670F4C301B201E2E018
:102FA000660F771F881F991FEA95D1F7620F731F6D
:102FB000841F951F11C008378FE01807B0F4CA01AD
:102FC000B90152E0660F771F881F991F5A95D1F7F4
:102FD000640D751D861D971D25E030E040E050E032
:102FE0000E94E73769017A010AC069017A01C40CBD
:102FF000D51CE61CF71CF694E794D794C79410915F
:103000001E01143008F002CF9A94980C892D90E09C
:10301000EC01C95ADE4F2881880F991F880F991F2C
:10302000FC01EA55FE4F2223D1F14080518062809D
:103030007380A7019601241935094609570957FFDE
:1030400007C050954095309521953F4F4F4F5F4FAA
:10305000AAE0B0E00E949537A30192012C593F4F9E
:103060004F4F5F4F2C0D3D1D4E1D5F1D0E94E737DA
:10307000232B242B252B09F0C9CE133019F081E026
:1030800080931E0182E0888380917301E82FF0E035
:10309000E65AFE4F90828F5F80937301B7CEC08255
:1030A000D182E282F38281E08883B0CECDB7DEB7F1
:1030B000E0E10C94A138CF93C82FC09595B160FF83
:1030C00002C0982B01C09C2395B994B1982B94B958
:1030D00082E00E940F0A84B18C2384B985B18C23CD
:1030E00085B9CF910895A0E0B0E0E9E7F8E10C944C
:1030F0008B388AE0D82E98E0C92E2FE3A22E39E033
:10310000B32EC7B8C8B815B8A4B880E00E94430A67
:103110008C0181E00E94470AEC0182E00E94470A8C
:1031200020911E01293081F428E027B914B81093AA
:10313000060100930501D0930801C0930701909305
:103140000A018093090155C00430110540F4C430D0
:10315000D10550F48430910538F329E009C0083EC8
:10316000134010F028E001C029E0C83ED34008F425
:103170002260883E934008F4246027B9C0E0D0E084
:10318000A89580E00E943B0A7C0181E00E94470AEA
:103190008C0182E00E94470A24E1E21625E0F20653
:1031A00008F4389A043135E0130708F4399A843169
:1031B00025E0920708F43A9A36E0E316F10428F481
:1031C0000630110510F4069738F02196C43F81E0CF
:1031D000D807B1F6B0921E0100E010E00C171D07F1
:1031E00029F00E94FE090F5F1F4FF8CFDA9409F013
:1031F00088CFCDB7DEB7EAE00C94A738CF92DF9244
:10320000EF92FF92CF932091770130917801409116
:10321000790150917A01C09189018AE0C82ED12CA0
:10322000E12CF12C8C2FCF5F213A96E8390791E001
:103230004907510538F0CA01B901A70196010E945A
:10324000E737F0CF80938901A0913301B091340129
:103250000E94953728E833E140E050E00E94E737CC
:1032600020937701309378014093790150937A014C
:10327000CF91FF90EF90DF90CF900895A4E0B0E061
:10328000E4E4F9E10C948938982E862E8FEF860FAE
:10329000992D990F990D890F80935401E92DF0E034
:1032A000E75BFE4F1491862F90E0FC01E75BFE4F39
:1032B000F490FC01E45BFE4F049180911E0181308B
:1032C00009F4ABC280911C0123E931E069E971E0A6
:1032D000D9019A2F921B9817A0F49D9198110EC0B6
:1032E000AD0147505109FA019081991107C0FB01C6
:1032F000408151814C3D554008F48FC26E5F7F4F35
:10330000E8CF0860109284011092830181EF8093CE
:103310008901109277011092780110927901109230
:103320007A01E1DE88E088B907B9F4B8F5B8892DEB
:103330000E94470A7C01882D0E94470AE81AF90A70
:1033400014B81092560110925501C12CD12C209125
:10335000550130915601243F314050F515B914B94B
:103360000E94F80914B815B80E94FF09A895892D84
:103370000E94470A6C01CE18DF0820915501309158
:1033800056012E37310528F02BE4C216D1040CF477
:103390003FC28DE2C81681E0D80684F480915501C1
:1033A0009091560101969093560180935501CFCF8D
:1033B000EDE2CE16E1E0DE060CF42AC220915501C2
:1033C00030915601232B21F0C60100E010E006C029
:1033D000F5E1CF16F5E0DF06BCF385C0209155017D
:1033E000309156012017310758F00E94F909892DB4
:1033F0000E94470A8E199F09A8950F5F1F4FEECFB5
:103400008601081B190B1016110694F4093C1105CE
:103410000CF0FEC128EE33E0D8010E948F379601F0
:10342000442737FD4095542F0E94E737790102C0A9
:10343000E12CF12CA0905501B09056012FEFA21A6B
:10344000B20AC501A0E0B0E080937F0190938001B3
:10345000A0938101B0938201C601800F911F29D2F0
:103460009C01D5010E94803760937F017093800199
:10347000809381019093820160937701709378012A
:103480008093790190937A0187EF80938901B6DE6A
:1034900020917701309178014091790150917A0122
:1034A0008EE293E029833A834B835C830E9419392F
:1034B000A8EEB3E0A81BB10987FDB39529813A8135
:1034C0004B815C810E949F3724E630E040E050E071
:1034D0000E94E73720937701309378014093790178
:1034E00050937A0153C1FFDD15B88FE087B988E0AA
:1034F00088B9F12EFF0CF4B880E480937B0084E55A
:1035000080BF892D806480937C0086E180937A005F
:103510000E94020A109256011092550110928000EA
:10352000109285001092840087E286BB81E280932E
:103530006F0091E090937401F5B880911E01909313
:103540008100853059F481E090E0092C01C0880F9A
:103550000A94EAF780958F7087B901C007B9F8948B
:1035600083B7817F83BF80917401882389F083B7FB
:10357000816083BF7894889583B78E7F83BFF894EA
:10358000A89580915501909156018034964059F745
:10359000789410928100E0908600F090870010925D
:1035A0006F0086E980937A0014B815B8892D0E94BF
:1035B000470A2091370130913801821B930B0C96FA
:1035C00090938C0180938B018091550190915601CD
:1035D0008032934008F01CC18091550190915601B2
:1035E0009093820180938101F0928001E0927F01AB
:1035F00084EF809389018091550190915601823426
:103600009105C8F060917F017091800180918101E6
:103610009091820124E630E040E050E00E94E737DC
:1036200020937F0130938001409381015093820168
:1036300086EF80938901A0917501B0917601209168
:103640007F013091800140918101509182010E945F
:10365000953720E233E040E050E00E94E7372093C6
:103660007F01309380014093810150938201209328
:103670007701309378014093790150937A01BEDD50
:1036800080918901843F09F071C0C0907701D0908A
:103690007801E0907901F0907A0120EAC2162FE0DB
:1036A000D206E104F104C0F4A70196012C543F4F67
:1036B0004F4F5F4F60EA7FE080E090E00E94E73785
:1036C0002C0D3D1D4E1D5F1D209377013093780119
:1036D0004093790150937A01C0907701D09078019E
:1036E000E0907901F0907A01C114D10481E0E806FC
:1036F000F10428F4D092B701C092B60106C081E06F
:1037000090E09093B7018093B6018091540190E0CE
:10371000855B9C4F0E941939482F50E060E070E0B3
:103720004C155D056E057F0568F4C41AD50AE60AD6
:10373000F70AC0927701D0927801E0927901F09275
:103740007A0114C094E1C90ED11CE11CF11CC4160D
:10375000D506E606F70610F40E94CB0F109277010B
:10376000109278011092790110927A0114B9809127
:10377000770190917801A0917901B0917A014997F0
:10378000A105B10508F444C0E12CF12C80911C0185
:10379000882321F080911E018530D1F588E0809347
:1037A0001E012091890180918A018217BCF02813A3
:1037B0002FC040917701509178016091790170910B
:1037C0007A0180917B0190917C01A0917D01B09163
:1037D0007E0184179507A607B707D0F4809177017B
:1037E00090917801A0917901B0917A0180937B0149
:1037F00090937C01A0937D01B0937E0120938A0178
:10380000F0928601E0928501809287019092880172
:1038100088E087B988B914B815B82496ECE00C9400
:10382000A5381F920F920FB60F9211248F939F937A
:10383000B59904C080917401811109C0B59B10C075
:1038400080918600909187008A3F910548F480918D
:103850005501909156010196909356018093550120
:103860009F918F910F900FBE0F901F9018951F92F0
:103870000F920FB60F9211248F939F9310927401A1
:10388000B09B10C080918600909187008A3F91057F
:1038900048F48091550190915601019690935601FC
:1038A000809355019F918F910F900FBE0F901F90A5
:1038B00018950F9221E08C32920710F48CE291E07F
:1038C0008C52914069E170E00E94C03799E16B32FF
:1038D00010F0982F6BE2981BEFECF2E0E60FF11D71
:1038E000E60FF11D9F93CF010E941939482F3196A1
:1038F000CF010E941939582F3196CF010E941939F2
:10390000282F3196CF010E941939382F6F91421B11
:10391000530B649FC001659F900D11240C9669E1C3
:1039200070E00E94C037620F731FCB010F900895A3
:10393000A0E0B0E0EEE9FCE10C94883888E893E17F
:10394000909323018093220190933401809333015B
:103950008EEB80932F01C8E0C8B988E187B90E9437
:10396000070AC7B984E00E94430AAC018B5C984007
:10397000833F9140A0F481E080933E012091330188
:1039800030913401AFEBB9E00E9480379A0140E0FA
:1039900050E00E94E7373093230120932201809169
:1039A00022019091230190933401809333018EE0A2
:1039B0000E94470A8EE00E94430A90933801809348
:1039C00037010E94050B8FDB88E0782E78B8D9E0AC
:1039D000D7B9C1E0C5B9C4B980E00E94430A7C01EF
:1039E0000AE007B914E015B914B981E00E94430A4E
:1039F000E80EF91E9CE0892E87B820E1922E95B83A
:103A000094B882E00E94430AE80EF91E15B8D8B9AE
:103A1000D7B9C4B9C0913301D091340180E00E947C
:103A2000430A5C0108B907B914B900913301109138
:103A3000340181E00E94430A6C0188B887B894B8C9
:103A4000809033019090340182E00E94430AC00FBD
:103A5000D11FC80DD91DCA19DB09CC19DD09C81B36
:103A6000D90B77B878B814B88091330190913401AC
:103A70004C01880C991C880E991E8E189F088C1A70
:103A80009D0AA12CB12C9701A0E9BAE10E948037D0
:103A9000A50194010E94E73769017A0130933D0145
:103AA00020933C019E01A0E9BAE10E948037A50164
:103AB00094010E94E7373093360120933501205757
:103AC000354E3093200120931F0180E7C81A85EE00
:103AD000D80AD0921901C092180189E180932F0170
:103AE000CDB7DEB7EDE00C94A438FF920F931F938F
:103AF000CF93DF93C82FD62FF42E0E94250683E1A3
:103B000091E00E948406E1D16D2F8C2F0E94C12F7D
:103B1000C1E00091BA011091BB012091BC0130912C
:103B2000BD01011511052105310509F0C0E08091A5
:103B3000020187FD02C0C11104C08FE091E00E9424
:103B400084068D2F0E942506C11106C00E942706FB
:103B500080915A010E942A07FF2049F080913F017D
:103B6000823128F490E0815B9C4F0E94840680E0C3
:103B70000E946106C1111BC06091BA017091BB0126
:103B80008091BC019091BD0103E028E447EF0E94C1
:103B9000970782E291E00E94840685E693E00E9406
:103BA000213923E046E464EF0E9486081AC0809120
:103BB0005A010E942A07809102018E3F94F48AE301
:103BC00091E00E94840660910B0170910C0180913C
:103BD0000D0190910E0103E028E4409102010E9442
:103BE00097078091B2019091B301A091B401B09177
:103BF000B501892B8A2B8B2BF1F080E00E946106A6
:103C00006091B2017091B3018091B4019091B501BE
:103C100004E028E440E00E9497078DE191E00E94D3
:103C2000840623E040E26FEF8091B8019091B901E2
:103C30000E94860807C080E00E943F0680914201F2
:103C4000811102C00E943A06CDB7DEB7E5E00C94C0
:103C5000AC380F931F93CF93DF93082F0E94B104CA
:103C6000809187010E94250686E591E00E948406E6
:103C700012D560918701809188015CD39093840173
:103C80008093830111E08A3F9F4F08F010E0C091BC
:103C90008501D0918601112321F084E191E00E94F9
:103CA0008406809188010E942506002359F0909196
:103CB0003F0182E1891B0E94290684E790E00E946F
:103CC000840602C00E943A060E94890460917B012A
:103CD00070917C0180917D0190917E0104E026E449
:103CE00040918A010E949707112369F085E491E0D1
:103CF0000E94840622E044E06EEF8091830190915F
:103D000084010E9486080E943A060E948E04CD2BF0
:103D100069F08EE391E00E94840622E045E26FEFB5
:103D200080918501909186010E9486080E943A0642
:103D3000DF91CF911F910F9108958F7021F40E9410
:103D400093040C942D1008958F3021F49091390133
:103D5000913011F08F5F089580E00895CF938FE741
:103D600090E00E94112AC0E00E947E0B60E082E099
:103D70000E946E1662E080E00E946E160E94B104FE
:103D800080917301882329F041E062E080E0ADDE9C
:103D900012C08FE790E00E94840689E593E00E94BC
:103DA00084060E9489048FE30E94DC0580E00E9463
:103DB0003F060E943A068C2FC0DF88EE93E00E94F7
:103DC000A50A811105C08C2FBFDFC82F8A3F60F282
:103DD0000E94B704CF9108950F931F93CF93DF9361
:103DE000C0E0D8E012EF02E10E947E0B60E082E0CA
:103DF00045DAD0931E0180918901843FE1F440911E
:103E00007701509178016091790170917A0144367F
:103E100051056105710578F440E060E082E00E94A0
:103E2000642D60937701709378018093790190936A
:103E30007A011093890180918901823FACF08093CF
:103E40008A014091770150917801609179017091D8
:103E50007A0140937B0150937C0160937D017093C4
:103E60007E0181E0F6DE1CC00E94B10488E790E08C
:103E70000E94840680913F01902F981B892F0E94F9
:103E8000290684E790E00E9484060E9489048FE35B
:103E90000E94DC050E943A060E948E040E943A06A7
:103EA0008C2F4BDF88EE93E00E94A50A811106C09B
:103EB0008C2F4ADFC82F8A3F08F496CF0E94B704A0
:103EC000DF91CF911F910F910895A3E1B0E0EBE650
:103ED000FFE10C94833882E08093020180911E01FF
:103EE000813009F023C280917301813009F01EC234
:103EF00020905A0124E0229EF0011124EA55FE4F41
:103F000080819181A281B381893032E59307A10537
:103F1000B10508F00BC29B8B8A8B312C61E0822D9E
:103F2000631528F00E942007B82EA92E03C00E9416
:103F300020075C01EA2DF0E0E45BFE4F74908B2DCE
:103F400090E0FC01E75BFE4FE49115B828E028B94A
:103F50002A893B89203F3105A8F430FC13C0009129
:103F600018011091190100591A4121E030E00B2C81
:103F700002C0220F331F0A94E2F7C9018860872923
:103F800087B908C0E4B9872D886087B90091180106
:103F90001091190144E1642E8B2D0E943F0A4C01BF
:103FA0008A2D0E94470A34E08316910410F4049786
:103FB00010F06A9489F760E460937B0084E580BF29
:103FC0008B2D806480937C0086E180937A00E12CC5
:103FD000F12C10928000109285001092840087E2EC
:103FE00086BB0E94020A932D9170998B30FC05C00C
:103FF00081E88093810078B808C078B80E940B0AE5
:1040000080E286BB81E88093810046B345FF13C000
:1040100028E028B91092810080E286BB809186005A
:10402000909187006C012091840030918500821767
:10403000930768F013C040FFE8CF31E036BBA89586
:10404000C70101967C0180359105F9F6E1CF40FF6B
:1040500005C061E066BB8FEFE81AF80A86E9809335
:104060007A0034E1732E8B2D0E943F0A4C018A2D79
:104070000E94470A24E08216910410F4049710F07D
:104080007A9489F780903C0190903D018A899B89C0
:10409000880E991E800E911E20911A0130911B01ED
:1040A00000399AE11907B0F461EEC616D104E104B3
:1040B000F10438F4C60165E070E00E94C037645135
:1040C00001C069E128523109261B310967FD33958A
:1040D00086E009C0C40160EB76E30E94C03787E048
:1040E000860F285D3F4F90E0A0E0B0E08C159D0565
:1040F000AE05BF0528F4C81AD90AEA0AFB0A03C0AC
:10410000C12CD12C76018989882329F092E2C90E2D
:10411000D11CE11CF11C60E5E616F10418F0C12C7D
:10412000D12C76018BE0C816D104E104F10428F00B
:1041300091E0C91AD108E108F1084091330150918A
:104140003401A12CB12CA8EEB3E00E9480372B01E2
:104150003C019801DA010E948037A50194010E9478
:10416000E73744275527C301B2010E94E737C90149
:104170000E945D0BFC01A5019401C701B6010E94DC
:10418000A5374B015C01BF0180E090E023E0660FA2
:10419000771F881F991F2A95D1F76B5F7F4F8F4F2D
:1041A0009F4F2AE030E040E050E00E94E737C50131
:1041B000B4010E94E737832D90E0E1E0F0E0EC0FDE
:1041C000FD1F64E0369EE00DF11D11242083318334
:1041D000428353836989611117C06CE0C616D1040C
:1041E000E104F10488F0FC013196EE0FFF1FEE0FA1
:1041F000FF1F81E090E08C0F9D1FE80FF91F2083C7
:104200003183428353833394A895339493E0931579
:1042100008F084CE88E088B984E00E940F0A21E08B
:104220004D815E816F81788589819A81AB81BC8166
:1042300084179507A607B70708F020E04D855E852F
:104240006F85788989859A85AB85BC8584179507A4
:10425000A607B70710F032E001C033E0E22FF0E02C
:10426000EE0FFF1FEE0FFF1F81E090E08C0F9D1FF0
:10427000E80FF91FDC0194E0399FA00DB11D112456
:104280004D915D916D917C9180819181A281B381ED
:10429000481759076A077B0708F0322FE1E0F0E082
:1042A000EC0FFD1F24E0329FE00DF11D11248081F1
:1042B0009181A281B38180930B0190930C01A09313
:1042C0000D01B0930E0130FD09C02A893B89203FC2
:1042D000310520F48BEF8093020117C02CEF20935F
:1042E0000201BC01CD016B5F7F4F8F4F9F4F2AE0D2
:1042F00030E040E050E00E94E73720930B0130931C
:104300000C0140930D0150930E0180910B0190918F
:104310000C01A0910D01B0910E01892B8A2B8B2BE2
:1043200011F41092020188E087B914B86396E2E1B3
:104330000C949F38AEE1B0E0E0EAF1E20C948338EF
:10434000662EB82E860F898320911E01283059F5DC
:1043500020917B0130917C0140917D0150917E0143
:1043600057FD15C010918A0109C0CA01B9012AE0A0
:10437000312D412D512D0E94E7371F5F173FACF3C0
:1043800091F42A3560E036074105510518F48FEFA6
:104390009FEF7DC1173F39F480E028178DE738077C
:1043A0004105410510F020E03DE72C8B3D8B26EDCB
:1043B000A22EECE4F1E0E60DF11D859188608E8778
:1043C000ECE4F1E0EB0DF11D859188608F87E9E465
:1043D000F1E0E60DF11D7590E9E4F1E0EB0DF11D62
:1043E000C59090EC692AB92A81E0E82EF12C012DC4
:1043F000112D8E831F82188619861A861B861C86AD
:104400001D86188E198E1B8E1A8E0E94731888E0D6
:1044100088B960927C000E94030A3F8537B975B85D
:1044200074B80E940A0A14B815B8DD24A6ED8A2EC5
:104430003E8537B975B874B860927C00A895A09293
:104440007A0080917A0086FDFCCFA0927A0080915C
:104450007A0086FDFCCF2090780030907900B092F1
:104460007C00A0927A0080917A0086FDFCCF809239
:104470007A000E94080A0E940A0AC5B8C4B80E94BD
:10448000090A0E940B0AA895A895A895A89514B8A2
:1044900015B880917A0086FDFCCF2091780030918C
:1044A0007900288B398B3F8537B9C5B8C4B8A89532
:1044B000B0927C00A0927A0080917A0086FDFCCFB9
:1044C000A0927A0080917A0086FDFCCF60917800FE
:1044D0007091790060927C00A0927A0080917A00BD
:1044E00086FDFCCF80927A000E94080A0E940A0A88
:1044F00075B874B80E94090A0E940B0AA895A8957D
:10450000A895A89514B815B880917A0086FDFCCFBF
:10451000409178005091790014B8CB01820D931D21
:10452000E80EF91E011D111DEA82FB820C831D831A
:1045300088899989840F951F2E813F8168857985A7
:10454000280F391F611D711D2E833F83688779876E
:1045500022E32417150650F075B874B80E940D0AAE
:1045600014B815B8888D8395888F07C0483E73E0CE
:10457000570718F08A8D83958A8F8889998928171B
:10458000190660F03E8537B9C5B8C4B80E940D0A57
:1045900014B815B8898D8395898F07C0883E73E05C
:1045A000970718F08B8D83958B8FD3945D2D5F3F8C
:1045B00009F03ECF40903C0150903D01440C551C09
:1045C0009201E4E0240D351DEA95E1F72901570138
:1045D00068016E807F808884998420911E01283034
:1045E000C1F46C897D89812D912D6C537040804080
:1045F00090409B01AC010E94A5379B01AC016FEF7D
:1046000071EC8EE390E00E94E737621A730A840A25
:10461000950AA614B704C804D90428F46A187B08BC
:104620008C089D0803C0662477244301B20180E012
:1046300090E09301A4010E94A5379501A6010E9474
:10464000E7378AE293E07981870F911D0E9419393B
:1046500090E0682EC90160E170E00E94C037260F2B
:10466000371FC9016816190618F4861991090FC079
:104670008C5E9F4F8615910540F48C899D89843905
:1046800081E1980710F00E94CB0F812D912D6E963D
:10469000E2E10C949F38A4E0B0E0E1E5F3E20C9491
:1046A0008B388091850190918601892B09F0B5C0E6
:1046B000E0918701F0E0E45BFE4F04910860E09137
:1046C0008801F0E0E75BFE4F14910E94731888E0C8
:1046D00088B915B807B914B9809188010E94470AB2
:1046E0005C0100918A018CE0800F843008F095C055
:1046F000015F80917B0190917C01A0917D01B0913F
:104700007E012AE0C22ED12CE12CF12CBC01CD017E
:104710006B5F7F4F8F4F9F4FA70196010E94E73736
:104720000F5F073019F0DA01C901F0CF293883E1B2
:1047300038074105510508F070C02530310508F4EF
:104740006CC015B914B900E010E00217130768F443
:1047500029833A834B835C830E94090A0E5F1F4FB3
:104760005C814B813A812981F0CF14B815B8A895A6
:1047700085E080932F018091880129833A834B83C0
:104780005C830E94470A29813A814B815C81A8168B
:10479000B90620F47C01EA18FB0802C0E12CF12CD8
:1047A00000E010E00217130768F429833A834B8373
:1047B0005C830E94090A0F5F1F4F5C814B813A8125
:1047C0002981F0CF809188010E94470A29E1209336
:1047D0002F01A895A816B90618F48A199B0902C0DA
:1047E00080E090E08E159F0588F49701281B390B17
:1047F00069F0A4EFB1E00E948037970140E050E0FB
:104800000E94E73730938601209385010E94731838
:1048100088E087B988B914B815B82496EAE00C94F2
:10482000A738A5E0B0E0E7E1F4E20C94833884E235
:1048300092E0F7D520EF2A8354980E94FE0914BC19
:1048400016BC1092120110921301109214011092D2
:10485000150131E035BB30936E001092800083E18A
:104860009AE790938B0080938A00E1E0F0E0F09368
:104870008900E0938800109285001092840083B52F
:10488000816083BDF6E0F6BBF0936F00789424E07E
:104890002093810012E319820E94F709A8954F998D
:1048A00002C031E0398385B5811127C015BC86B5BA
:1048B000809312010E948E040E943A060E94930483
:1048C0000E943A060E94660686E60E94DC050E9467
:1048D0006906609112017091130180911401909109
:1048E000150147E00E949B0854988091810088231D
:1048F00039F08FE30E94DC0503C0115069F6D6CF72
:104900001092810010926F002091120130911301DA
:104910004091140150911501DA01C9010197A109D3
:10492000B109893D9146A105B10508F029C1AAE068
:10493000B0E00E949537685F7F4F8F4F9F4F23E015
:1049400096958795779567952A95D1F7660F771F86
:1049500070936E0160936D0154980E94FE0916BC1D
:10496000109212011092130110921401109215016D
:1049700081E085BB80936E001092700110926F01F0
:1049800094E09BBB80916800846080936800789479
:1049900080916D00806180936D001D820E94F709F7
:1049A000A8954F9902C0E1E0E98380916D0084FFF2
:1049B00005C0FD81FF5FFD83FA3F81F715BC809143
:1049C0006D008F7E80936D00809168008B7F809357
:1049D000680086B5809312010E948E0484E50E94CF
:1049E000DC050E9469068091120190911301A0914B
:1049F0001401B091150120916D0130916E013C833D
:104A00002B831C012D019C01A20160E070E080E07D
:104A100090E003E00E94C03851016201E12CF12CCA
:104A200000E010E00E94D93859016A017B01E82FAB
:104A3000192F03E00E94C0380E2F0E94D93803E0DE
:104A40000E94C03851016201E12CF12C00E010E01D
:104A50000E94D93802E00E94C03800E00E94D93894
:104A600001E00E94C03800E00E94D93803E00E94B3
:104A7000C038EB81FC815F01C12CD12C00E00E9489
:104A80001F3839014A011B012C012B813C81203840
:104A9000310530F007E023E745EFB301C40116C04C
:104AA00084E6A82EB12CC12CD12CE12CF12C00E0F5
:104AB00010E09301C2010E941F38E22FF42F07E09B
:104AC00023E747EF6E2F732F8F2F952F0E949707A5
:104AD0003D813A3F21F48FE30E94DC0551C09301F0
:104AE000A401B101C2012C393E4C4340510561057E
:104AF00071058105910509F008F442C00E949304F4
:104B000086E60E94DC050E9469069301A401B101BA
:104B1000C201530164017101820121153A4C4A49D5
:104B20005B43610571058105910589F080F020E006
:104B300030E04AE85DE568E775E483E691E00E94CD
:104B40001F38E22FF42F07E028E44AEF0FC020E0DF
:104B500030E846EC54EA6EE77DE883E090E00E949E
:104B60001F38E22FF42F07E028E44CEF6E2F732F4D
:104B70008F2F952F0E9497078AE70E94DC05549893
:104B800010926E0080ED97E00E94A50A2981820FA5
:104B900029F43A8131503A8331114ECE2596E2E123
:104BA0000C949F381F920F920FB60F9211248F937F
:104BB0009F93AF93BF9378948091120190911301CA
:104BC000A0911401B09115019F5FAF4FBF4F80932B
:104BD000120190931301A0931401B0931501BF919A
:104BE000AF919F918F910F900FBE0F901F901895CE
:104BF0001F920F920FB60F9211248F9386E085BDFE
:104C00008F910F900FBE0F901F9018951F920F92CB
:104C10000FB60F921124A8951092810015BC0F9029
:104C20000FBE0F901F9018951F920F920FB60F9204
:104C300011242F933F938F939F9380916F019091B5
:104C40007001892B11F481E085BD20916F013091B5
:104C5000700180916D0190916E012817390730F035
:104C600015BC80916D008F7E80936D0080916F01E7
:104C70009091700101969093700180936F019F91C4
:104C80008F913F912F910F900FBE0F901F9018950D
:104C90008C3008F08C50811103C08EE292E036C057
:104CA000813019F484E292E031C0823019F48BEF44
:104CB00091E02CC0833019F480EF91E027C084305C
:104CC00019F48AE890E022C0853019F48FE790E06B
:104CD0001DC0863019F488E790E018C0873019F4B9
:104CE0008FED91E013C0883019F480ED91E00EC093
:104CF000893019F489EB91E009C08A3019F482E116
:104D000092E004C08B3021F487E092E00E94840698
:104D10000C943A060F93CF938AE890E082D3C0E0D8
:104D200010921E0160E082E098D380911E018830CD
:104D3000C1F50E94890483E40E94DC050E94690693
:104D400060917B0170917C0180917D0190917E0149
:104D500003E026E440918A010E9497070E943A06E8
:104D60006091870180918801E5DA909384018093B6
:104D700083010E948E0486E491E00E948406809163
:104D80008301909184018A3F2FEF920730F422E053
:104D900044E06EEF0E94860808C08FE30E94DC05A5
:104DA00004C00E9466060E948E040E943A068C2F60
:104DB0000E949D1E88EE93E00E94A50A811107C003
:104DC0008C2F0E94A41EC82F8A3F08F4A9CFCF9130
:104DD0000F9108950895A5E0B0E0E1EFF6E20C949C
:104DE00083388BEF91E01DD380E180938000109297
:104DF0006F0081E090E0909389008093880010928A
:104E00008B0010928A0083E086BB1092820088E0BB
:104E10008093810015B891E194B988B989E087B988
:104E2000229A80938100212C1B822AE0298333243B
:104E30003394812C912C5401839411E1822D90E0C4
:104E40000A966EE170E00E94D437662E562E3B81A2
:104E5000631789F00E94B1048BEF91E00E948406F1
:104E6000712C751428F48EE20E94DC057394F9CF3E
:104E70000E943A066B821231C8F0C701B601A50143
:104E800094010E94E7372B013C01832D69810E9428
:104E9000B437A92FB0E0A50194010E9495376B01AA
:104EA0007C01C40CD51CE61CF71C0CC0832D698149
:104EB0000E94B437A92FB0E0A50194010E94953754
:104EC0006B017C010E9489048981381208C081E04D
:104ED000123108F480E08A83811106C001C01A8271
:104EE000163120F48EE303C08CE301C082E50E94FA
:104EF000DC050E942706412FC701B6010E949B08CE
:104F0000C701B6017E5E85489F4FA7019601220F1B
:104F1000331F441F551F0E94E737CA014F3F5105F9
:104F200039F030F08DE08093810080E094E01FC084
:104F30004034510530F08CE08093810080E091E0B6
:104F400016C04830510530F09BE09093810080E41A
:104F500090E00DC0892B31F0EAE0E093810088E019
:104F600090E005C0F9E0F093810081E090E02C0131
:104F7000612C712CCA01B901A30192010E94E7378B
:104F8000C9010197909389008093880080918800DF
:104F900090918900892B31F421E030E03093890031
:104FA000209388000E943A060E948E0486E60E94A2
:104FB000DC050E94270680918800909189009D83DE
:104FC0008C8360E079E08DE390E0A30192010E9480
:104FD000E737A4E6B0E00E949537EC81FD81319679
:104FE0009F0140E050E00E94E73729013A01A4E622
:104FF000B0E0A70196010E949537461A570A680A41
:10500000790A05E228E44EEFC301B2010E94970736
:105010008AE70E94DC050E943A068CED95E00E942A
:10502000A50A882309F443C0863960F010928100F4
:105030001092800088E087B914B822982596E2E1A2
:105040000C949F38813578F1FA81FF23D9F0115003
:10505000C501B4012AE030E040E050E00E94E737AB
:1050600049015A01C701B6010E94E737CA01B901D7
:105070002AE030E040E050E00E94E737362E2AE098
:10508000298331C0163130F51F5F163111F435E137
:105090003983AAE0B0E0A50194010E9495374B0145
:1050A0005C01312C20C08B3008F03394212C832DEF
:1050B00090E0E9816E2F70E06F5F7F4F0E94D437E0
:1050C000382E822D0E94A41E282EFFEEF81708F01D
:1050D000B5CEACCF2AE0298333243394812C912C94
:1050E0005401839411E1212CA9CEA4E0B0E0EBE7B8
:1050F000F8E20C94873880EF91E093D183E28093BB
:10510000800010926F008FEF90E090938B0080935F
:105110008A0083E086BB1092820015B881E184B9D1
:1051200088E088B929E027B9229A81E090E090933D
:105130008900809388002093810010E000E0A2E3C2
:105140007A2E612CB4E6CB2ED12CE12CF12C8824C4
:105150008A9483E0982EA12CB12C7016E9F183E695
:10516000871510F4ECE97E0E272D30E0AFEFB3E0A9
:105170000E9480376E5C7F4F8F4F9F4FA701960133
:105180000E94E73730938B0020938A0029833A836B
:105190004B835C830E948904A8EEB3E029813A81A5
:1051A0004B815C810E94953761507E4F8F4F9F4F9E
:1051B000A50194010E94E737DA01C90125E045E223
:1051C0006FEF0E9486080E943A06F8E2F61518F47E
:1051D0008CE30E940F0A072D80E496E00E94A50A46
:1051E000682E82E8861560F488E087B91092810005
:1051F0001092800014B822982496EEE00C94A33804
:10520000E2E3E61518F4FAE07F0E03C0662011F021
:10521000739410E0812F0E94A41E182F803F08F481
:105220009CCFE2CFCF93DF9389EB91E0FAD089E274
:1052300093E00E941939C82FD0E081E80E94A604AB
:105240008C2F0E94A6040E94890424E040E260E0C2
:105250008C2F90E00E9486080E943A0680E496E037
:105260000E94A50A882331F0823858F4893288F0E8
:10527000CF5FD0E0CF778D2F0E94A41ED82F803F24
:10528000E0F26C2F89E293E00E942639DF91CF9102
:105290000895C158EECF0F931F93CF93DF938FEDF7
:1052A00091E0BFD08EE293E00E941939182F00E000
:1052B0000E948904C12FDD27C7FDD09517FF0BC0C1
:1052C0008DE20E94DC0523E045E26FEF88279927F5
:1052D0008C1B9D0B04C023E045E26FEFCE010E94C2
:1052E00086080E943A0680E496E00E94A50A882378
:1052F00031F0823888F48932C8F01F5F00E0113540
:1053000014F0155603C01C3E0CF41B59802F0E944C
:10531000A41E082F803F60F2612F8EE293E00E946E
:105320002639DF91CF911F910F9108951150E6CF4B
:10533000813011F480E075CA823009F44CCD83309D
:1053400009F4D3CE843009F4E5CC853011F40C9403
:10535000AE1E863021F40E94B7040C94EC1E8730F8
:1053600009F499CF883019F481E10C94FB0B893052
:1053700009F458CF8A3009F4B2C18B3029F45E9811
:1053800080E090E00C94A50A0895FF920F931F937C
:10539000CF93DF9389E392E044D0D0E0C0E01AE0FD
:1053A0001C0FF12C01E00F0D60E0802F0E947C04A7
:1053B00082E0F81204C08EE30E94DC0502C00E9465
:1053C00027061C3018F084EF810F01C0812F60DCAC
:1053D0001F5F063011F0F02EE5CF80E49FE10E94C0
:1053E000A50A8111D0E090913901913009F4D0E003
:1053F000823340F0CC2379F08C2F9ADF89E392E05E
:1054000010D002C08111CF5FDF5FD83720F4CC30DD
:1054100030F2CC50C4CF80E0CDB7DEB7E5E00C94DD
:10542000AC38A2E0B0E0E7E1FAE20C94923889836C
:105430009A830E94B70489819A810E94840614E6A7
:1054400082E00E940F0A4F9902C01150C9F70E94D2
:1054500089042296E3E00C94AE38A4E0B0E0E3E3E4
:10546000FAE20C948838882E762E862F90E0FC0184
:10547000E45BFE4F14911860E82DF0E0E75BFE4F0F
:10548000B490FC01E75BFE4F0491109284011092EE
:105490008301109277011092780110927901109295
:1054A0007A0187EF809389010E94731888E088B998
:1054B00017B904B905B9882D0E94470A8C01872DB8
:1054C0000E94470A081B190B14B81092560110923B
:1054D000550120E030E09CE2E92EFF24F3944AE0FD
:1054E000A42E54E6952E8091550190915601843D4D
:1054F000904308F069C0B5B880915501909156016C
:10550000892B89F06701C21AD30A60915501709105
:105510005601A29EC001A39E900D11240E94C03787
:10552000C616D70650F4B4B80E94020A14B8809187
:10553000550190915601019628C080915501909196
:1055400056010B97C8F06091550170915601929EDB
:10555000C001939E900D11240E94C0376C157D05EB
:1055600058F4B4B80E94F70914B88091550190918D
:1055700056018C599F4F09C0B4B80E94FD0914B858
:1055800080915501909156010A969093560180930F
:10559000550115B80E94040AA895882D0E94470A53
:1055A0009C01201B310B80915501909156018B314C
:1055B000964020F0253231050CF488C02D3281E070
:1055C00038070CF490CF05C02D32F1E03F070CF402
:1055D0007DC08091550190915601019729F42531A4
:1055E00045E034070CF072C000915501109156014E
:1055F000000F111FA80160E070E040937F015093FD
:1056000080016093810170938201C90168E270E0BA
:105610000E94D437C901860F971F0E94591C9C0114
:10562000D8010E94803760937F017093800180933E
:105630008101909382016093770170937801809348
:10564000790190937A010E94FE18209177013091A0
:1056500078014091790150917A018EE293E029839B
:105660003A834B835C830E941939A8EEB3E0A81BF0
:10567000B10987FDB39529813A814B815C810E94F4
:105680009F3720E137E240E050E00E94E737209367
:105690007701309378014093790150937A0188E043
:1056A00080931E0120937B0130937C0140937D0108
:1056B00050937E018091890180938A011092860126
:1056C00010928501709287018092880188E087B9E5
:1056D00088B914B815B82496EDE00C94A438A0E06D
:1056E000B0E0E5E7FBE20C948E380E94B70480E05E
:1056F00091E00E9484060E9489048CEB90E00E9455
:1057000084068CE293E00E94193923E040E26EEFB8
:1057100090E00E9486088DE293E00E94193923E010
:1057200040E26EEF90E00E9486088BE293E00E94D8
:10573000193923E044E06EEF90E00E9486080E9451
:105740008E0485EB90E00E94840623E044E06FEF36
:1057500080913501909136010E9486080E94930441
:105760008EEA90E00E94840623E044E06FEF80918F
:105770003C0190913D010E94860888E99AE30E94CD
:10578000A50A0E94B7048AEA90E00E94840680E598
:1057900093E00E94193990E042970E94CA0681E581
:1057A00093E00E94193990E042970E94CA068DE466
:1057B00093E00E94193990E023E046E464EF4297B9
:1057C0000E9486080E94890483E00E9429068CE4D6
:1057D00093E00E94193990E042970E94CA068FE434
:1057E00093E00E94193990E042970E94CA068BE428
:1057F00093E00E94193990E023E046E464EF429779
:105800000E9486080E948E0488E190E00E9484062F
:1058100082E593E00E9421390E94B6060E9493041B
:1058200081E190E00E94840684E593E00E941939AA
:10583000992787FD90950E94B60660E087E00E9458
:105840007C04F12CDF2CDD0CDF0CE12CDA94FE144F
:10585000D9F1CD2DCE0DD0E0CC0FDD1FCE01835C74
:105860009C4F0E9421398C01CE01815D9C4F0E948A
:105870002139EC018091A501873038F088E99AE35D
:105880000E94A50A0E94B70403C080E00E943F0660
:1058900082EA90E00E9484068F2D0E9425068AE30A
:1058A0000E94DC058E2D0E94250680E00E943F06A6
:1058B00023E040E26EEFC8010E94860823E046E440
:1058C00062EFCE010E948608E39483E0E812BFCF26
:1058D000F394F812B7CF88E99AE30E94A50A0E94D0
:1058E000D308CDB7DEB7E7E00C94AA380895E62FC9
:1058F000F72F903009F49395E5B8C4B8B6EFB0939C
:105900007A00A5E0A0937B00A8E0A093810010920C
:105910008000AFEFA0938500A0938400A6E0A09341
:10592000360010928B0010928A00B3E0AFE3A91BFF
:1059300051E0392F33302AF0A05CBC4F53953350DF
:10594000F9CFB0938900A0938800A0917A00A4FFBA
:10595000FCCFB6EBB0937A00A2E0A0936F00A9E071
:10596000A093810062E0A0E0A0937B00A1E0A0935F
:1059700053008895E5B8C4B884FF19C0A8E10000B9
:10598000AA95F1F7EF93FF93E7B1F8B1A4E0C2FC59
:10599000A2E0C0FCA1E0BF2FBA2BAE2BB8B904B96E
:1059A000A7B9E7B9F8B9FF91EF910AC0DFCFACE131
:1059B00000000000AA95F1F725B9E5B8000004B988
:1059C000A0918400A0918500B0918900A395AB17A8
:1059D00068F7A0917A00A4FFF3CFB6EBB0937A00FA
:1059E0006A9571F76091780070917900308186FD39
:1059F000630F6193308186FD731F80FF7193652F64
:105A00004A9579F710926F0010928100B6E0B0933A
:105A10007A0008958F929F92AF92BF92CF92DF92B9
:105A2000EF92FF92AC016C01E12CF12C560199240C
:105A30008824E52FFF279A01DA010E9480379C0114
:105A40003695279536952795C9019695879596950C
:105A50008795BC01769567956E9FD0016F9FB00DBD
:105A60007E9FB00D1124B901681B790BCB019A01FF
:105A700064E0369527956A95E1F72E0F3F1F240FB6
:105A8000351F40E050E0280F391F411D511DCD0149
:105A900073E0969587957A95E1F7A81BB90B2A0FC5
:105AA0003B1F411D511DC701B6010E94A537680D5E
:105AB000791D8A1D9B1DFF90EF90DF90CF90BF90C6
:105AC000AF909F908F900895A6E0B2E0EAE6FDE2E5
:105AD0000C948338782ECE5FDD4F6883C250D2405D
