:10000000B7C30000C7C30000C5C30000C3C30000DE
:10001000C1C300000C944026BDC300000C94730BB8
:10002000B9C30000B7C300000C94571C0C942426DD
:100030000C9432260C94311CADC30000ABC30000FD
:100040000C94FE25A7C30000A5C30000A3C30000B5
:10005000A1C300000C94740B9DC300009BC300005F
:1000600099C3000097C30000870589058D05970592
:1000700095059105910593059D059D05C600BD005B
:10008000B4001008407E01013E01013E01013E0125
:10009000017E404018000720080808F800000020F2
:1000A00060A03FA06020020202FF020202101010B6
:1000B0001F0000000708FFDBBDB5B5CBFF0708FF39
:1000C000BB9DADADB3FF0708FFFFF7FB81FFFF103E
:1000D000100508F878385888091003081C3E7F0D71
:1000E000080710FF818181F1E1C1FF404040474393
:1000F000410D080110FFFF11080310F1E1C1474352
:10010000410E0008202121122060E0E0E0FEFE0404
:1001100002010001037F7F21C2C4C4C04094840057
:1001200007030102040E080210FEFE7F7F0000009C
:1001300000110005202060E0E0E00201000103C2A0
:10014000C4C4C0400703010204010410090A0C4E94
:100150006F742063616C696272617465642100B9B7
:1001600003870358032E030703E402C302A4028893
:10017000020000140029003E00530069008000972F
:1001800000AE00C600DF00F80012012D0149016534
:10019000018201A001BE01DE01FF012102440268CB
:1001A000028E02B502DE020903350364039403C81C
:1001B00003FE0337047304B404F90443059305EA0A
:1001C000054906B3062907AE074808FF08DE0900FF
:1001D0000000000000000000000000000000001E01
:1001E0002121211200807F0000007E4A4A4A34000B
:1001F0000000000000FC4020100804020100000084
:10020000010101010101010101010101017F0488D6
:10021000D0E0F0F800000000000000000000000046
:10022000000000000000FC94948400000102FC0027
:1002300000000000000000000000001E212121122B
:10024000E0C0804020100F000000C02020204000AF
:100250000000FC00009E9E04030303030200000054
:10026000202023242525232020203F00007B7B21E4
:1002700042840480C0000000000000000000000074
:10028000000000FC94948400040607070708F000AF
:10029000000000000000000000000000803F21215D
:1002A000120C00000000FF000000F0084848C800E1
:1002B00000FE0000E7818181C1E1F18181810100BF
:1002C0002020202121212020203F0000F340404019
:1002D00041434740407FC000000000000000000094
:1002E0000000000000489494946400000000FF00A7
:1002F0000000000000000000000000000000003FBF
:100300002121120C0000FF000000F0084848D00036
:100310000000000000FEFE040404040404040700BE
:1003200008080809090908087F3E1C08087F7F2083
:10033000202020202020E00000000000000000001D
:100340000000000000000048949494640000FF0046
:1003500000000000000000000000FF003C0A090A45
:100360003C002231292926000082868E9EBEFEFE98
:10037000BEDEEFF6FAFEFEFAF2E2C28200000008EC
:10038000080804027984A4A46800FF0000000000AB
:10039000000000000000000000000000000000005D
:1003A0000000FF0000F0282428F0001008FC0000E6
:1003B000000000000000000000003C0A090A3C00A8
:1003C000FF0000000000000000000000000000002E
:1003D000000000040C1C3C7CFF7C3C1C0C04000056
:1003E000000000009EA1A9A99A804323130B0703D4
:1003F000FF030303030303000000000000000000EC
:100400000000788484844800FF00000000000000A1
:100410000000F00804E2110909090909090909099C
:100420001121C2040810E0000000010204040700CA
:1004300000000000804020108844231008040300BE
:1004400000000000000000000000FE0100FC0201AE
:10045000000000000000000000000000000000009C
:100460000000794949790000000000000000000800
:100470003E22223E08087F2214087F7F0814227F34
:10048000087F7F00007F7F00586404645800807CF0
:1004900020201C22222222223E3E22222222220828
:1004A000080808080838404030404030404030409C
:1004B00038007E1515150A00062979290600000066
:1004C00000000000607E0A353F002A1C361C2A000E
:1004D000E0514F41FF007F404040FF007F407F40A0
:1004E000FF00E0544C44FC0018247E2418007C409B
:1004F0004040FC007C407C40FC0014B6FFB6140079
:1005000004067F06040010307F30100008083E1CEF
:100510000800081C3E080800784040404000083EA3
:10052000083E0800303C3F3C3000030F3F0F030003
:1005300000000000000000005F0000000003000356
:100540000000147F147F1400242A7F2A1200231332
:10055000086462003649552250000005030000007F
:10056000001C224100000041221C000014083E082B
:10057000140008083E08080000A0600000080808F1
:10058000080800000060600000002010080402005D
:100590003E5149453E0000427F40000042615149C2
:1005A00046002141454B31001814127F10002745A9
:1005B000454539003C4A49493000017109050300AD
:1005C000364949493600064949291E000036360099
:1005D00000000056360000000814224100001414E8
:1005E00014141400004122140800020151090600ED
:1005F000324979413E007E1111117E007F494949FF
:1006000036003E41414122007F4141221C007F498A
:10061000494941007F09090901003E4149497A00E1
:100620007F0808087F0000417F4100002040413FD3
:1006300001007F08142241007F40404040007F02BB
:100640000C027F007F0408107F003E4141413E00C4
:100650007F09090906003E4151215E007F091929E1
:10066000460046494949310001017F0101003F40F0
:1006700040403F001F2040201F003F4038403F00C7
:1006800063140814630007087008070061514945A6
:100690004300007F4141000018247E2410000041E7
:1006A000417F0000040201020400808080808000FD
:1006B0000001020000002054545438007F48444494
:1006C0003800384444442000384444487F003854BB
:1006D00054541800087E09010200085454543C0088
:1006E0007F080404780000447D4000002040443D21
:1006F00000007F102844000000417F4000007C047F
:10070000180478007C080404780038444444380015
:100710007C1414140800081414147C007C080404CD
:100720000800485454542000043F444020003C40FA
:1007300040207C001C2040201C003C4030403C00FD
:100740004428102844000C5050503C004464544C41
:10075000440000083641000000003F000000004156
:100760003608000008082A1C08003C2623263C0006
:1007700011241FBECFEFD8E0DEBFCDBF11E0A0E057
:10078000B1E001C01D92A63CB107E1F70E945533CC
:100790000C94453B35CC5A98529A5D98559A80FFF7
:1007A00003C053985B9A02C05B98539AB6D5661FF4
:1007B00018D0661F16D0661F14D0661F12D0661F91
:1007C00010D0661F0ED0661F0CD0661F0AD0A5D5AC
:1007D0005A98529A55985D9A5A98529A5998519A9D
:1007E00008955A98529A18F45198599A02C05998F3
:1007F000519A52985A9A91C5609346018093040188
:100800008093AD01862F880F860F880F80930F018C
:10081000089580E24CD560E081E0EECF80E247D5DC
:1008200060E082E0E9CF80E242D560E083E0E4CF9F
:1008300080914601809301018091AD018093030175
:1008400008956091010180910301D6CF682F80E067
:10085000A2CF8EEAFBDF85EAF9CF8DE028D58AE0CA
:1008600026C5FBDF1092AD0160E080E0C5CFCF93DD
:10087000DF93C0E080E1EADF80E0E8DF8C2F806B6F
:10088000E5DFD4E860E081E086DFD150D9F7CF5FC3
:10089000C83081F7E6DFDF91CF9108955C985A98D0
:1008A00059985D98549A529A519A559A31D55598BB
:1008B0005D9A5B98539A84E132D554985C9A84E1AE
:1008C0002ED58EEAC3DF82EEC1DF82EABFDF80EA87
:1008D000BDDF80ECBBDF8FE2B9DF84E2B7DF81E808
:1008E000B5DF8DE393E00E94073B8F73AFDF80E4B9
:1008F000ADDF84EAABDF86EAA9DFB9DF8FEAA6DFE6
:1009000060E080E079CF0895582F28E030E090E84B
:1009100041E080E0642F652309F0892B440F969510
:100920002150310921153105A9F70895A0E0B0E063
:10093000ECE9F4E00C94723AEC01C02ED12CC60123
:10094000860F911D813891050CF06BC0F12CE40EDF
:10095000F11C81E4E816F1040CF063C0142F169525
:100960001695169581E0E81AF10833E0F594E794BE
:100970003A95E1F7822F8270582E21FF0DC0F701C2
:10098000FF27E11BF109EC9DC001ED9D900DFC9D41
:10099000900D1124C80FD91F87E08E1510F497E031
:1009A000E92EF62EF2948FE0F8228F2D8061F82E3A
:1009B0006F70462E2170322E460181E0881A910810
:1009C000E11650F1812F806B41DF8F2D3FDF842DA9
:1009D0003DDFA12CB12C3E01680C791CA01698F4C7
:1009E000332021F0F301EA19FB0903C0FE01EA0DEF
:1009F000FB1D8491511088DF682F81E0CCDE8FEFE2
:100A0000A81AB80AEBCF552019F0CC19DD0902C09D
:100A1000CC0DDD1D1F5FD4CF809104018F70806BE2
:100A200015DFCDB7DEB7E1E10C948E3AEF920F936C
:100A3000282F8F7030E6839FC001112481539E4F71
:100A4000322F307324FF02C028E001C028E4209335
:100A50001001303218F01092000108C020E22093FB
:100A60000001209110012D5E2093100140E2E42E40
:100A700008E120E0409100016091100157DF0F91E3
:100A8000EF900895EF920F93262FFC016491319619
:100A90004491FC0132960491FC013396E49050910C
:100AA0000001450F50911001650F04963FDF0F9133
:100AB000EF90089560E0E6CFEF920F93CF93C82FA9
:100AC000809146018F5F8093460140910401440F5D
:100AD000440F440F26E0C29FC001112458E0E52EC8
:100AE00006E020E060910F0181599B4F1FDF80914C
:100AF0000F018A5F80930F014C2F50E0FA0131976C
:100B0000EA30F105E0F4EC5CFF4F0C94A83A8EE378
:100B100005C08CE7CCD38CE313C08CE7C8D38CE73B
:100B20000FC082E50DC08DE20BC085E709C08FE4E0
:100B3000BED388E6BCD38DE603C08CE401C08C2F05
:100B4000B6D3CF910F91EF9008958F5CB5CF80E22F
:100B5000B3CFA1E0B0E0EFEAF5E00C94813A1816CB
:100B60002CF48983F4DF89818150F9CF2196E2E06A
:100B70000C949D3A9091460185E1891BEACFA1E052
:100B8000B0E0E5ECF5E00C94813A8983F3DF80E294
:100B90008ED39091AD019F5F9093AD0169819830A4
:100BA00038F087E08093AD0181E08093490102C075
:100BB000109249018091AD011FDE2196E2E00C9474
:100BC0009D3ADDDFF0C44DDED5DF4BCE22DED2DF35
:100BD00020CE8DE371CFCF93DF93EC0189918823F1
:100BE00011F06ADFFBCFDF91CF910895CF93DF93B0
:100BF000EC01FE018491982F9F7719F05DDF21961B
:100C0000F8CFDF91CF910895CF93DF93EC01CE0120
:100C10000E94073B982F9F7719F04EDF2196F7CF60
:100C2000DF91CF910895EF920F93FC0104913196DB
:100C3000E49002967BDE0F91EF9008950F938FE979
:100C400091E0E2DF409191014D3F64F460917F01BA
:100C500070918001809181019091820103E026E4EE
:100C6000E6D002C08FE328DF0F91089597FF09C0F7
:100C70008F939F938DE220DF9F918F919095819527
:100C80009F4F6CE271E04AE050E00E94F33AA3CF3C
:100C9000EDDF01C0EBDF5BCFEF92FF920F931F936D
:100CA000182F062FF42E81E891E0AEDFEE24E091BC
:100CB0004701F09148018685E81611F4812F09C09B
:100CC0008485E81611F4802F04C08585E81611F498
:100CD0008F2DF2DEE3948E2D833049F71F910F9113
:100CE000FF90EF900895EF92FF920F931F93182FAC
:100CF000062FF42E80E065DF87E891E085DFEE24A3
:100D00008E2D23DF66DFE0914701F0914801868553
:100D1000E81611F4812F09C08485E81611F4802F9C
:100D200004C08585E81611F48F2DC6DE10DFE3942C
:100D30008E2D833029F71F910F91FF90EF9008952A
:100D4000682F80E092E0662309F491E0623009F4B4
:100D500081E008950F93082FEEEAF1E0880F880FE5
:100D6000E80FF11D60817181828193816436710584
:100D70008105910570F42091020127FD0AC0802FA2
:100D8000DFDF692F0E94C2216EEF23E044E03ED1F5
:100D900004C04FEF04E024E04AD0D9DE0F9108955B
:100DA000863058F4E1EAF1E0E80FF11DE80FF11D9B
:100DB0008081918163E035D1CACE08951F93182FA9
:100DC00080917A01882319F0C2DE80E075DE21DD92
:100DD00088E791E019DF812F82958F70E1DF812F05
:100DE0008F70DEDF1F910895CF93DF938091110103
:100DF00082958F70C5E9D1E0C80FD11D8881A5DE2D
:100E000080E491E001DF8E81A0DE80E491E0FCDEF1
:100E1000C5E9D1E0809111018370C80FD11D8E8189
:100E200094DE80911101CADFDF91CF910895AEE089
:100E3000B0E0EDE1F7E00C94713A342E222E6B0114
:100E40007C01102F1F7080E389838A838B838C83BE
:100E50008D838E83F7FE0BC08DE22EDEF094E0943E
:100E6000D094C094C11CD11CE11CF11C04C005FF2E
:100E700002C08BE221DE133009F4B6C0143009F44D
:100E8000BAC0153051F0163081F01730B1F074E669
:100E9000872E912CA12CB12C17C060EA862E66E813
:100EA000962EAA24A394B12C0FC050E4852E52E4B0
:100EB000952E5FE0A52EB12C07C040E8842E46E9B0
:100EC000942E48E9A42EB12C3AE0432E512C612CEB
:100ED000712CC814D904EA04FB0470F0C701B601F0
:100EE0006B5F7F4F8F4F9F4FA30192010E94D539B7
:100EF00069017A013394EDCF81E1830D9BEA899FEB
:100F0000812C1124869486E08319899F912C1124C9
:100F10009694992D990F990D982E991A5E0187E054
:100F2000A80EB11C2AE030E0A501C701B6010E945D
:100F3000D03AF50101900020E9F7CF0101977C013B
:100F4000EA18FB08AE2C6701DD24892D90E0049699
:100F50008C159D051CF4839493E0990E882D90E0E8
:100F60008B5C9F4F0E94073BB82E04FF04C0A11664
:100F700010F41E1901C010E0AE2CA918A10E1A140D
:100F800024F08EE299DD192D1E19911002C028EF70
:100F9000A22E912C012F10E0C00ED11EEA2CFF24AE
:100FA000E7FCF094E92DF0E0EC15FD05A4F436968D
:100FB000E01BF10B81E090E08C0F9D1FE80FF91F03
:100FC00080817ADD9394892D90E08E159F0551F7ED
:100FD0008EE272DDE7CFBB2011F08B2D6DDD22207C
:100FE00089F0822D69DD0EC098EE892E93E0992E4E
:100FF000A12CB12C69CF80E1882E87E2982EA12CFC
:10100000B12C62CF2E96E2E10C948D3A0F93362FDD
:10101000BC0180E090E0022F242F432F08DF0F91C6
:1010200008950F93062FBC0180E090E026E54DEF78
:10103000FEDE0F9108950F93042F28E440E0F7DEC1
:101040008AE73ADD0F910895E82FF0E0EE0FFF1FD9
:10105000E458FF4F8591949120910001420F209117
:101060001001620F20E0DFCDCF93DF93C82FD62F82
:10107000E0914701F091480148E16EE18685E4DFA7
:10108000E0914701F09148014D2F6C2F8485DCDF02
:10109000E0914701F091480140E06EE18585D4DFA1
:1010A000DF91CF9108951F93CF93DF93E0DB80E32F
:1010B000BDDC62E084E990E0E5DC80E2B7DC8FEC47
:1010C00090E0F8DC60E085E097DB84E991E09CDD6E
:1010D0006AE085E091DB8CE891E096DD88E99AE3AF
:1010E000FCD1C5DB83E1A2DC83E0A0DC88ED90E0ED
:1010F000E1DC61E082E080DB8EE4DEDC8DE2DCDCE2
:101100008EEA91E081DD6BE082E076DB80E5D4DC85
:101110008DE2D2DC8EEA91E077DD88E99AE3DDD1D9
:10112000A6DB81E383DC81E281DC81E391E0C2DC48
:1011300060E085E061DB8EE4BFDC8DE2BDDC85E450
:10114000BBDC88EA91E060DD6AE086E055DB80E5A3
:10115000B3DC8DE2B1DC85E4AFDC88EA91E054DDFC
:1011600088E99AE3BAD183DB81E160DC85E291E032
:10117000A1DC81E05BDC81E091E09CDC60E081E06F
:101180003BDB8EE499DC8DE297DC84E495DC88EA35
:1011900091E03ADD6AE082E02FDB80E58DDC8DE2D4
:1011A0008BDC84E489DC88EA91E02EDD88E99AE32F
:1011B00094D15DDB82E33ADC82E238DC87EF90E0B9
:1011C00079DC60E085E018DB8EE476DC8DE274DCAF
:1011D00085E472DC83EB91E017DD6AE086E00CDBEE
:1011E00080E56ADC8DE268DC85E466DC83EB91E017
:1011F0000BDD88E99AE371D13ADB82E117DC81EFFC
:1012000090E058DC82E012DC8FED90E053DC61E08E
:1012100081E0F2DA8EE450DC8DE24EDC84E44CDCDA
:1012200083EB91E0F1DC6BE082E0E6DA80E544DC20
:101230008DE242DC84E440DC83EB91E0E5DC88E98C
:101240009AE34BD114DB0DDB81E291E0DDDCE1DAE6
:101250008CE191E0D9DCE2DA8AE691E0D5DCE3DAF0
:1012600080E491E0D1DC73DC8CE391E0CDDCC0E084
:1012700015E18C2F612F0E94A239D82F911109C03E
:10128000811104C088E99AE328D1F1DA60E08D2F5A
:10129000B3DA80E28C0F10DCCF5FCF3551F788E9ED
:1012A0009AE31BD1E4DADF91CF911F9108958F93D8
:1012B0002F932AE080953B9A089410F4439802C03B
:1012C000439A000020D027D086952A95B1F72F9118
:1012D0008F91089503D002D001D000D000D003D068
:1012E00002D001D000D000D003D002D001D000D075
:1012F00000D0A89503D002D001D000D000D003D0F8
:1013000002D001D000D000D003D002D001D000D054
:1013100000D003D002D001D000D00000089590E0AA
:10132000893C28F0885C48EC849FC0011124009718
:1013300009F4089520918100277019F0DADF0197F0
:10134000F6CF8130910519F002973EE303C037E1F3
:1013500080E090E02091B200230F2093B30042E0A0
:101360004093700027E023BF889526E023BF1092AA
:101370007000A895DCCF8F9384E0D1DF07C08F93F6
:1013800082E0CDDF03C08F9381E0C9DF8F911F938F
:10139000182F106410937C00E12FE07880913701C2
:1013A000E81759F0E0933701AEDF8EE980937A00B9
:1013B00083E083BF889582E083BF20E030E0A9010D
:1013C000E0E01FC08EE980937A0083E083BF8895B8
:1013D00082E083BF6091780070917900260F371FFB
:1013E000411D511DE43061F480913901803041F09C
:1013F00084E02030380720F417FD02C01068CACFFF
:10140000EF5F80913601E817E8F260913A01709140
:101410003B0117FF04C0609138017091390180E0F1
:1014200090E00E9493392FEF33E040E050E00E94BB
:10143000D539B901CA012091360130E040E050E0D1
:101440000E94D539C9011F91089589B183FB88276E
:1014500080F94999826090911C01943050F09EE08F
:10146000909318018093190110921D0191E09093BF
:101470001C01E0911C01AE2FB0E0A85EBE4F9C9114
:10148000981721F181111AC0A3E0AE0FA37020912B
:101490001D01923041F4B0E0A85EBE4F9C919330A4
:1014A00069F42F5F09C0913049F4B0E0A85EBE4FE7
:1014B0009C91933019F4215020931D01EF5FE3704C
:1014C000E0931C01F0E0E85EFE4F808380911D01F7
:1014D00087FD819580931E010895A0E0B0E0E3E7C9
:1014E000FAE00C947A3AD82EC92E5398519806DF18
:1014F00010921D01E0911C01F0E03196E370FF278E
:10150000E85EFE4F80EF8083C5E6D9E19EDF4F990C
:1015100005C0F8DED150D1F7C150B9F7CD2DDC2D83
:10152000F12C05E510E0BB24B394D7FD36C082E36F
:10153000E82E8BDFE7DEEA94E1F7000F4F9B0F5FA9
:101540000F730F3349F4111103C0CD2DDC2D14E0BE
:101550001F5F163928F021C0011102C011111DC0F2
:10156000A8951C161D062CF42A97209711F4CFEF8E
:10157000DFEF80911E01882339F0F39480917B0185
:10158000811102C0B0927B0184E18F1570F68091C9
:101590001D01811102C0F12CC8CF812FCDB7DEB75C
:1015A000E9E00C94963ACF9343D9C82F8091490132
:1015B000882301F1813051F4C73041F464E187E0C0
:1015C0001BD98BE279DA64E187E016D980E49FE1E8
:1015D00084DF811104C080911E018111F7CFC730D3
:1015E00041F480914901813021F460E087E004D921
:1015F000C1DA27D9CF91089586E693E00E94073B90
:10160000382F87E693E00E94073B20913E01230F8D
:1016100030913F01381F209321013093220183E054
:10162000283E380720F0C901885E934002C080E060
:1016300090E062E370E00E94AE39683008F067E045
:10164000EFE5F1E0E60FF11DE60FF11D4591559133
:101650002591359162E3681B421B530B649FC001C7
:10166000659F900D1124499662E370E00E94AE39A7
:10167000620F731F70937E0160937D0188E693E093
:101680000E94073B992787FD909560913E017091DC
:101690003F01860F971F90933901809338019093F3
:1016A0007901809378010895CF93DF9324E130E0AE
:1016B000B9010E94AE39DC01E1E7F1E0E60FF71F66
:1016C000E60FF71FC591D591459155914C1B4A9F47
:1016D000C0011124B9010E94AE396C0F7D1FCB01EE
:1016E000DF91CF91089518951895109225011092C9
:1016F000230110927301109259011092240110924B
:10170000450110927A0110925E0110925F011092D1
:10171000600110928F0182E080939001109202018B
:1017200010928E0110928D0110928301109284010B
:10173000109285011092860181EF809392010895A5
:10174000A1E0B0E0E6EAFBE00C947F3A98E097B9BC
:1017500098B9E82FF0E0E75BFE4F949195B9262FFA
:10176000281BE20FF11D27FDFA95E491E92BE4B95E
:1017700069830DDE8C016981862F09DE20913A0193
:1017800030913B0136952795A90143505109B80185
:10179000625E7F4F4617570778F4255E3F4F02176A
:1017A000130750F4BC01625E7F4F4617570720F4C1
:1017B00041E08217930708F040E014B8842F219687
:1017C000E4E00C949B3ACF9361E080E0B9DFC82F4E
:1017D00062E080E0B5DFC80F62E081E0B1DF8C0F2E
:1017E000CF910895A3E1B0E0E8EFFBE00C94713AEB
:1017F000B82E10922501807FA9F4E5DF833009F02F
:10180000C6C335D881E792E0FFD903D88FE354D916
:1018100080ED97E062DE8B30C0F429D88EE091E055
:10182000F3D9B5C306E910E022D886ED91E0ECD9F2
:10183000CADF833021F41F5F143010F006C010E0BF
:1018400088E26DDD015081F764C00E9409040E94A6
:10185000B81C8AEC90E0D8D960E080E493E00E9464
:10186000143B60E081E493E00E94143B60E08FE36E
:1018700093E00E94143B60E082E00E94C2216C0170
:101880009A83898361E082E00E94C2217C019C836B
:101890008B8360E081E00E94C2218C019E838D8356
:1018A00023E040E26EEFC601B1DB23E040E26EEFE1
:1018B000C701ACDB23E044E06EEFC801A7DB2AE5FB
:1018C000C216D10424F024E130E03A8329836981EF
:1018D00080E493E00E94143B8AE5E816F10424F0CA
:1018E00024E130E03C832B836B8181E493E00E9410
:1018F000143B0A35110524F024E130E03E832D83AA
:101900006D818FE393E00E94143B82E08093490154
:101910004ADE9B2D9F709F87913009F04EC001E0F9
:1019200010E058EB252E52ED352E57E4452E512C64
:1019300062E0962E78E0A72EECE06E2EF4ECCF2E2F
:10194000F6E3DF2EE12CF12C3AC0839423E0281536
:1019500060F13CD938D984E5AFD8C80192D9F7D81D
:10196000E1E0BE1231C08DEF90E04ED964E080918D
:101970003E0190913F0155DB0E94090488EF90E001
:1019800043D980917D0190917E017BD98EEB80932C
:101990003601A7B8A8B814B815B888EE93E09DDD55
:1019A000F4E0BF1691F28B3080F288EE93E095DD83
:1019B0000F5F1F4F0830110511F418E71FC1812C6C
:1019C000B02EB0E27B2EC5CFF2E0BF1241C0209115
:1019D0003A0130913B01A8E5BBE10E946E39A701B5
:1019E00096010E94F73981E085B985E084B980E0ED
:1019F000288B398B4A8B5B8BBEDC288939894A89D5
:101A00005B89821B930B9A83898381E184B980E08F
:101A1000288B398B4A8B5B8BAEDC288939894A89C4
:101A20005B89821B930B9C838B8384E085B984E163
:101A300084B981E0288B398B4A8B5B8B9CDC2889AD
:101A40003989821B930B9E838D8382EE90E0B7C011
:101A500093E0B91229C095B8EAE0E4B980E08BDCE4
:101A600020913A0130913B013695279538872F8395
:101A7000821B930B9A838983F2E2F4B980E07BDCCA
:101A80002F813885821B930B9C838B83A5B828E21A
:101A900024B981E070DC2F813885821B930B9E83F3
:101AA0008D8384ED90E08BC084E0B81207C081E69E
:101AB00092E0AAD888DE811167C287C095E0B9128A
:101AC00013C015B894B880E056DC9A838983A4B813
:101AD00081E051DC9C838B8374B882E04CDC9E8374
:101AE0008D8384EF90E06BC0E6E0BE1227C094B80F
:101AF00095B880E040DC20913A0130913B01821B97
:101B0000930B9A838983A4B8A5B881E034DC209133
:101B10003A0130913B01821B930B9C838B8374B8F9
:101B200075B882E028DC20913A0130913B01821B9C
:101B3000930B9E838D8380EF90E041C0F7E0BF124E
:101B400040C020913A0130913B01A8E5BBE10E94E1
:101B50006E39A20191010E94D53995B883E084B90C
:101B600080E0288B398B4A8B5B8B05DC288939898F
:101B70004A895B89821B930B9A838983A5B864B8D1
:101B800081E0288B398B4A8B5B8BF5DB288939897F
:101B90004A895B89821B930B9C838B8375B890E386
:101BA00094B982E0288B398B4A8B5B8BE4DB2889E4
:101BB0003989821B930B9E838D838EEC90E024D811
:101BC00004C0E1E0BE1609F4E4CE0E940904898154
:101BD0009A814CD80E94A7058B819C8147D80E948E
:101BE000A7058D819E8142D8D4CE0E94E60581E66C
:101BF00092E00AD884E693DB115019F0E4DD8111FC
:101C0000F4CF0E94370483EC90E00E94040623E0A6
:101C100044E06FEF80913C0190913D01F7D90E9423
:101C200009048CEB90E00E94040623E044E06FEF8F
:101C30008091430190914401E9D982E08093490168
:101C4000B2DC109225010E94370488EB90E00E94DC
:101C5000040660E082E00E945E1980908701909007
:101C60008801A0908901B0908A019C868B8661E0F2
:101C700082E00E945E19C0908701D0908801E090B8
:101C80008901F0908A01DE86CD8660E081E00E94C5
:101C90005E1900918701109188011E830D8362E017
:101CA00080E00E945E1980918701909188019C8359
:101CB0008B8362E081E00E945E19809187019091A0
:101CC00088019A87898761E080E00E945E1980918F
:101CD0008701909188019A838983EF85E13021F013
:101CE00020914201223021F4029698878F8304C00C
:101CF00098878F8310924201C4010E944A06C60150
:101D00000E944A06B801882777FD8095982F03E046
:101D100026E444EF8CD86E01FFE0CF0ED11CFE010B
:101D20003196819191910A97853B9105F0F4EC15DC
:101D3000FD05B9F7AFE5EA2EA3E0FA2E8E010F5F9D
:101D40001F4FF80160810E5F1F4F6E5EC7010E943A
:101D5000143BFFEFEF1AFF0A0C151D0591F70E94C7
:101D6000090484EC91E00E94040682E0809349011A
:101D70001ADC0E9417302F85213029F08091420112
:101D8000823009F0E9C0E0E4BE2E10E0FAE0CF2E88
:101D9000D12CE12CF12CA9DC0E94370480E00E94B8
:101DA000A5058AE691E00E94040682E00E94A5054E
:101DB0008DE290E00E9404061092250160E082E02E
:101DC0000E945E190091910160917F0170918001E4
:101DD0008091810190918201073F44F4A70196010F
:101DE0000E94D5390F5FB901CA01F6CF0093910166
:101DF00060937F01709380018093810190938201B1
:101E0000073F09F093C0DC01CB0180569109A1097D
:101E1000B10980399545A105B10508F087C06091E9
:101E2000930170919401CB018B569F4F8B3291405F
:101E300008F07CC01F5F153008F479C086E693E097
:101E40000E94223B0E94370486E290E00E94040632
:101E500080919301909194010E943606CDDB88E039
:101E600088B989E087B980E284B982E090DA853D5B
:101E70009340DCF714B8109239011092380182E0D7
:101E800086DA8C01809178019091790190933901E3
:101E90008093380182E07BDA7C01EE0CFF1C10920B
:101EA00039011092380182E072DAC0907801D09046
:101EB0007901D0923901C0923801080F191F0E190B
:101EC0001F090E9409048FE190E00E94040688E641
:101ED00093E00E94073B73E0B72EB80E9601D8013D
:101EE0000E947D399701442737FD4095542F0E9469
:101EF000F739B20E6B2D88E693E00E94143B8B2DD0
:101F0000992787FD90950E94360676DB82E08093C4
:101F1000490149DB109242018FE593E00E94073BA3
:101F2000682F82E693E00E94143B16C010E00E94E6
:101F3000090460917F0170918001809181019091ED
:101F4000820104E026E4409191010E94170788E293
:101F5000E6D9BA9409F01FCF87E3809336010E9437
:101F600013330E9437048EE091E00E9404060E9421
:101F7000090488E592E00E9404061092250182E09F
:101F80008093490110DB03C052E0852E1ECE63967C
:101F9000E2E10C948D3A8091420181110DC08FE5F0
:101FA00093E00E94073B61E0680F82E693E00E94A5
:101FB000143B81E0809342010895CF92DF92FF921B
:101FC0000F931F93CF93DF931F92CDB7DEB7E82F08
:101FD000F0E0E45BFE4FE491E8B9E860E7B915B8DA
:101FE000E62FF0E0E75BFE4FE491E4B908E813E187
:101FF000FE2EFF0C862F6983BED96C01F4B869816F
:102000008017910710F48C01F5CF0097F1F00E9432
:1020100013048AE491E00E940406D60120EA36E81F
:1020200041E050E00E94833928E937EB40E050E07E
:102030000E94D539DA01C90122E041E467EF0E942C
:10204000060888E087B988B914B80F90DF91CF915E
:102050001F910F91FF90DF90CF9008950F931F93E2
:10206000CF93DF9385E093D985E08DD9EC018C0186
:10207000000F111F000F111F10924001C80182555F
:10208000934081319E4050F088EB91E00E9404061D
:102090000E94BA0581E08093400127C087EC91E05F
:1020A0000E94040662E0C801C2960E9411080E94C4
:1020B000A705C23A83E0D80790F4C938D34060F44A
:1020C0008CEC92E00E9404060E94BA058DEC27D9A0
:1020D0005E988AEC24D909C083ED92E002C084ECBA
:1020E00091E00E9404060E94BA05DF91CF911F91F2
:1020F0000F910895A7E1B0E0E0E8F0E10C94713AA7
:10210000982E862E4983A895E62FF0E0E75BFE4FD8
:1021100024912E8733963491398BE42FF0E0E75BDE
:10212000FE4F6490162D110FE82FF0E0E75BFE4F95
:102130007490339644914A8748604B873860432EA9
:1021400065B8522E562854B847B95A8558B9862FC3
:102150001AD999878887812F862985B96E85612B41
:102160006C8364B9882D0FD95C017E8574B9882D84
:102170000AD91C0114B8BDD815B854B8882D03D994
:10218000A885B9858A179B0730F5805E9E4FA817F2
:10219000B90708F4E1C447B888E088B975B8872D55
:1021A000862984B9E0913A01F0913B01F987E887EB
:1021B000892DE9D828853985281B390B3987288747
:1021C00074B8A0903A01B0903B01892DDCD8A81AD0
:1021D000B90A150108C028853985205E3E4F82174F
:1021E000930708F4B9C4209159018091730190E0DC
:1021F000820F911D02974CF0213009F0ADC49091EF
:102200005601809170019813A7C4488559854437B9
:10221000510508F4A5C0CA01880F991F44962816D5
:10222000390608F09DC05B8557B96A8568B97C811D
:1022300074B9882DA4D87C018981A9D86C0115B9FD
:10224000882D9DD89701295A3D4F172928173907FE
:10225000D0F588E088B947B814B915B989818FD805
:1022600088349F4028F085E08093250182E204C0F5
:1022700085E08093250184E280932401F0924F0150
:10228000E0924E01CE14DF0440F4C7018C199D0981
:10229000909355018093540104C0109255011092FF
:1022A00054019701A0E1B7E20E946E3920911F010D
:1022B0003091200140E050E00E94D5393093510127
:1022C0002093500140C488E088B947B814B915B9C3
:1022D000892D55D88C0189815AD87C0175B8892DF2
:1022E0004ED8895A9D4F8017910708F035C4BA859A
:1022F000B8B9EB85E7B9898142D8813D934028F48C
:1023000085E08093250182E304C085E08093250168
:1023100084E3809324010E151F0538F4E01AF10AB6
:10232000F0926F01E0926E0104C010926F01109262
:102330006E0120913A0130913B01201B310BA0E14D
:10234000B7E20E946E39209126013091270140E0CA
:1023500050E00E94D53930936B0120936A01C8C1C7
:1023600088E088B947B875B8072D062904B9892DC2
:102370000AD89D878C87E0903A01F0903B018981D3
:1023800006D89F838E830A9780F514B881E00E9457
:102390008F09812F872984B9892D0E94C3099D87C0
:1023A0008C8720913A0130913B01281B390B3B83EC
:1023B0002A8389810E94C7099F838E838091260189
:1023C000909127019C0140E050E060E871EA83E0D1
:1023D0009CE10E94D539AA81BB810E948339AE81DC
:1023E000BF819D0140E050E015C0F7012C853D857F
:1023F000E21BF30BFB83EA839F014E815F81241B69
:10240000350BA4E6B0E00E946E396A01E12CF12C94
:10241000A70196010E94D53969017A0114B815B84F
:102420005A8558B96B8567B981E00E948F0979EBAD
:10243000A71677E0B70608F08FC354B8882D0E941E
:10244000C3098F359D4008F459C114B881E00E943A
:102450008F0954B881E00E948F09BC81B4B9882DDE
:102460000E94C3095C0189810E94C709988B8F87EC
:10247000892D0E94C7099F8B8E8BEF85F889E13DDE
:10248000F74008F4C2C015B9882D0E94BF09811514
:10249000944078F08AE0809325018E899F894F854A
:1024A0005889841B950B909369018093680121E002
:1024B00016C484E0809325018DE08093240185017A
:1024C0002A143B0410F40219130940901F01509084
:1024D0002001612C712C60E871EA83E09CE1A3018A
:1024E00092010E94D539D8010E948339AF85B889FD
:1024F0008D0120E030E0A90198010E94D53980913A
:102500007301882369F08091640190916501A09125
:102510006601B091670182179307A407B50708F514
:1025200020936401309365014093660150936701E5
:102530009501A0E1B7E20E946E39A30192010E94C9
:10254000D53930936B0120936A018E899F89EF857D
:10255000F8898E1B9F0B909369018093680121E09D
:1025600001C020E08091640190916501A091660115
:10257000B09167018C159D05AE05BF0538F5C09279
:102580006401D0926501E0926601F09267018C854A
:102590009D852E813F81821B930B909369018093CF
:1025A00068012A813B81A0E1B7E20E946E39209147
:1025B00026013091270140E050E00E94D539205F8C
:1025C000384D30936B0120936A0103C0222309F434
:1025D00086C39101A0E1B7E20E946E39A301920186
:1025E0000E94D53930936D0120936C01288539857F
:1025F000A0E1B7E20E946E39A30192010E94D53991
:1026000030936F0120936E0152CF31E623163104CF
:1026100008F074C041EDA41647E0B40608F46EC09B
:1026200085E08093250182E180932401C5018650D5
:102630009F4F6E897F898617970720F483E18093E7
:1026400024011CC08E899F89A816B90698F4A09110
:102650001F01B09120019C012A193B090E946E398B
:10266000950140E050E00E94D539309369012093F4
:10267000680104C01092690110926801098907700D
:102680008981806480937C001BE0CC24C394D12C8E
:10269000EE24EA94A3E0FA2EA89561E0862D2BD5CE
:1026A0009C8194B986B18023E9F3AE85A4B9809169
:1026B0007A00806480937A0080917A0086FDFCCF56
:1026C0008091780090917900F701E81BF90BCE0E0C
:1026D000DF1E115009F7C601880F991F880F991F37
:1026E00069E070E00E94AE3970936F0160936E01F3
:1026F000809173018F5F80937301D9CE54B865B810
:10270000882D0E94C3099B838A8389810E94C709FF
:102710009F838E8340913A0150913B01481B590B96
:102720004A30510558F514B881E00E948F09FC81A8
:10273000F4B915B9882D0E94C3099B838A838981C6
:102740000E94C7099F838E8380911F019091200171
:102750009C0140E050E060E871EA83E09CE10E9467
:10276000D539AA81BB810E94833920913A013091E9
:102770003B014E815F81241B350B09C02A813B81BF
:10278000241B350BA4E6B0E00E946E399A0140E0AC
:1027900050E00E94D53969017A0147B888E088B9CC
:1027A00004B905B9892D0E94C3095C0189810E9481
:1027B000C7099D838C83882D0E94C7099C0150E323
:1027C000A51651E1B50608F0C4C175B8892D2C8B4A
:1027D0003D8B0E94C309AC0174B8892D4A8B5B8B79
:1027E0000E94C3099D878C8715B881E00E948F09DC
:1027F00075B8892D0E94C3092C893D894A895B8956
:102800006C857D856034764008F057C081339141F6
:1028100008F453C0C5018A569F4F4817590708F05E
:102820004CC086E080932501809159018F5F809391
:1028300059018C819D81821B930B90934F01809352
:102840004E01A21AB30AB0925501A092540114B8D5
:1028500015B8E989E8B981E00E948F0974B8892D1B
:102860000E94C309853F910508F048C204B98981D7
:102870000E94C309813D934008F440C2892D0E9403
:10288000C7098D3D924008F439C274B8892D0E9461
:10289000C3098D3D924008F431C275B881E00E94B1
:1028A0008F0915B8892D0E94C309853F910508F04D
:1028B00025C287E08093250121C204B905B981E0D2
:1028C0000E948F09512E572854B855B8892D0E945F
:1028D000C3095C0140913A0150913B01481B590BDF
:1028E000588B4F8789810E94C7099D878C8760918B
:1028F0003A0170913B01681B790B7D836C83882DB5
:102900000E94C7098C018C819D818E3F994008F4FB
:10291000B1C084E0809325018CE080932401EF8591
:10292000F8892E163F0620F45F01A218B30802C0F2
:10293000AF84B8884090260150902701612C712CFB
:1029400060E871EA83E09CE1A30192010E94D5391D
:10295000D5010E948339AC81BD819D0140E050E0EA
:102960000E94D53980915901882369F080914A01EC
:1029700090914B01A0914C01B0914D0182179307AA
:10298000A407B50700F520934A0130934B0140930B
:102990004C0150934D018C859D85801B910B90932C
:1029A0004F0180934E012F853889A0E1B7E20E9444
:1029B0006E39A30192010E94D539309351012093C1
:1029C000500121E001C020E080914A0190914B012B
:1029D000A0914C01B0914D018C159D05AE05BF0530
:1029E00030F5C0924A01D0924B01E0924C01F09236
:1029F0004D018E819F81EA81FB818E1B9F0B9093FD
:102A00004F0180934E019F01A0E1B7E20E946E3911
:102A100020911F013091200140E050E00E94D53903
:102A2000205F384D309351012093500103C0222381
:102A300009F465C19101A0E1B7E20E946E392091CD
:102A40001F013091200140E050E00E94D5393093C1
:102A500053012093520128853985A0E1B7E20E94F5
:102A60006E39A30192010E94D5393093550120930C
:102A7000540144C1F1E62F16310408F06AC02F85D5
:102A8000388929343D4008F464C085E080932501ED
:102A900082E080932401C80186509F4F8A159B05D0
:102AA00020F483E0809324011CC00A151B05A8F4C0
:102AB000A0912601B09127019501201B310B0E94A6
:102AC0006E39AF85B8899D0140E050E00E94D5394C
:102AD00030934F0120934E0104C010924F01109289
:102AE0004E010A8507708981806480937C001BE019
:102AF000EE24E394F12CA89560E0862DFCD254B826
:102B000055B886B18023E9F774B880917A00806463
:102B100080937A0080917A0086FDFCCF80917800C6
:102B200090917900E80EF91E115029F7C701880F1E
:102B3000991F880F991F69E070E00E94AE39709369
:102B4000550160935401809159018F5F8093590121
:102B5000D5C088E087B988B914B815B888E087B9B6
:102B6000B7EC2B16B1E03B0608F4ADC088B918EC01
:102B70000B85042907B981E00E948F0947B8892D88
:102B80000E94C709429710F01150A1F75E84550CBE
:102B9000372C330C34B835B861E0862DACD2892D92
:102BA0000E94C3099B838A8354B815B8EB85E7B9A3
:102BB000FA85F8B960E0862D9ED2E0903A01F09057
:102BC0003B01882D0E94C3098C012E8524B9892DD3
:102BD0000E94C3096C01882D0E94C709C81AD90A2E
:102BE00088E088B947B874B875B861E0862D83D29B
:102BF000892D0E94C3095C01882D0E94C709A81A6B
:102C0000B90ACA14DB0438F434B835B8892D0E94E7
:102C1000C309650119C0A701401B510B5B834A839F
:102C200054B815B85B8557B96A8568B960E0862DD8
:102C300062D200913A0110913B01882D0E94C30994
:102C4000D801A81BB90BCD019601275931092938A4
:102C50003141C8F58C159D05B0F58A819B8153E003
:102C6000969587955A95E1F7893C910510F088EC87
:102C700090E02A813B81820F931F8C159D0518F5EA
:102C8000C60144E0969587954A95E1F78217930728
:102C9000D0F480912501833018F483E080932501DE
:102CA00080912301E82FF0E0DF01AB56BE4F9C92EC
:102CB00016968C92EE0FFF1FEF55FE4FD182C08209
:102CC0008F5F80932301682D892D28D088E087B9F4
:102CD00088B914B815B86796E2E10C948D3A8091E2
:102CE00073018F5F80937301222381F339813093C5
:102CF00070018092710190927201E8CF21E0809181
:102D000059018F5F80935901222301F34981409338
:102D100056019092570180925801D8CFA0E0B0E0C0
:102D2000E4E9F6E10C94733A982E862EA895E62FE6
:102D3000F0E0E75BFE4F549033962491E82FF0E0EB
:102D4000E75BFE4FE4903396F490309173018091ED
:102D5000590190E0830F911D892B09F0C7C1A895F7
:102D60008091290190912A01880F991F880F991F3E
:102D700090933B0180933A01809178019091790181
:102D8000880F991F880F991F9093390180933801FC
:102D90008EEB8093360188E088B9286027B9E4B8C3
:102DA000E5B858E1D52EC0E0D0E0882D0E94C309D7
:102DB000782E692E892D0E94C7098C018C1B9D0BD2
:102DC00097FF03C091958195910903972CF0A895E1
:102DD000DA94E1F1E801E9CFEE0C15B8E4B8892DF9
:102DE0000E94C3098135910588F5E5B8892D0E94B7
:102DF000C309EC018F2D886087B9F8B815B854B8AD
:102E000088E1482EC12CD12C892D0E94C309B82EEF
:102E1000A92E882D0E94C7097C019C012C193D090F
:102E200037FF03C03195219531092330310514F561
:102E3000550C54B8882D0E94C3096C01003C94E4E1
:102E40001907E8F4C53881E0D807E8F08091290136
:102E500090912A0190933B0180933A0180917801EF
:102E600090917901909339018093380187E38093A1
:102E700036013CC1A8954A9449F36701C5CFC03BD0
:102E80009DE4D90718F784EAE81682E0F80608F00E
:102E900063C098E9C916D104C8F200913A011091B3
:102EA0003B019E01A8E9B7EB0E946E3998012C1BEB
:102EB0003D0B40E050E00E94D53929013A019801CC
:102EC0002C193D09A8E9B7EB0E946E39860120E074
:102ED00030E0A90198010E94D539C837DF4070F46D
:102EE000C301B201B2E0660F771F881F991FBA9520
:102EF000D1F7620F731F841F951F12C098E7C91680
:102F00009FE0D906A0F4CA01B901A2E0660F771FBD
:102F1000881F991FAA95D1F7640D751D861D971DF1
:102F200025E030E040E050E00E94D53908C0240D93
:102F3000351D461D571D5695479537952795A4E68F
:102F4000B0E00E9483396B017C018CEAC80E8DE0F1
:102F5000D81EE11CF11C73C0272D362D0217130754
:102F600008F49801CB2DDA2DCE15DF0508F4E70122
:102F700059012017310708F45801A0912601B0919A
:102F80002701C501821B930B9C010E946E39209181
:102F90003A0130913B012A193B0940E050E00E9480
:102FA000D53929013A018E01EC16FD0608F4870196
:102FB000A0911F01B09120019E01201B310B0E94A6
:102FC0006E396801E12CF12CA70196010E94D539D8
:102FD00098E7A9169FE0B90670F4C301B201E2E0D8
:102FE000660F771F881F991FEA95D1F7620F731F2D
:102FF000841F951F11C008378FE01807B0F4CA016D
:10300000B90152E0660F771F881F991F5A95D1F7B3
:10301000640D751D861D971D25E030E040E050E0F1
:103020000E94D53969017A010AC069017A01C40C8C
:10303000D51CE61CF71CF694E794D794C79410911E
:103040002501143008F002CF9A94980C892D90E055
:10305000EC01C25ADE4F2881880F991F880F991FF3
:10306000FC01E255FE4F2223D1F140805180628065
:103070007380A7019601241935094609570957FF9E
:1030800007C050954095309521953F4F4F4F5F4F6A
:10309000AAE0B0E00E948339A30192012C593F4F6E
:1030A0004F4F5F4F2C0D3D1D4E1D5F1D0E94D539AA
:1030B000232B242B252B09F0C9CE133019F081E0E6
:1030C0008093250182E0888380917A01E82FF0E0E7
:1030D000EF59FE4F90828F5F80937A01B7CEC08206
:1030E000D182E282F38281E08883B0CECDB7DEB7B1
:1030F000E0E10C948F3ACF93C82FC09595B160FF53
:1031000002C0982B01C09C2395B994B1982B94B917
:1031100082E00E948F0984B18C2384B985B18C230D
:1031200085B9CF910895A0E0B0E0E9E9F8E10C9409
:10313000793A8AE0D82E98E0C92E2FE3A22E39E002
:10314000B32EC7B8C8B815B8A4B880E00E94C309A8
:103150008C0181E00E94C709EC0182E00E94C7094E
:1031600020912501293081F428E027B914B8109363
:10317000060100930501D0930801C09307019093C5
:103180000A018093090155C00430110540F4C43090
:10319000D10550F48430910538F329E009C0083E88
:1031A000134010F028E001C029E0C83ED34008F4E5
:1031B0002260883E934008F4246027B9C0E0D0E044
:1031C000A89580E00E94BB097C0181E00E94C709AC
:1031D0008C0182E00E94C70924E1E21625E0F20694
:1031E00008F4389A043135E0130708F4399A843129
:1031F00025E0920708F43A9A36E0E316F10428F441
:103200000630110510F4069738F02196C43F81E08E
:10321000D807B1F6B092250100E010E00C171D07A9
:1032200029F00E947E090F5F1F4FF8CFDA9409F052
:1032300088CFCDB7DEB7EAE00C94953ACF92DF9213
:10324000EF92FF92CF9320917F01309180014091C6
:10325000810150918201C09191018AE0C82ED12C48
:10326000E12CF12C8C2FCF5F213A96E8390791E0C1
:103270004907510538F0CA01B901A70196010E941A
:10328000D539F0CF80939101A0913A01B0913B01E3
:103290000E94833928E833E140E050E00E94D539AC
:1032A00020937F01309380014093810150938201EC
:1032B000CF91FF90EF90DF90CF900895A4E0B0E021
:1032C000E4E6F9E10C94773A982E862E8FEF860F7C
:1032D000992D990F990D890F80935B01E92DF0E0ED
:1032E000E75BFE4F1491862F90E0FC01E75BFE4FF9
:1032F000F490FC01E45BFE4F049180912501813044
:1033000009F4ABC2809123012BE931E061EA71E05D
:10331000D9019A2F921B9817A0F49D9198110EC075
:10332000AD0147505109FA019081991107C0FB0185
:10333000408151814C3D554008F48FC26E5F7F4FF4
:10334000E8CF086010928C0110928B0181EF80937E
:10335000910110927F0110928001109281011092D0
:103360008201E1DE88E088B907B9F4B8F5B8892DA3
:103370000E94C7097C01882D0E94C709E81AF90A32
:1033800014B810925D0110925C01C12CD12C2091D7
:103390005C0130915D01243F314050F515B914B9FD
:1033A0000E94780914B815B80E947F09A895892D44
:1033B0000E94C7096C01CE18DF0820915C01309192
:1033C0005D012E37310528F02BE4C216D1040CF430
:1033D0003FC28DE2C81681E0D80684F480915C017A
:1033E00090915D01019690935D0180935C01CFCF38
:1033F000EDE2CE16E1E0DE060CF42AC220915C017B
:1034000030915D01232B21F0C60100E010E006C0E1
:10341000F5E1CF16F5E0DF06BCF385C020915C0135
:1034200030915D012017310758F00E947909892DEC
:103430000E94C7098E199F09A8950F5F1F4FEECFF5
:103440008601081B190B1016110694F4093C11058E
:103450000CF0FEC128EE33E0D8010E947D399601C0
:10346000442737FD4095542F0E94D539790102C079
:10347000E12CF12CA0905C01B0905D012FEFA21A1D
:10348000B20AC501A0E0B0E0809387019093880163
:10349000A0938901B0938A01C601800F911F29D2A0
:1034A0009C01D5010E946E39609387017093880159
:1034B0008093890190938A0160937F0170938001CA
:1034C000809381019093820187EF80939101B6DE12
:1034D00020917F01309180014091810150918201C2
:1034E00082E493E029833A834B835C830E94073B09
:1034F000A8EEB3E0A81BB10987FDB39529813A81F5
:103500004B815C810E948D3924E630E040E050E040
:103510000E94D53920937F0130938001409381012F
:103520005093820153C1FFDD15B88FE087B988E061
:1035300088B9F12EFF0CF4B880E480937B0084E519
:1035400080BF892D806480937C0086E180937A001F
:103550000E94820910925D0110925C01109280001D
:10356000109285001092840087E286BB81E28093EE
:103570006F0091E090937C01F5B8809125019093C4
:103580008100853059F481E090E0092C01C0880F5A
:103590000A94EAF780958F7087B901C007B9F8944B
:1035A00083B7817F83BF80917C01882389F083B7B3
:1035B000816083BF7894889583B78E7F83BFF894AA
:1035C000A89580915C0190915D018034964059F7F7
:1035D000789410928100E0908600F090870010921D
:1035E0006F0086E980937A0014B815B8892D0E947F
:1035F000C70920913E0130913F01821B930B0C962D
:10360000909394018093930180915C0190915D016E
:103610008032934008F01CC180915C0190915D0163
:1036200090938A0180938901F0928801E09287014A
:1036300084EF8093910180915C0190915D018234CF
:103640009105C8F06091870170918801809189018E
:1036500090918A0124E630E040E050E00E94D539A4
:1036600020938701309388014093890150938A0108
:1036700086EF80939101A0917D01B0917E01209110
:103680008701309188014091890150918A010E94FF
:10369000833920E233E040E050E00E94D5392093A6
:1036A0008701309388014093890150938A012093C8
:1036B0007F01309380014093810150938201BEDDF0
:1036C00080919101843F09F071C0C0907F01D0903A
:1036D0008001E0908101F090820120EAC2162FE083
:1036E000D206E104F104C0F4A70196012C543F4F27
:1036F0004F4F5F4F60EA7FE080E090E00E94D53955
:103700002C0D3D1D4E1D5F1D20937F0130938001C8
:103710004093810150938201C0907F01D09080013D
:10372000E0908101F0908201C114D10481E0E806AB
:10373000F10428F4D092BF01C092BE0106C081E01E
:1037400090E09093BF018093BE0180915B0190E077
:10375000815A9C4F0E94073B482F50E060E070E088
:103760004C155D056E057F0568F4C41AD50AE60A96
:10377000F70AC0927F01D0928001E0928101F0921D
:10378000820114C094E1C90ED11CE11CF11CC416C5
:10379000D506E606F70610F40E94CB0F10927F01C3
:1037A00010928001109281011092820114B98091CF
:1037B0007F0190918001A0918101B0918201499790
:1037C000A105B10508F444C0E12CF12C809123013E
:1037D000882321F0809125018530D1F588E0809300
:1037E000250120919101809192018217BCF028134C
:1037F0002FC040917F0150918001609181017091B3
:1038000082018091830190918401A0918501B09102
:10381000860184179507A607B707D0F480917F012A
:1038200090918001A0918101B091820180938301E8
:1038300090938401A0938501B09386012093920117
:10384000F0928E01E0928D0180928F019092900112
:1038500088E087B988B914B815B82496ECE00C94C0
:10386000933A1F920F920FB60F9211248F939F934A
:10387000B59904C080917C01811109C0B59B10C02D
:1038800080918600909187008A3F910548F480914D
:103890005C0190915D01019690935D0180935C01C4
:1038A0009F918F910F900FBE0F901F9018951F92B0
:1038B0000F920FB60F9211248F939F9310927C0159
:1038C000B09B10C080918600909187008A3F91053F
:1038D00048F480915C0190915D01019690935D01A7
:1038E00080935C019F918F910F900FBE0F901F905E
:1038F00018950F9221E08C32920710F48CE291E03F
:103900008C52914069E170E00E94AE3999E16B32CE
:1039100010F0982F6BE2981BE3EEF2E0E60FF11D3A
:10392000E60FF11D9F93CF010E94073B482F319670
:10393000CF010E94073B582F3196CF010E94073BD1
:10394000282F3196CF010E94073B382F6F91421BE1
:10395000530B649FC001659F900D11240C9669E183
:1039600070E00E94AE39620F731FCB010F90089573
:10397000A0E0B0E0EEEBFCE10C94763A88E893E14D
:1039800090932A018093290190933B0180933A01FF
:103990008EEB80933601C8E0C8B988E187B90E94F0
:1039A0008709C7B984E00E94C309AC018B5C9840C9
:1039B000833F9140A0F481E08093450120913A013A
:1039C00030913B01AFEBB9E00E946E399A0140E0C3
:1039D00050E00E94D53930932A012093290180912B
:1039E000290190912A0190933B0180933A018EE046
:1039F0000E94C7098EE00E94C30990933F01809303
:103A00003E010E94FC0A8FDB88E0782E78B8D9E06E
:103A1000D7B9C1E0C5B9C4B980E00E94C3097C012F
:103A20000AE007B914E015B914B981E00E94C3098E
:103A3000E80EF91E9CE0892E87B820E1922E95B8F9
:103A400094B882E00E94C309E80EF91E15B8D8B9EF
:103A5000D7B9C4B9C0913A01D0913B0180E00E942E
:103A6000C3095C0108B907B914B900913A01109172
:103A70003B0181E00E94C3096C0188B887B894B803
:103A800080903A0190903B0182E00E94C309C00FF0
:103A9000D11FC80DD91DCA19DB09CC19DD09C81BF6
:103AA000D90B77B878B814B880913A0190913B015E
:103AB0004C01880C991C880E991E8E189F088C1A30
:103AC0009D0AA12CB12C9701A0E9BAE10E946E39A0
:103AD000A50194010E94D53969017A01309344010E
:103AE000209343019E01A0E9BAE10E946E39A5012D
:103AF00094010E94D53930933D0120933C01205719
:103B0000354E309327012093260180E7C81A85EEB1
:103B1000D80AD0922001C0921F0187E3809336011A
:103B2000CDB7DEB7EDE00C94923AFF920F931F935E
:103B3000CF93DF93C82FD62FF42E0E94A50581E2E4
:103B400091E00E940406E9D16D2F8C2F0E948331F1
:103B5000C1E00091C2011091C3012091C4013091D4
:103B6000C501011511052105310509F0C0E080915D
:103B7000020187FD02C0C11104C08DE191E00E94E5
:103B800004068D2F0E94A505C11106C00E94A7053D
:103B9000809161010E94AA06FF2049F080914601B0
:103BA000823128F490E08D599C4F0E94040680E0F9
:103BB0000E94E105C1111BC06091C2017091C30157
:103BC0008091C4019091C50103E028E447EF0E9471
:103BD000170780E391E00E94040689E793E00E94C2
:103BE0000F3B23E046E464EF0E9406081AC0809170
:103BF00061010E94AA06809102018E3F94F48EE436
:103C000091E00E94040660910B0170910C0180917B
:103C10000D0190910E0103E028E4409102010E9401
:103C200017078091BA019091BB01A091BC01B0919E
:103C3000BD01892B8A2B8B2BF1F080E00E94E105DE
:103C40006091BA017091BB018091BC019091BD015E
:103C500004E028E440E00E9417078BE291E00E9414
:103C6000040623E040E26FEF8091C0019091C10112
:103C70000E94060807C080E00E94BF0580914901AC
:103C8000811102C00E94BA05CDB7DEB7E5E00C9401
:103C90009A3A0F931F93CF93DF93082F0E9431041A
:103CA00080918F010E94A5058AE691E00E9404069A
:103CB0001AD560918F018091900164D390938C010B
:103CC00080938B0111E08A3F9F4F08F010E0C09174
:103CD0008D01D0918E01112321F082E291E00E94AA
:103CE0000406809190010E94A505002359F090914F
:103CF000460182E1891B0E94A90582E890E00E94AA
:103D0000040602C00E94BA050E9409046091830162
:103D100070918401809185019091860104E026E4F0
:103D2000409192010E941707112369F089E591E003
:103D30000E94040622E044E06EEF80918B01909196
:103D40008C010E9406080E94BA050E940E04CD2B29
:103D500069F082E591E00E94040622E045E26FEFFF
:103D600080918D0190918E010E9406080E94BA05F3
:103D7000DF91CF911F910F9108958F7021F40E94D0
:103D800013040C942E1008958F3021F4909140016B
:103D9000913011F08F5F089580E00895CF938DE802
:103DA00090E00E94FA2AC0E00E94750B60E082E079
:103DB0000E948E1662E080E00E948E160E943104FE
:103DC00080917A01882329F041E062E080E0ADDE55
:103DD00012C08DE890E00E9404068DE693E00E94F8
:103DE00004060E9409048FE30E945C0580E00E94A3
:103DF000BF050E94BA058C2FC0DF88EE93E00E94B9
:103E00006D0A811109C080911E01843028F48C2F25
:103E1000BBDFC82F8A3F40F20E943704CF9108953C
:103E20000F931F93CF93DF93C0E0D8E012EF02E12E
:103E30000E94750B60E082E041DAD0932501809109
:103E40009101843FE1F440917F01509180016091A4
:103E5000810170918201443651056105710578F444
:103E600040E060E082E00E94252F60937F01709324
:103E70008001809381019093820110939101809140
:103E80009101823FACF08093920140917F0150916B
:103E90008001609181017091820140938301509370
:103EA0008401609385017093860181E0F2DE1CC07D
:103EB0000E94310486E890E00E9404068091460149
:103EC000902F981B892F0E94A90582E890E00E94FC
:103ED00004060E9409048FE30E945C050E94BA0553
:103EE0000E940E040E94BA058C2F47DF88EE93E0F3
:103EF0000E946D0A81110AC080911E01843030F445
:103F00008C2F42DFC82F8A3F08F492CF0E943704DB
:103F1000DF91CF911F910F910895A3E1B0E0E3E904
:103F2000FFE10C94713A82E08093020180912501B7
:103F3000813009F023C280917A01813009F01EC2DC
:103F40002090610124E0229EF0011124E255FE4FF1
:103F500080819181A281B381893032E59307A105E7
:103F6000B10508F00BC29B8B8A8B312C61E0822D4E
:103F7000631528F00E94A006B82EA92E03C00E9447
:103F8000A0065C01EA2DF0E0E45BFE4F74908B2DFF
:103F900090E0FC01E75BFE4FE49115B828E028B9FA
:103FA0002A893B89203F3105A8F430FC13C00091D9
:103FB0001F011091200100591A4121E030E00B2C23
:103FC00002C0220F331F0A94E2F7C90188608729D3
:103FD00087B908C0E4B9872D886087B900911F01AF
:103FE0001091200144E1642E8B2D0E94BF094C01E9
:103FF0008A2D0E94C70934E08316910410F40497B7
:1040000010F06A9489F760E460937B0084E580BFD8
:104010008B2D806480937C0086E180937A00E12C74
:10402000F12C10928000109285001092840087E29B
:1040300086BB0E948209932D9170998B30FC05C03C
:1040400081E88093810078B808C078B80E948B0915
:1040500080E286BB81E88093810046B345FF13C0B0
:1040600028E028B91092810080E286BB809186000A
:10407000909187006C012091840030918500821717
:10408000930768F013C040FFE8CF31E036BBA89536
:10409000C70101967C0180359105F9F6E1CF40FF1B
:1040A00005C061E066BB8FEFE81AF80A86E98093E5
:1040B0007A0034E1732E8B2D0E94BF094C018A2DAA
:1040C0000E94C70924E08216910410F4049710F0AE
:1040D0007A9489F780904301909044018A899B8962
:1040E000880E991E800E911E20912101309122018F
:1040F00000399AE11907B0F461EEC616D104E10463
:10410000F10438F4C60165E070E00E94AE396451F4
:1041100001C069E128523109261B310967FD339539
:1041200086E009C0C40160EB76E30E94AE3987E007
:10413000860F285D3F4F90E0A0E0B0E08C159D0514
:10414000AE05BF0528F4C81AD90AEA0AFB0A03C05B
:10415000C12CD12C76018989882329F092E2C90EDD
:10416000D11CE11CF11C60E5E616F10418F0C12C2D
:10417000D12C76018BE0C816D104E104F10428F0BB
:1041800091E0C91AD108E108F10840913A01509133
:104190003B01A12CB12CA8EEB3E00E946E392B019B
:1041A0003C019801DA010E946E39A50194010E9438
:1041B000D53944275527C301B2010E94D539C90119
:1041C0000E94540BFC01A5019401C701B6010E9495
:1041D00093394B015C01BF0180E090E023E0660F62
:1041E000771F881F991F2A95D1F76B5F7F4F8F4FDD
:1041F0009F4F2AE030E040E050E00E94D539C501F1
:10420000B4010E94D539832D90E0E1E0F0E0EC0F9D
:10421000FD1F64E0369EE00DF11D112420833183E3
:10422000428353836989611117C06CE0C616D104BB
:10423000E104F10488F0FC013196EE0FFF1FEE0F50
:10424000FF1F81E090E08C0F9D1FE80FF91F208376
:104250003183428353833394A895339493E0931529
:1042600008F084CE88E088B984E00E948F0921E0BC
:104270004D815E816F81788589819A81AB81BC8116
:1042800084179507A607B70708F020E04D855E85DF
:104290006F85788989859A85AB85BC858417950754
:1042A000A607B70710F032E001C033E0E22FF0E0DC
:1042B000EE0FFF1FEE0FFF1F81E090E08C0F9D1FA0
:1042C000E80FF91FDC0194E0399FA00DB11D112406
:1042D0004D915D916D917C9180819181A281B3819D
:1042E000481759076A077B0708F0322FE1E0F0E032
:1042F000EC0FFD1F24E0329FE00DF11D11248081A1
:104300009181A281B38180930B0190930C01A093C2
:104310000D01B0930E0130FD09C02A893B89203F71
:10432000310520F48BEF8093020117C02CEF20930E
:104330000201BC01CD016B5F7F4F8F4F9F4F2AE081
:1043400030E040E050E00E94D53920930B013093DB
:104350000C0140930D0150930E0180910B0190913F
:104360000C01A0910D01B0910E01892B8A2B8B2B92
:1043700011F41092020188E087B914B86396E2E163
:104380000C948D3AAEE1B0E0E8ECF1E20C94713AB5
:10439000662EB82E860F898320912501283059F585
:1043A00020918301309184014091850150918601D3
:1043B00057FD15C01091920109C0CA01B9012AE048
:1043C000312D412D512D0E94D5391F5F173FACF380
:1043D00091F42A3560E036074105510518F48FEF56
:1043E0009FEF7DC1173F39F480E028178DE738072C
:1043F0004105410510F020E03DE72C8B3D8B26ED7B
:10440000A22EECE4F1E0E60DF11D859188608E8727
:10441000ECE4F1E0EB0DF11D859188608F87E9E414
:10442000F1E0E60DF11D7590E9E4F1E0EB0DF11D11
:10443000C59090EC692AB92A81E0E82EF12C012D73
:10444000112D8E831F82188619861A861B861C865C
:104450001D86188E198E1B8E1A8E0E94931888E066
:1044600088B960927C000E9483093F8537B975B88E
:1044700074B80E948A0914B815B8DD24A6ED8A2EF6
:104480003E8537B975B874B860927C00A895A09243
:104490007A0080917A0086FDFCCFA0927A0080910C
:1044A0007A0086FDFCCF2090780030907900B092A1
:1044B0007C00A0927A0080917A0086FDFCCF8092E9
:1044C0007A000E9488090E948A09C5B8C4B80E946F
:1044D00089090E948B09A895A895A895A89514B854
:1044E00015B880917A0086FDFCCF2091780030913C
:1044F0007900288B398B3F8537B9C5B8C4B8A895E2
:10450000B0927C00A0927A0080917A0086FDFCCF68
:10451000A0927A0080917A0086FDFCCF60917800AD
:104520007091790060927C00A0927A0080917A006C
:1045300086FDFCCF80927A000E9488090E948A0939
:1045400075B874B80E9489090E948B09A895A8952E
:10455000A895A89514B815B880917A0086FDFCCF6F
:10456000409178005091790014B8CB01820D931DD1
:10457000E80EF91E011D111DEA82FB820C831D83CA
:1045800088899989840F951F2E813F816885798557
:10459000280F391F611D711D2E833F83688779871E
:1045A00022E32417150650F075B874B80E948D09DF
:1045B00014B815B8888D8395888F07C0483E73E07E
:1045C000570718F08A8D83958A8F888999892817CB
:1045D000190660F03E8537B9C5B8C4B80E948D0988
:1045E00014B815B8898D8395898F07C0883E73E00C
:1045F000970718F08B8D83958B8FD3945D2D5F3F3C
:1046000009F03ECF4090430150904401440C551CAA
:104610009201E4E0240D351DEA95E1F729015701E7
:1046200068016E807F8088849984209125012830DC
:10463000C1F46C897D89812D912D6C53704080402F
:1046400090409B01AC010E9493399B01AC016FEF3C
:1046500071EC8EE390E00E94D539621A730A840AE5
:10466000950AA614B704C804D90428F46A187B086C
:104670008C089D0803C0662477244301B20180E0C2
:1046800090E09301A4010E9493399501A6010E9434
:10469000D5398EE393E07981870F911D0E94073B06
:1046A00090E0682EC90160E170E00E94AE39260FEB
:1046B000371FC9016816190618F4861991090FC029
:1046C0008C5E9F4F8615910540F48C899D898439B5
:1046D00081E1980710F00E94CB0F812D912D6E96ED
:1046E000E2E10C948D3AA4E0B0E0E9E7F3E20C9447
:1046F000793A80918D0190918E01892B09F0B5C096
:10470000E0918F01F0E0E45BFE4F04910860E091DE
:104710009001F0E0E75BFE4F14910E94931888E04F
:1047200088B915B807B914B9809190010E94C709DA
:104730005C01009192018CE0800F843008F095C0FC
:10474000015F8091830190918401A0918501B091D6
:1047500086012AE0C22ED12CE12CF12CBC01CD0126
:104760006B5F7F4F8F4F9F4FA70196010E94D539F6
:104770000F5F073019F0DA01C901F0CF293883E162
:1047800038074105510508F070C02530310508F49F
:104790006CC015B914B900E010E00217130768F4F3
:1047A00029833A834B835C830E9489090E5F1F4FE4
:1047B0005C814B813A812981F0CF14B815B8A89556
:1047C00085E0809336018091900129833A834B8361
:1047D0005C830E94C70929813A814B815C81A816BC
:1047E000B90620F47C01EA18FB0802C0E12CF12C88
:1047F00000E010E00217130768F429833A834B8323
:104800005C830E9489090F5F1F4F5C814B813A8155
:104810002981F0CF809190010E94C70927E320935E
:104820003601A895A816B90618F48A199B0902C082
:1048300080E090E08E159F0588F49701281B390BC6
:1048400069F0A4EFB1E00E946E39970140E050E0BA
:104850000E94D53930938E0120938D010E949318C8
:1048600088E087B988B914B815B82496EAE00C94A2
:10487000953AA5E0B0E0EFE3F4E20C94713A88E3F6
:1048800092E0B8D620EF2A8354980E947E0914BC87
:1048900016BC109212011092130110921401109282
:1048A000150131E035BB30936E001092800083E13A
:1048B0009AE790938B0080938A00E1E0F0E0F09318
:1048C0008900E0938800109285001092840083B5DF
:1048D000816083BDF6E0F6BBF0936F00789424E02E
:1048E0002093810012E319820E947709A8954F99BD
:1048F00002C031E0398385B5811127C015BC86B56A
:10490000809312010E940E040E94BA050E941304B3
:104910000E94BA050E94E60586E60E945C050E9498
:10492000E905609112017091130180911401909139
:10493000150147E00E941B0854988091810088234C
:1049400039F08FE30E945C0503C0115069F6D6CFA1
:104950001092810010926F0020911201309113018A
:104960004091140150911501DA01C9010197A10983
:10497000B109893D9146A105B10508F029C1AAE018
:10498000B0E00E948339685F7F4F8F4F9F4F23E0D5
:1049900096958795779567952A95D1F7660F771F36
:1049A000709375016093740154980E947E0916BC3F
:1049B000109212011092130110921401109215011D
:1049C00081E085BB80936E00109277011092760192
:1049D00094E09BBB80916800846080936800789429
:1049E00080916D00806180936D001D820E94770927
:1049F000A8954F9902C0E1E0E98380916D0084FFA2
:104A000005C0FD81FF5FFD83FA3F81F715BC8091F2
:104A10006D008F7E80936D00809168008B7F809306
:104A2000680086B5809312010E940E0484E50E94FE
:104A30005C050E94E9058091120190911301A091FB
:104A40001401B091150120917401309175013C83DE
:104A50002B831C012D019C01A20160E070E080E02D
:104A600090E003E00E94AE3A51016201E12CF12C8A
:104A700000E010E00E94C73A59016A017B01E82F6B
:104A8000192F03E00E94AE3A0E2F0E94C73A03E0AE
:104A90000E94AE3A51016201E12CF12C00E010E0DD
:104AA0000E94C73A02E00E94AE3A00E00E94C73A74
:104AB00001E00E94AE3A00E00E94C73A03E00E9483
:104AC000AE3AEB81FC815F01C12CD12C00E00E9449
:104AD0000D3A39014A011B012C012B813C81203800
:104AE000310530F007E023E745EFB301C40116C0FC
:104AF00084E6A82EB12CC12CD12CE12CF12C00E0A5
:104B000010E09301C2010E940D3AE22FF42F07E05A
:104B100023E747EF6E2F732F8F2F952F0E941707D4
:104B20003D813A3F21F48FE30E945C0551C093011F
:104B3000A401B101C2012C393E4C4340510561052D
:104B400071058105910509F008F442C00E94130423
:104B500086E60E945C050E94E9059301A401B1016B
:104B6000C201530164017101820121153A4C4A4985
:104B70005B43610571058105910589F080F020E0B6
:104B800030E04AE85DE568E775E483E691E00E947D
:104B90000D3AE22FF42F07E028E44AEF0FC020E09F
:104BA00030E846EC54EA6EE77DE883E090E00E944E
:104BB0000D3AE22FF42F07E028E44CEF6E2F732F0D
:104BC0008F2F952F0E9417078AE70E945C05549843
:104BD00010926E0080ED97E00E946D0A2981820F8D
:104BE00049F480911E01833028F43A8131503A8390
:104BF00031114ACE2596E2E10C948D3A1F920F9224
:104C00000FB60F9211248F939F93AF93BF93789415
:104C10008091120190911301A0911401B09115019E
:104C20009F5FAF4FBF4F8093120190931301A093EA
:104C30001401B0931501BF91AF919F918F910F9087
:104C40000FBE0F901F9018951F920F920FB60F92E4
:104C500011248F9386E085BD8F910F900FBE0F902A
:104C60001F9018951F920F920FB60F921124A895BE
:104C70001092810015BC0F900FBE0F901F901895D9
:104C80001F920F920FB60F9211242F933F938F9381
:104C90009F938091760190917701892B11F481E0A7
:104CA00085BD2091760130917701809174019091BA
:104CB00075012817390730F015BC80916D008F7E83
:104CC00080936D0080917601909177010196909389
:104CD0007701809376019F918F913F912F910F9053
:104CE0000FBE0F901F9018958D3008F08D508111D8
:104CF00003C082E492E03BC0813019F488E392E083
:104D000036C0823019F48FE092E031C0833019F45C
:104D100084E092E02CC0843019F488E990E027C048
:104D2000853019F48DE890E022C0863019F486E8C9
:104D300090E01DC0873019F483EF91E018C08830EF
:104D400019F484EE91E013C0893019F480E392E005
:104D50000EC08A3019F48DEC91E009C08B3019F443
:104D600086E292E004C08C3021F48BE192E00E9454
:104D700004060C94BA050F93CF9388E990E03AD4D7
:104D8000C0E01092250160E082E050D480912501BE
:104D90008830C1F50E94090483E40E945C050E94EA
:104DA000E905609183017091840180918501909162
:104DB000860103E026E4409192010E9417070E94B9
:104DC000BA0560918F0180919001DCDA90938C019B
:104DD00080938B010E940E048AE591E00E940406F4
:104DE00080918B0190918C018A3F2FEF920730F4D4
:104DF00022E044E06EEF0E94060808C08FE30E94A4
:104E00005C0504C00E94E6050E940E040E94BA05DB
:104E10008C2F0E94BD1E88EE93E00E946D0A8111C6
:104E20000BC080911E01843038F48C2F0E94C41E68
:104E3000C82F8A3F08F4A5CFCF910F9108951F93F3
:104E4000CF93DF9380E392E0D5D3C0E0D0E01AE0C7
:104E50000E94E3050E942D040E942D0484E491E049
:104E60000E94040686E00E94C30963E09C01129F31
:104E7000C001139F900D11240E9411080E94E605A5
:104E80000E942D0484E491E00E94040687E00E94C1
:104E9000C30963E09C01129FC001139F900D112470
:104EA0000E9411088C2F0E94BD1E88EE93E00E9484
:104EB0006D0A90911E01811102C0992361F0C0E03A
:104EC000963088F48F3510F0DF5F02C0882319F028
:104ED000D53010F008C0D0E08C2F0E94C41EC82F1F
:104EE000803F08F4B5CFDF91CF911F910895A5E0E1
:104EF000B0E0EDE7F7E20C94713A8FE092E07AD3FC
:104F000080E18093800010926F0081E090E09093A8
:104F100089008093880010928B0010928A0083E0B1
:104F200086BB1092820088E08093810015B891E1E1
:104F300094B988B989E087B9229A80938100212C9D
:104F40001B822AE0298333243394812C912C540131
:104F5000839411E1822D90E00A966EE170E00E9448
:104F6000C239662E562E3B81631789F00E943104A8
:104F70008FE092E00E940406712C751428F48EE2F2
:104F80000E945C057394F9CF0E94BA056B821231BE
:104F9000C8F0C701B601A50194010E94D5392B01C3
:104FA0003C01832D69810E94A239A92FB0E0A5019F
:104FB00094010E9483396B017C01C40CD51CE61C52
:104FC000F71C0CC0832D69810E94A239A92FB0E083
:104FD000A50194010E9483396B017C010E940904A0
:104FE0008981381208C081E0123108F480E08A8398
:104FF000811106C001C01A82163120F48EE303C06D
:105000008CE301C082E50E945C050E94A705412F48
:10501000C701B6010E941B08C701B6017E5E854824
:105020009F4FA7019601220F331F441F551F0E9457
:10503000D539CA014F3F510539F030F08DE08093EA
:10504000810080E094E01FC04034510530F08CE0D6
:105050008093810080E091E016C04830510530F027
:105060009BE09093810080E490E00DC0892B31F0AB
:10507000EAE0E093810088E090E005C0F9E0F09379
:10508000810081E090E02C01612C712CCA01B901F2
:10509000A30192010E94D539C9010197909389001B
:1050A000809388008091880090918900892B31F449
:1050B00021E030E030938900209388000E94BA05F7
:1050C0000E940E0486E60E945C050E94A70580915E
:1050D0008800909189009D838C8360E079E08DE366
:1050E00090E0A30192010E94D539A4E6B0E00E94AD
:1050F0008339EC81FD8131969F0140E050E00E94B0
:10510000D53929013A01A4E6B0E0A70196010E9431
:105110008339461A570A680A790A05E228E44EEFED
:10512000C301B2010E9417078AE70E945C050E9432
:10513000BA058CED95E00E946D0A811105C0809141
:105140001E01811143C043C0863960F01092810076
:105150001092800088E087B914B822982596E2E181
:105160000C948D3A813578F1FA81FF23D9F01150F2
:10517000C501B4012AE030E040E050E00E94D5399A
:1051800049015A01C701B6010E94D539CA01B901C6
:105190002AE030E040E050E00E94D539362E2AE087
:1051A00029833DC0163190F51F5F163111F435E1AA
:1051B0003983AAE0B0E0A50194010E9483394B0134
:1051C0005C01312C2CC08B3008F03394212C809161
:1051D0001E018B3008F0BACF80911D0187FF03C0FC
:1051E0008F5F9981890F830D90E0E9816E2F70E0C8
:1051F0006F5F7F4F0E94C239382E822D0E94C41EDD
:10520000282EFFEEF81708F0A5CEA0CF2AE02983BC
:1052100033243394812C912C5401839411E1212C5B
:1052200099CEA4E0B0E0E7E1F9E20C94753A84E0AD
:1052300092E0E0D183E28093800010926F008FEFC4
:1052400090E090938B0080938A0083E086BB10925D
:10525000820015B881E184B988E088B929E027B9CE
:10526000229A81E090E090938900809388002093B7
:10527000810010E000E0A2E37A2E612CB4E6CB2E90
:10528000D12CE12CF12C88248A9483E0982EA12C37
:10529000B12C7016E9F183E6871510F4ECE97E0E67
:1052A000272D30E0AFEFB3E00E946E396E5C7F4F88
:1052B0008F4F9F4FA70196010E94D53930938B00E5
:1052C00020938A0029833A834B835C830E940904DC
:1052D000A8EEB3E029813A814B815C810E94833939
:1052E00061507E4F8F4F9F4FA50194010E94D53989
:1052F000DA01C90125E045E26FEF0E9406080E942D
:10530000BA05F8E2F61518F48CE30E948F09072D10
:1053100080E496E00E946D0A682E82E8861560F4AB
:1053200088E087B9109281001092800014B822980A
:105330002496EEE00C94913A90911E019B3080F7F8
:1053400080911D0187FD8C59780EE2E3E61518F473
:10535000FAE07F0E03C0662051F0739410E0812FB5
:105360000E94C41E182F803F08F493CFD9CF91110B
:10537000F5CFF5CFCF93DF938DEC91E03BD18DE36B
:1053800093E00E94073BC82FD0E081E80E942604EA
:105390008C2F0E9426040E94090424E040E260E071
:1053A0008C2F90E00E9406080E94BA0580E496E0E7
:1053B0000E946D0A811105C090911E01911103C0D8
:1053C00003C08238C8F4D0E090911E019B30A0F455
:1053D00090911D0197FD90589C0F882329F08932E8
:1053E00010F09F5F01C09158C92FCF778D2F0E9479
:1053F000C41ED82F803F48F26C2F8DE393E00E94AB
:10540000143BDF91CF9108950F931F93CF93DF93B8
:1054100083EF91E0EFD082E493E00E94073B182FE6
:1054200000E00E940904C12FDD27C7FDD09517FFBA
:105430000BC08DE20E945C0523E045E26FEF8827F8
:1054400099278C1B9D0B04C023E045E26FEFCE0132
:105450000E9406080E94BA0580E496E00E946D0A48
:10546000811105C090911E01911103C003C08238C3
:1054700000F500E090911E019B30D8F490911D0141
:10548000910F811102C0192F06C0893210F011E06E
:1054900001C01FEF190F113514F0155603C01C3E43
:1054A0000CF41B59802F0E94C41E082F803F08F463
:1054B000B8CF612F82E493E00E94143BDF91CF913B
:1054C0001F910F910895813011F480E0D2C982308C
:1054D00009F40DCD833009F4A4CE843009F44BCC0B
:1054E000853011F40C94CE1E863021F40E943704CE
:1054F0000C94101F873009F487CF883019F481E1AC
:105500000C94F20B893009F49ACC8A3009F432CF2A
:105510008B3009F4CDC18C3029F45E9880E090E0A6
:105520000C946D0A0895FF920F931F93CF93DF930E
:105530008DE492E05FD0D0E0C0E01BE01C0FF12CC6
:1055400001E00F0D60E0802F0E94FC0382E0F81262
:1055500004C08EE30E945C0502C00E94A7051D30B6
:1055600018F083EF810F01C0812FBEDB1F5F063073
:1055700011F0F02EE5CF80E49FE10E946D0A8111C9
:10558000D0E090914001913009F4D0E0823330F4C2
:1055900090917B01992371F0882361F0CC2321F154
:1055A0008C2F91DF10921E0110921D018DE492E06C
:1055B00021D080E090911E019A30B0F490911D01AD
:1055C000992319F097FD03C0D0E0C90F03C0935F82
:1055D000C90FD0E08111CF5FDF5FD23828F4CD3022
:1055E00008F4ABCFCD50A9CF80E0CDB7DEB7E5E072
:1055F0000C949A3AA2E0B0E0E0E0FBE20C94803A2E
:1056000089839A830E94370489819A810E940406C3
:1056100014E682E00E948F094F9902C01150C9F729
:105620000E9409042296E3E00C949C3AA4E0B0E0C6
:10563000ECE1FBE20C94763A882E762E862F90E0F1
:10564000FC01E45BFE4F14911860E82DF0E0E75B8D
:10565000FE4FB490FC01E75BFE4F049110928C0169
:1056600010928B0110927F011092800110928101A3
:105670001092820187EF809391010E94931888E035
:1056800088B917B904B905B9882D0E94C7098C01DA
:10569000872D0E94C709081B190B14B810925D01D1
:1056A00010925C0120E030E09CE2E92EFF24F394AC
:1056B0004AE0A42E54E6952E80915C0190915D0104
:1056C000843D904308F069C0B5B880915C01909129
:1056D0005D01892B89F06701C21AD30A60915C01D0
:1056E00070915D01A29EC001A39E900D11240E94A5
:1056F000AE39C616D70650F4B4B80E94820914B861
:1057000080915C0190915D01019628C080915C01BF
:1057100090915D010B97C8F060915C0170915D0103
:10572000929EC001939E900D11240E94AE396C157B
:105730007D0558F4B4B80E94770914B880915C01D3
:1057400090915D018C599F4F09C0B4B80E947D09AA
:1057500014B880915C0190915D010A9690935D016F
:1057600080935C0115B80E948409A895882D0E9439
:10577000C7099C01201B310B80915C0190915D0158
:105780008B31964020F0253231050CF488C02D3243
:1057900081E038070CF490CF05C02D32F1E03F07CF
:1057A0000CF47DC080915C0190915D01019729F41A
:1057B000253145E034070CF072C000915C01109176
:1057C0005D01000F111FA80160E070E040938701A8
:1057D000509388016093890170938A01C90168E23E
:1057E00070E00E94C239C901860F971F0E94791C80
:1057F0009C01D8010E946E396093870170938801E3
:105800008093890190938A0160937F017093800156
:1058100080938101909382010E941E1920917F0143
:1058200030918001409181015091820182E493E0A6
:1058300029833A834B835C830E94073BA8EEB3E045
:10584000A81BB10987FDB39529813A814B815C8101
:105850000E948D3920E137E240E050E00E94D539C6
:1058600020937F0130938001409381015093820106
:1058700088E0809325012093830130938401409335
:10588000850150938601809191018093920110923D
:105890008E0110928D0170928F018092900188E0AC
:1058A00087B988B914B815B82496EDE00C94923AEB
:1058B000A0E0B0E0EEE5FCE20C947C3A0E943704F4
:1058C0008EE091E00E9404060E9409048AEC90E0B8
:1058D0000E94040680E493E00E94073B23E040E23C
:1058E0006EEF90E00E94060881E493E00E94073B7F
:1058F00023E040E26EEF90E00E9406088FE393E021
:105900000E94073B23E044E06EEF90E00E9406080F
:105910000E940E0483EC90E00E94040623E044E021
:105920006FEF80913C0190913D010E9406080E941A
:1059300013048CEB90E00E94040623E044E06FEF38
:1059400080914301909144010E94060888E99AE3FE
:105950000E946D0A80911E018B3008F0C3C08091B7
:105960001D0187FDABCF0E94370488EB90E00E94B9
:10597000040684E693E00E94073B90E042970E9471
:105980004A0685E693E00E94073B90E042970E941A
:105990004A0681E693E00E94073B90E023E046E45C
:1059A00064EF42970E9406080E94090483E00E9467
:1059B000A90580E693E00E94073B90E042970E9491
:1059C0004A0683E693E00E94073B90E042970E94DC
:1059D0004A068FE593E00E94073B90E023E046E40F
:1059E00064EF42970E9406080E940E0486E290E04F
:1059F0000E94040686E693E00E940F3B0E94360652
:105A00000E9413048FE190E00E94040688E693E070
:105A10000E94073B992787FD90950E94360660E01B
:105A200087E00E94FC03F12CDF2CDD0CDF0CE12C65
:105A3000DA94FE1409F449C0CD2DCE0DD0E0CC0F80
:105A4000DD1FCE018F5A9C4F0E940F3B8C01CE016F
:105A50008D5B9C4F0E940F3BEC018091AD01873024
:105A6000A8F088E99AE30E946D0A80911E018B30AC
:105A7000C8F580911D018E3F0CF420CF8E3F09F4B4
:105A800072CF8F3F61F20E94370403C080E00E9412
:105A9000BF0580EB90E00E9404068F2D0E94A505B3
:105AA0008AE30E945C058E2D0E94A50580E00E947D
:105AB000BF0523E040E26EEFC8010E94060823E024
:105AC00046E462EFCE010E940608E39483E0E81208
:105AD000B0CFF394F812A8CF88E99AE30E946D0A38
